{
  "_format": "hh-sol-artifact-1",
  "contractName": "NodeVault",
  "sourceName": "contracts/NodeVault.sol",
  "abi": [
    {
      "inputs": [],
      "stateMutability": "nonpayable",
      "type": "constructor"
    },
    {
      "anonymous": false,
      "inputs": [
        {
          "indexed": true,
          "internalType": "uint256",
          "name": "poolId",
          "type": "uint256"
        },
        {
          "indexed": false,
          "internalType": "string",
          "name": "name",
          "type": "string"
        },
        {
          "indexed": false,
          "internalType": "uint256",
          "name": "allocation",
          "type": "uint256"
        }
      ],
      "name": "PoolCreated",
      "type": "event"
    },
    {
      "anonymous": false,
      "inputs": [
        {
          "indexed": true,
          "internalType": "address",
          "name": "staker",
          "type": "address"
        },
        {
          "indexed": false,
          "internalType": "uint256",
          "name": "amount",
          "type": "uint256"
        },
        {
          "indexed": false,
          "internalType": "uint256",
          "name": "timestamp",
          "type": "uint256"
        }
      ],
      "name": "Staked",
      "type": "event"
    },
    {
      "anonymous": false,
      "inputs": [
        {
          "indexed": true,
          "internalType": "address",
          "name": "staker",
          "type": "address"
        },
        {
          "indexed": false,
          "internalType": "uint256",
          "name": "amount",
          "type": "uint256"
        },
        {
          "indexed": false,
          "internalType": "uint256",
          "name": "timestamp",
          "type": "uint256"
        }
      ],
      "name": "Unstaked",
      "type": "event"
    },
    {
      "anonymous": false,
      "inputs": [
        {
          "indexed": true,
          "internalType": "address",
          "name": "staker",
          "type": "address"
        },
        {
          "indexed": false,
          "internalType": "uint256",
          "name": "yieldAmount",
          "type": "uint256"
        }
      ],
      "name": "YieldClaimed",
      "type": "event"
    },
    {
      "anonymous": false,
      "inputs": [
        {
          "indexed": false,
          "internalType": "uint256",
          "name": "totalYield",
          "type": "uint256"
        },
        {
          "indexed": false,
          "internalType": "uint256",
          "name": "timestamp",
          "type": "uint256"
        }
      ],
      "name": "YieldDistributed",
      "type": "event"
    },
    {
      "inputs": [],
      "name": "MIN_STAKE",
      "outputs": [
        {
          "internalType": "uint256",
          "name": "",
          "type": "uint256"
        }
      ],
      "stateMutability": "view",
      "type": "function"
    },
    {
      "inputs": [],
      "name": "YIELD_RATE",
      "outputs": [
        {
          "internalType": "uint256",
          "name": "",
          "type": "uint256"
        }
      ],
      "stateMutability": "view",
      "type": "function"
    },
    {
      "inputs": [],
      "name": "claimYield",
      "outputs": [],
      "stateMutability": "nonpayable",
      "type": "function"
    },
    {
      "inputs": [
        {
          "internalType": "string",
          "name": "name",
          "type": "string"
        },
        {
          "internalType": "uint256",
          "name": "allocation",
          "type": "uint256"
        }
      ],
      "name": "createPool",
      "outputs": [],
      "stateMutability": "nonpayable",
      "type": "function"
    },
    {
      "inputs": [],
      "name": "distributeYield",
      "outputs": [],
      "stateMutability": "payable",
      "type": "function"
    },
    {
      "inputs": [],
      "name": "getStakerCount",
      "outputs": [
        {
          "internalType": "uint256",
          "name": "",
          "type": "uint256"
        }
      ],
      "stateMutability": "view",
      "type": "function"
    },
    {
      "inputs": [
        {
          "internalType": "address",
          "name": "stakerAddr",
          "type": "address"
        }
      ],
      "name": "getStakerInfo",
      "outputs": [
        {
          "internalType": "uint256",
          "name": "amount",
          "type": "uint256"
        },
        {
          "internalType": "uint256",
          "name": "pendingYield",
          "type": "uint256"
        },
        {
          "internalType": "uint256",
          "name": "stakedSince",
          "type": "uint256"
        },
        {
          "internalType": "uint256",
          "name": "estimatedAnnualYield",
          "type": "uint256"
        }
      ],
      "stateMutability": "view",
      "type": "function"
    },
    {
      "inputs": [],
      "name": "getVaultStats",
      "outputs": [
        {
          "internalType": "uint256",
          "name": "_totalStaked",
          "type": "uint256"
        },
        {
          "internalType": "uint256",
          "name": "_totalYieldGenerated",
          "type": "uint256"
        },
        {
          "internalType": "uint256",
          "name": "_stakerCount",
          "type": "uint256"
        },
        {
          "internalType": "uint256",
          "name": "_vaultBalance",
          "type": "uint256"
        }
      ],
      "stateMutability": "view",
      "type": "function"
    },
    {
      "inputs": [
        {
          "internalType": "uint256",
          "name": "poolId",
          "type": "uint256"
        },
        {
          "internalType": "uint256",
          "name": "amount",
          "type": "uint256"
        }
      ],
      "name": "investInPool",
      "outputs": [],
      "stateMutability": "nonpayable",
      "type": "function"
    },
    {
      "inputs": [],
      "name": "owner",
      "outputs": [
        {
          "internalType": "address",
          "name": "",
          "type": "address"
        }
      ],
      "stateMutability": "view",
      "type": "function"
    },
    {
      "inputs": [],
      "name": "poolCount",
      "outputs": [
        {
          "internalType": "uint256",
          "name": "",
          "type": "uint256"
        }
      ],
      "stateMutability": "view",
      "type": "function"
    },
    {
      "inputs": [
        {
          "internalType": "uint256",
          "name": "",
          "type": "uint256"
        }
      ],
      "name": "pools",
      "outputs": [
        {
          "internalType": "string",
          "name": "name",
          "type": "string"
        },
        {
          "internalType": "uint256",
          "name": "allocation",
          "type": "uint256"
        },
        {
          "internalType": "uint256",
          "name": "totalInvested",
          "type": "uint256"
        },
        {
          "internalType": "bool",
          "name": "active",
          "type": "bool"
        }
      ],
      "stateMutability": "view",
      "type": "function"
    },
    {
      "inputs": [],
      "name": "stake",
      "outputs": [],
      "stateMutability": "payable",
      "type": "function"
    },
    {
      "inputs": [
        {
          "internalType": "uint256",
          "name": "",
          "type": "uint256"
        }
      ],
      "name": "stakerAddresses",
      "outputs": [
        {
          "internalType": "address",
          "name": "",
          "type": "address"
        }
      ],
      "stateMutability": "view",
      "type": "function"
    },
    {
      "inputs": [
        {
          "internalType": "address",
          "name": "",
          "type": "address"
        }
      ],
      "name": "stakers",
      "outputs": [
        {
          "internalType": "uint256",
          "name": "amount",
          "type": "uint256"
        },
        {
          "internalType": "uint256",
          "name": "timestamp",
          "type": "uint256"
        },
        {
          "internalType": "uint256",
          "name": "lastClaim",
          "type": "uint256"
        },
        {
          "internalType": "uint256",
          "name": "pendingYield",
          "type": "uint256"
        }
      ],
      "stateMutability": "view",
      "type": "function"
    },
    {
      "inputs": [],
      "name": "totalStaked",
      "outputs": [
        {
          "internalType": "uint256",
          "name": "",
          "type": "uint256"
        }
      ],
      "stateMutability": "view",
      "type": "function"
    },
    {
      "inputs": [],
      "name": "totalYieldGenerated",
      "outputs": [
        {
          "internalType": "uint256",
          "name": "",
          "type": "uint256"
        }
      ],
      "stateMutability": "view",
      "type": "function"
    },
    {
      "inputs": [
        {
          "internalType": "uint256",
          "name": "amount",
          "type": "uint256"
        }
      ],
      "name": "unstake",
      "outputs": [],
      "stateMutability": "nonpayable",
      "type": "function"
    },
    {
      "stateMutability": "payable",
      "type": "receive"
    }
  ],
  "bytecode": "0x60806040523480156200001157600080fd5b50600080546001600160a01b0319163317905560408051808201909152601681527f536d616c6c20427573696e657373204c656e64696e6700000000000000000000602082015262000065906028620000d8565b60408051808201909152601581527f477265656e20456e657267792050726f6a6563747300000000000000000000006020820152620000a6906023620000d8565b604080518082019091526008815267526573657276657360c01b6020820152620000d2906019620000d8565b62000393565b6040805160808101825283815260208082018490526000828401819052600160608401526006548152600590915291909120815181906200011a908262000248565b506020820151600182015560408083015160028301556060909201516003909101805460ff191691151591909117905560065490517f3040bbc5c012df6c85e9f1cc10202ceda09051bc16d18aa369bf9ada2ba7716f9062000180908590859062000314565b60405180910390a2600680549060006200019a836200036b565b91905055505050565b634e487b7160e01b600052604160045260246000fd5b600181811c90821680620001ce57607f821691505b602082108103620001ef57634e487b7160e01b600052602260045260246000fd5b50919050565b601f8211156200024357600081815260208120601f850160051c810160208610156200021e5750805b601f850160051c820191505b818110156200023f578281556001016200022a565b5050505b505050565b81516001600160401b03811115620002645762000264620001a3565b6200027c81620002758454620001b9565b84620001f5565b602080601f831160018114620002b457600084156200029b5750858301515b600019600386901b1c1916600185901b1785556200023f565b600085815260208120601f198616915b82811015620002e557888601518255948401946001909101908401620002c4565b5085821015620003045787850151600019600388901b60f8161c191681555b5050505050600190811b01905550565b604081526000835180604084015260005b8181101562000344576020818701810151606086840101520162000325565b506000606082850101526060601f19601f8301168401019150508260208301529392505050565b6000600182016200038c57634e487b7160e01b600052601160045260246000fd5b5060010190565b61160680620003a36000396000f3fe60806040526004361061010d5760003560e01c80638c82505611610095578063a59aa5a611610064578063a59aa5a6146103f7578063ac4afa3814610413578063cb1c2b5c14610443578063e852090a1461045b578063f525cb681461047057600080fd5b80638c8250561461035d5780638da5cb5b146103735780639168ae7214610393578063a53caaa8146103d757600080fd5b8063406cf229116100dc578063406cf229146102b2578063459598a2146102c7578063733bdef0146102ff578063817b1cd21461033f5780638a570a121461035557600080fd5b80631319649d1461024657806326fc66ab1461026a5780632e17de781461028a5780633a4b66f1146102aa57600080fd5b3661024157341561023f573360009081526003602052604081205490036101bf576004805460018181019092557f8a35acfbc15ff81a39ae7d344fd709f28e8600b4aa8c65c6b64bfe7fe36bd19b0180546001600160a01b031916339081179091556040805160808101825234815242602082810182815283850192835260006060850181815296815260039283905294909420925183559251948201949094559251600284015590519101556101ed565b6101c833610486565b33600090815260036020526040812080543492906101e790849061120e565b90915550505b34600160008282546101ff919061120e565b90915550506040805134815242602082015233917f1449c6dd7851abc30abf37f57715f492010519147cc2652fbc38202c18a6ee90910160405180910390a25b005b600080fd5b34801561025257600080fd5b506004545b6040519081526020015b60405180910390f35b34801561027657600080fd5b5061023f61028536600461123d565b610503565b34801561029657600080fd5b5061023f6102a53660046112f2565b6105b2565b61023f61088b565b3480156102be57600080fd5b5061023f610a07565b3480156102d357600080fd5b506102e76102e23660046112f2565b610b80565b6040516001600160a01b039091168152602001610261565b34801561030b57600080fd5b5061031f61031a36600461130b565b610baa565b604080519485526020850193909352918301526060820152608001610261565b34801561034b57600080fd5b5061025760015481565b61023f610c32565b34801561036957600080fd5b5061025760025481565b34801561037f57600080fd5b506000546102e7906001600160a01b031681565b34801561039f57600080fd5b5061031f6103ae36600461130b565b600360208190526000918252604090912080546001820154600283015492909301549092919084565b3480156103e357600080fd5b5061023f6103f236600461133b565b610dec565b34801561040357600080fd5b506001546002546004544761031f565b34801561041f57600080fd5b5061043361042e3660046112f2565b610f04565b60405161026194939291906113a3565b34801561044f57600080fd5b506102576305f5e10081565b34801561046757600080fd5b50610257600581565b34801561047c57600080fd5b5061025760065481565b6001600160a01b03811660009081526003602081815260408084208151608081018352815481526001820154938101939093526002810154918301919091529182015460608201529091906104da90610fb9565b9050808260030160008282546104f0919061120e565b9091555050426002909201919091555050565b6000546001600160a01b031633146105535760405162461bcd60e51b815260206004820152600e60248201526d139bdd08185d5d1a1bdc9a5e995960921b60448201526064015b60405180910390fd5b60648111156105a45760405162461bcd60e51b815260206004820152601d60248201527f416c6c6f636174696f6e2063616e6e6f74206578636565642031303025000000604482015260640161054a565b6105ae828261102c565b5050565b336000908152600360205260409020546105fd5760405162461bcd60e51b815260206004820152600c60248201526b2737ba10309039ba30b5b2b960a11b604482015260640161054a565b336000908152600360205260409020805482111561065d5760405162461bcd60e51b815260206004820152601a60248201527f496e73756666696369656e74207374616b656420616d6f756e74000000000000604482015260640161054a565b61066633610486565b60038101541561074a57600381018054600091829055426002840155604051909190339083908381818185875af1925050503d80600081146106c4576040519150601f19603f3d011682016040523d82523d6000602084013e6106c9565b606091505b50509050806107125760405162461bcd60e51b8152602060048201526015602482015274165a595b19081d1c985b9cd9995c8819985a5b1959605a1b604482015260640161054a565b60405182815233907fc04825ba3f383b602255d2a13065a68e325c65c9e0ed5d031ea2b06f641873af9060200160405180910390a250505b8181600001600082825461075e91906113d4565b92505081905550816001600082825461077791906113d4565b909155505080546000036107b35761078e336110f1565b3360009081526003602081905260408220828155600181018390556002810183905501555b604051600090339084908381818185875af1925050503d80600081146107f5576040519150601f19603f3d011682016040523d82523d6000602084013e6107fa565b606091505b505090508061084b5760405162461bcd60e51b815260206004820152601760248201527f556e7374616b65207472616e73666572206661696c6564000000000000000000604482015260640161054a565b6040805184815242602082015233917f7fc4727e062e336010f2c282598ef5f14facb3de68cf8195c2f23e1454b2b74e91015b60405180910390a2505050565b6305f5e1003410156108df5760405162461bcd60e51b815260206004820152601760248201527f4d696e696d756d207374616b6520697320312048424152000000000000000000604482015260640161054a565b336000908152600360205260408120549003610986576004805460018181019092557f8a35acfbc15ff81a39ae7d344fd709f28e8600b4aa8c65c6b64bfe7fe36bd19b0180546001600160a01b031916339081179091556040805160808101825234815242602082810182815283850192835260006060850181815296815260039283905294909420925183559251948201949094559251600284015590519101556109b4565b61098f33610486565b33600090815260036020526040812080543492906109ae90849061120e565b90915550505b34600160008282546109c6919061120e565b90915550506040805134815242602082015233917f1449c6dd7851abc30abf37f57715f492010519147cc2652fbc38202c18a6ee90910160405180910390a2565b33600090815260036020526040902054610a525760405162461bcd60e51b815260206004820152600c60248201526b2737ba10309039ba30b5b2b960a11b604482015260640161054a565b610a5b33610486565b3360009081526003602081905260409091209081015480610ab25760405162461bcd60e51b81526020600482015260116024820152704e6f207969656c6420746f20636c61696d60781b604482015260640161054a565b600060038301819055426002840155604051339083908381818185875af1925050503d8060008114610b00576040519150601f19603f3d011682016040523d82523d6000602084013e610b05565b606091505b5050905080610b4e5760405162461bcd60e51b8152602060048201526015602482015274165a595b19081d1c985b9cd9995c8819985a5b1959605a1b604482015260640161054a565b60405182815233907fc04825ba3f383b602255d2a13065a68e325c65c9e0ed5d031ea2b06f641873af9060200161087e565b60048181548110610b9057600080fd5b6000918252602090912001546001600160a01b0316905081565b6001600160a01b038116600090815260036020818152604080842081516080810183528154808252600183015494820194909452600282015492810192909252909201546060830152919081908190610c0281610fb9565b935080602001519250606460058260000151610c1e91906113e7565b610c2891906113fe565b9150509193509193565b60003411610c7b5760405162461bcd60e51b81526020600482015260166024820152754e6f207969656c6420746f206469737472696275746560501b604482015260640161054a565b600060015411610cba5760405162461bcd60e51b815260206004820152600a6024820152694e6f207374616b65727360b01b604482015260640161054a565b3460026000828254610ccc919061120e565b90915550600090505b600454811015610db157600060048281548110610cf457610cf4611420565b60009182526020808320909101546001600160a01b0316808352600390915260409091205490915015610d9e57610d2a81610486565b6001546001600160a01b038216600090815260036020526040812054909190610d5390346113e7565b610d5d91906113fe565b90508060036000846001600160a01b03166001600160a01b031681526020019081526020016000206003016000828254610d97919061120e565b9091555050505b5080610da981611436565b915050610cd5565b50604080513481524260208201527ffe4996cd48c364c468cee70dd6b9061874ff01b05c5ea49311cbcabd9b9cb615910160405180910390a1565b6000546001600160a01b03163314610e375760405162461bcd60e51b815260206004820152600e60248201526d139bdd08185d5d1a1bdc9a5e995960921b604482015260640161054a565b60008281526005602052604090206003015460ff16610e8a5760405162461bcd60e51b815260206004820152600f60248201526e506f6f6c206e6f742061637469766560881b604482015260640161054a565b80471015610eda5760405162461bcd60e51b815260206004820152601a60248201527f496e73756666696369656e74207661756c742062616c616e6365000000000000604482015260640161054a565b60008281526005602052604081206002018054839290610efb90849061120e565b90915550505050565b600560205260009081526040902080548190610f1f9061144f565b80601f0160208091040260200160405190810160405280929190818152602001828054610f4b9061144f565b8015610f985780601f10610f6d57610100808354040283529160200191610f98565b820191906000526020600020905b815481529060010190602001808311610f7b57829003601f168201915b50505050600183015460028401546003909401549293909290915060ff1684565b80516000901580610fcc57506040820151155b15610fd957506000919050565b6000826040015142610feb91906113d4565b90506301e133806000610fff8260646113e7565b8551849061100f906005906113e7565b61101991906113e7565b61102391906113fe565b95945050505050565b60408051608081018252838152602080820184905260008284018190526001606084015260065481526005909152919091208151819061106c90826114d8565b506020820151600182015560408083015160028301556060909201516003909101805460ff191691151591909117905560065490517f3040bbc5c012df6c85e9f1cc10202ceda09051bc16d18aa369bf9ada2ba7716f906110d09085908590611598565b60405180910390a2600680549060006110e883611436565b91905055505050565b60005b6004548110156105ae57816001600160a01b03166004828154811061111b5761111b611420565b6000918252602090912001546001600160a01b0316036111e65760048054611145906001906113d4565b8154811061115557611155611420565b600091825260209091200154600480546001600160a01b03909216918390811061118157611181611420565b9060005260206000200160006101000a8154816001600160a01b0302191690836001600160a01b0316021790555060048054806111c0576111c06115ba565b600082815260209020810160001990810180546001600160a01b03191690550190555050565b806111f081611436565b9150506110f4565b634e487b7160e01b600052601160045260246000fd5b80820180821115611221576112216111f8565b92915050565b634e487b7160e01b600052604160045260246000fd5b6000806040838503121561125057600080fd5b823567ffffffffffffffff8082111561126857600080fd5b818501915085601f83011261127c57600080fd5b81358181111561128e5761128e611227565b604051601f8201601f19908116603f011681019083821181831017156112b6576112b6611227565b816040528281528860208487010111156112cf57600080fd5b826020860160208301376000602093820184015298969091013596505050505050565b60006020828403121561130457600080fd5b5035919050565b60006020828403121561131d57600080fd5b81356001600160a01b038116811461133457600080fd5b9392505050565b6000806040838503121561134e57600080fd5b50508035926020909101359150565b6000815180845260005b8181101561138357602081850181015186830182015201611367565b506000602082860101526020601f19601f83011685010191505092915050565b6080815260006113b6608083018761135d565b60208301959095525060408101929092521515606090910152919050565b81810381811115611221576112216111f8565b8082028115828204841417611221576112216111f8565b60008261141b57634e487b7160e01b600052601260045260246000fd5b500490565b634e487b7160e01b600052603260045260246000fd5b600060018201611448576114486111f8565b5060010190565b600181811c9082168061146357607f821691505b60208210810361148357634e487b7160e01b600052602260045260246000fd5b50919050565b601f8211156114d357600081815260208120601f850160051c810160208610156114b05750805b601f850160051c820191505b818110156114cf578281556001016114bc565b5050505b505050565b815167ffffffffffffffff8111156114f2576114f2611227565b61150681611500845461144f565b84611489565b602080601f83116001811461153b57600084156115235750858301515b600019600386901b1c1916600185901b1785556114cf565b600085815260208120601f198616915b8281101561156a5788860151825594840194600190910190840161154b565b50858210156115885787850151600019600388901b60f8161c191681555b5050505050600190811b01905550565b6040815260006115ab604083018561135d565b90508260208301529392505050565b634e487b7160e01b600052603160045260246000fdfea2646970667358221220855ee87f55cba880450c4402962329e13f5034856469464e4423dd9b560d94b364736f6c63430008140033",
  "linkReferences": {},
  "deployedLinkReferences": {}
}