{
  "_format": "hh-sol-artifact-1",
  "contractName": "NodeGovernance",
  "sourceName": "contracts/NodeGovernance.sol",
  "abi": [
    {
      "inputs": [
        {
          "internalType": "address",
          "name": "_nodeVault",
          "type": "address"
        }
      ],
      "stateMutability": "nonpayable",
      "type": "constructor"
    },
    {
      "anonymous": false,
      "inputs": [
        {
          "indexed": true,
          "internalType": "uint256",
          "name": "proposalId",
          "type": "uint256"
        }
      ],
      "name": "ProposalCancelled",
      "type": "event"
    },
    {
      "anonymous": false,
      "inputs": [
        {
          "indexed": true,
          "internalType": "uint256",
          "name": "proposalId",
          "type": "uint256"
        },
        {
          "indexed": true,
          "internalType": "address",
          "name": "proposer",
          "type": "address"
        },
        {
          "indexed": false,
          "internalType": "string",
          "name": "title",
          "type": "string"
        },
        {
          "indexed": false,
          "internalType": "uint256",
          "name": "startTime",
          "type": "uint256"
        },
        {
          "indexed": false,
          "internalType": "uint256",
          "name": "endTime",
          "type": "uint256"
        }
      ],
      "name": "ProposalCreated",
      "type": "event"
    },
    {
      "anonymous": false,
      "inputs": [
        {
          "indexed": true,
          "internalType": "uint256",
          "name": "proposalId",
          "type": "uint256"
        }
      ],
      "name": "ProposalExecuted",
      "type": "event"
    },
    {
      "anonymous": false,
      "inputs": [
        {
          "indexed": true,
          "internalType": "uint256",
          "name": "proposalId",
          "type": "uint256"
        },
        {
          "indexed": true,
          "internalType": "address",
          "name": "voter",
          "type": "address"
        },
        {
          "indexed": false,
          "internalType": "enum NodeGovernance.Vote",
          "name": "vote",
          "type": "uint8"
        },
        {
          "indexed": false,
          "internalType": "uint256",
          "name": "votingPower",
          "type": "uint256"
        }
      ],
      "name": "VoteCast",
      "type": "event"
    },
    {
      "anonymous": false,
      "inputs": [
        {
          "indexed": true,
          "internalType": "address",
          "name": "voter",
          "type": "address"
        },
        {
          "indexed": false,
          "internalType": "uint256",
          "name": "newPower",
          "type": "uint256"
        }
      ],
      "name": "VotingPowerUpdated",
      "type": "event"
    },
    {
      "inputs": [],
      "name": "MIN_VOTING_POWER",
      "outputs": [
        {
          "internalType": "uint256",
          "name": "",
          "type": "uint256"
        }
      ],
      "stateMutability": "view",
      "type": "function"
    },
    {
      "inputs": [],
      "name": "VOTING_PERIOD",
      "outputs": [
        {
          "internalType": "uint256",
          "name": "",
          "type": "uint256"
        }
      ],
      "stateMutability": "view",
      "type": "function"
    },
    {
      "inputs": [
        {
          "internalType": "uint256",
          "name": "proposalId",
          "type": "uint256"
        }
      ],
      "name": "cancelProposal",
      "outputs": [],
      "stateMutability": "nonpayable",
      "type": "function"
    },
    {
      "inputs": [
        {
          "internalType": "string",
          "name": "title",
          "type": "string"
        },
        {
          "internalType": "string",
          "name": "description",
          "type": "string"
        },
        {
          "internalType": "address",
          "name": "targetContract",
          "type": "address"
        },
        {
          "internalType": "bytes",
          "name": "callData",
          "type": "bytes"
        }
      ],
      "name": "createProposal",
      "outputs": [
        {
          "internalType": "uint256",
          "name": "",
          "type": "uint256"
        }
      ],
      "stateMutability": "nonpayable",
      "type": "function"
    },
    {
      "inputs": [
        {
          "internalType": "uint256",
          "name": "proposalId",
          "type": "uint256"
        }
      ],
      "name": "executeProposal",
      "outputs": [],
      "stateMutability": "nonpayable",
      "type": "function"
    },
    {
      "inputs": [
        {
          "internalType": "uint256",
          "name": "proposalId",
          "type": "uint256"
        }
      ],
      "name": "getProposal",
      "outputs": [
        {
          "internalType": "address",
          "name": "proposer",
          "type": "address"
        },
        {
          "internalType": "string",
          "name": "title",
          "type": "string"
        },
        {
          "internalType": "string",
          "name": "description",
          "type": "string"
        },
        {
          "internalType": "uint256",
          "name": "forVotes",
          "type": "uint256"
        },
        {
          "internalType": "uint256",
          "name": "againstVotes",
          "type": "uint256"
        },
        {
          "internalType": "uint256",
          "name": "abstainVotes",
          "type": "uint256"
        },
        {
          "internalType": "uint256",
          "name": "startTime",
          "type": "uint256"
        },
        {
          "internalType": "uint256",
          "name": "endTime",
          "type": "uint256"
        },
        {
          "internalType": "enum NodeGovernance.ProposalStatus",
          "name": "status",
          "type": "uint8"
        },
        {
          "internalType": "bool",
          "name": "canExecute",
          "type": "bool"
        }
      ],
      "stateMutability": "view",
      "type": "function"
    },
    {
      "inputs": [
        {
          "internalType": "uint256",
          "name": "proposalId",
          "type": "uint256"
        },
        {
          "internalType": "address",
          "name": "user",
          "type": "address"
        }
      ],
      "name": "getUserVote",
      "outputs": [
        {
          "internalType": "enum NodeGovernance.Vote",
          "name": "",
          "type": "uint8"
        }
      ],
      "stateMutability": "view",
      "type": "function"
    },
    {
      "inputs": [
        {
          "internalType": "address",
          "name": "voter",
          "type": "address"
        }
      ],
      "name": "getVotingPower",
      "outputs": [
        {
          "internalType": "uint256",
          "name": "",
          "type": "uint256"
        }
      ],
      "stateMutability": "view",
      "type": "function"
    },
    {
      "inputs": [
        {
          "internalType": "uint256",
          "name": "proposalId",
          "type": "uint256"
        },
        {
          "internalType": "address",
          "name": "user",
          "type": "address"
        }
      ],
      "name": "hasUserVoted",
      "outputs": [
        {
          "internalType": "bool",
          "name": "",
          "type": "bool"
        }
      ],
      "stateMutability": "view",
      "type": "function"
    },
    {
      "inputs": [
        {
          "internalType": "uint256",
          "name": "",
          "type": "uint256"
        },
        {
          "internalType": "address",
          "name": "",
          "type": "address"
        }
      ],
      "name": "hasVoted",
      "outputs": [
        {
          "internalType": "bool",
          "name": "",
          "type": "bool"
        }
      ],
      "stateMutability": "view",
      "type": "function"
    },
    {
      "inputs": [],
      "name": "nodeVault",
      "outputs": [
        {
          "internalType": "address",
          "name": "",
          "type": "address"
        }
      ],
      "stateMutability": "view",
      "type": "function"
    },
    {
      "inputs": [],
      "name": "owner",
      "outputs": [
        {
          "internalType": "address",
          "name": "",
          "type": "address"
        }
      ],
      "stateMutability": "view",
      "type": "function"
    },
    {
      "inputs": [],
      "name": "proposalCounter",
      "outputs": [
        {
          "internalType": "uint256",
          "name": "",
          "type": "uint256"
        }
      ],
      "stateMutability": "view",
      "type": "function"
    },
    {
      "inputs": [
        {
          "internalType": "uint256",
          "name": "",
          "type": "uint256"
        }
      ],
      "name": "proposals",
      "outputs": [
        {
          "internalType": "uint256",
          "name": "id",
          "type": "uint256"
        },
        {
          "internalType": "address",
          "name": "proposer",
          "type": "address"
        },
        {
          "internalType": "string",
          "name": "title",
          "type": "string"
        },
        {
          "internalType": "string",
          "name": "description",
          "type": "string"
        },
        {
          "internalType": "uint256",
          "name": "forVotes",
          "type": "uint256"
        },
        {
          "internalType": "uint256",
          "name": "againstVotes",
          "type": "uint256"
        },
        {
          "internalType": "uint256",
          "name": "abstainVotes",
          "type": "uint256"
        },
        {
          "internalType": "uint256",
          "name": "startTime",
          "type": "uint256"
        },
        {
          "internalType": "uint256",
          "name": "endTime",
          "type": "uint256"
        },
        {
          "internalType": "enum NodeGovernance.ProposalStatus",
          "name": "status",
          "type": "uint8"
        },
        {
          "internalType": "bytes",
          "name": "callData",
          "type": "bytes"
        },
        {
          "internalType": "address",
          "name": "targetContract",
          "type": "address"
        },
        {
          "internalType": "uint256",
          "name": "executionThreshold",
          "type": "uint256"
        }
      ],
      "stateMutability": "view",
      "type": "function"
    },
    {
      "inputs": [],
      "name": "quorumThreshold",
      "outputs": [
        {
          "internalType": "uint256",
          "name": "",
          "type": "uint256"
        }
      ],
      "stateMutability": "view",
      "type": "function"
    },
    {
      "inputs": [
        {
          "internalType": "address",
          "name": "newVault",
          "type": "address"
        }
      ],
      "name": "setNodeVault",
      "outputs": [],
      "stateMutability": "nonpayable",
      "type": "function"
    },
    {
      "inputs": [
        {
          "internalType": "uint256",
          "name": "newThreshold",
          "type": "uint256"
        }
      ],
      "name": "setQuorumThreshold",
      "outputs": [],
      "stateMutability": "nonpayable",
      "type": "function"
    },
    {
      "inputs": [],
      "name": "totalVotingPower",
      "outputs": [
        {
          "internalType": "uint256",
          "name": "",
          "type": "uint256"
        }
      ],
      "stateMutability": "view",
      "type": "function"
    },
    {
      "inputs": [
        {
          "internalType": "address",
          "name": "voter",
          "type": "address"
        },
        {
          "internalType": "uint256",
          "name": "stakedAmount",
          "type": "uint256"
        }
      ],
      "name": "updateVotingPower",
      "outputs": [],
      "stateMutability": "nonpayable",
      "type": "function"
    },
    {
      "inputs": [
        {
          "internalType": "uint256",
          "name": "proposalId",
          "type": "uint256"
        },
        {
          "internalType": "enum NodeGovernance.Vote",
          "name": "voteChoice",
          "type": "uint8"
        }
      ],
      "name": "vote",
      "outputs": [],
      "stateMutability": "nonpayable",
      "type": "function"
    },
    {
      "inputs": [
        {
          "internalType": "uint256",
          "name": "",
          "type": "uint256"
        },
        {
          "internalType": "address",
          "name": "",
          "type": "address"
        }
      ],
      "name": "votes",
      "outputs": [
        {
          "internalType": "enum NodeGovernance.Vote",
          "name": "",
          "type": "uint8"
        }
      ],
      "stateMutability": "view",
      "type": "function"
    },
    {
      "inputs": [
        {
          "internalType": "address",
          "name": "",
          "type": "address"
        }
      ],
      "name": "votingPower",
      "outputs": [
        {
          "internalType": "uint256",
          "name": "",
          "type": "uint256"
        }
      ],
      "stateMutability": "view",
      "type": "function"
    }
  ],
  "bytecode": "0x6080604052600a60025534801561001557600080fd5b50604051611c59380380611c5983398101604081905261003491610067565b60008054336001600160a01b031991821617909155600680549091166001600160a01b0392909216919091179055610097565b60006020828403121561007957600080fd5b81516001600160a01b038116811461009057600080fd5b9392505050565b611bb3806100a66000396000f3fe608060405234801561001057600080fd5b50600436106101425760003560e01c8063943e8216116100b8578063c7f758a81161007c578063c7f758a8146102ed578063cce6568114610316578063d23254b414610329578063dc296ae114610357578063e0a8f6f514610390578063eadc29c7146103a357600080fd5b8063943e821614610274578063b1610d7e14610287578063bb4d443614610291578063c07473f6146102ba578063c26493f7146102da57600080fd5b8063438596321161010a57806343859632146101f35780634524c7e114610231578063671b3793146102445780637b7a91dd1461024d578063805a8142146102565780638da5cb5b1461026157600080fd5b8063013cf08b1461014757806303c7881a1461017c5780630c0512e91461019c5780630d61b519146101b357806312ad7834146101c8575b600080fd5b61015a610155366004611469565b6103b6565b6040516101739d9c9b9a999897969594939291906114f2565b60405180910390f35b61018f61018a3660046115c1565b6105ce565b60405161017391906115fd565b6101a560015481565b604051908152602001610173565b6101c66101c1366004611469565b6105fb565b005b6006546101db906001600160a01b031681565b6040516001600160a01b039091168152602001610173565b6102216102013660046115c1565b600460209081526000928352604080842090915290825290205460ff1681565b6040519015158152602001610173565b6101c661023f366004611469565b61085b565b6101a560085481565b6101a560025481565b6101a56305f5e10081565b6000546101db906001600160a01b031681565b6101c661028236600461160b565b6108db565b6101a562093a8081565b6101a561029f36600461163f565b6001600160a01b031660009081526007602052604090205490565b6101a56102c836600461163f565b60076020526000908152604090205481565b6101a56102e836600461170d565b610bd2565b6103006102fb366004611469565b610edc565b6040516101739a999897969594939291906117ba565b6101c661032436600461163f565b61126c565b61018f6103373660046115c1565b600560209081526000928352604080842090915290825290205460ff1681565b6102216103653660046115c1565b60009182526004602090815260408084206001600160a01b0393909316845291905290205460ff1690565b6101c661039e366004611469565b6112b8565b6101c66103b136600461183a565b6113ac565b60036020526000908152604090208054600182015460028301805492936001600160a01b03909216926103e890611864565b80601f016020809104026020016040519081016040528092919081815260200182805461041490611864565b80156104615780601f1061043657610100808354040283529160200191610461565b820191906000526020600020905b81548152906001019060200180831161044457829003601f168201915b50505050509080600301805461047690611864565b80601f01602080910402602001604051908101604052809291908181526020018280546104a290611864565b80156104ef5780601f106104c4576101008083540402835291602001916104ef565b820191906000526020600020905b8154815290600101906020018083116104d257829003601f168201915b5050505050908060040154908060050154908060060154908060070154908060080154908060090160009054906101000a900460ff169080600a01805461053590611864565b80601f016020809104026020016040519081016040528092919081815260200182805461056190611864565b80156105ae5780601f10610583576101008083540402835291602001916105ae565b820191906000526020600020905b81548152906001019060200180831161059157829003601f168201915b50505050600b830154600c9093015491926001600160a01b03169190508d565b60008281526005602090815260408083206001600160a01b038516845290915290205460ff165b92915050565b6000818152600360205260408120548291036106325760405162461bcd60e51b81526004016106299061189e565b60405180910390fd5b60008281526003602052604090206001600982015460ff16600581111561065b5761065b6114c8565b146106785760405162461bcd60e51b8152600401610629906118d5565b806008015442116106c15760405162461bcd60e51b8152602060048201526013602482015272566f74696e67207374696c6c2061637469766560681b6044820152606401610629565b60008160060154826005015483600401546106dc9190611918565b6106e69190611918565b9050600082600501548360040154118015610705575082600c01548210155b905080156108445760098301805460ff19166002179055600b8301546001600160a01b0316158015906107485750600083600a01805461074490611864565b9050115b1561081457600b8301546040516000916001600160a01b03169061077090600a87019061192b565b6000604051808303816000865af19150503d80600081146107ad576040519150601f19603f3d011682016040523d82523d6000602084013e6107b2565b606091505b50509050806108035760405162461bcd60e51b815260206004820152601960248201527f50726f706f73616c20657865637574696f6e206661696c6564000000000000006044820152606401610629565b5060098301805460ff191660041790555b60405185907f712ae1383f79ac853f8d882153778e0260ef8f03b504e2866e0593e04d2b291f90600090a2610854565b60098301805460ff191660031790555b5050505050565b6000546001600160a01b031633146108855760405162461bcd60e51b8152600401610629906119a1565b600081118015610896575060328111155b6108d65760405162461bcd60e51b8152602060048201526011602482015270125b9d985b1a59081d1a1c995cda1bdb19607a1b6044820152606401610629565b600255565b6000828152600360205260408120548391036109095760405162461bcd60e51b81526004016106299061189e565b60008381526003602052604090206001600982015460ff166005811115610932576109326114c8565b1461094f5760405162461bcd60e51b8152600401610629906118d5565b80600801544211156109995760405162461bcd60e51b8152602060048201526013602482015272159bdd1a5b99c81c195c9a5bd908195b991959606a1b6044820152606401610629565b600084815260046020908152604080832033845290915290205460ff16156109f35760405162461bcd60e51b815260206004820152600d60248201526c105b1c9958591e481d9bdd1959609a1b6044820152606401610629565b6000836003811115610a0757610a076114c8565b03610a435760405162461bcd60e51b815260206004820152600c60248201526b496e76616c696420766f746560a01b6044820152606401610629565b3360009081526007602052604090205480610a925760405162461bcd60e51b815260206004820152600f60248201526e2737903b37ba34b733903837bbb2b960891b6044820152606401610629565b6000858152600460209081526040808320338085529083528184208054600160ff1991821681179092558a865260058552838620928652919093529220805487939192911690836003811115610aea57610aea6114c8565b02179055506001846003811115610b0357610b036114c8565b03610b275780826004016000828254610b1c9190611918565b90915550610b879050565b6002846003811115610b3b57610b3b6114c8565b03610b545780826005016000828254610b1c9190611918565b6003846003811115610b6857610b686114c8565b03610b875780826006016000828254610b819190611918565b90915550505b336001600160a01b0316857fb83d25c6a5d258561330739951487acb4bd09ba5190b5d32c4f261817d9067928684604051610bc39291906119c9565b60405180910390a35050505050565b336000908152600760205260408120546305f5e1001115610c355760405162461bcd60e51b815260206004820152601960248201527f496e73756666696369656e7420766f74696e6720706f776572000000000000006044820152606401610629565b6000855111610c775760405162461bcd60e51b815260206004820152600e60248201526d151a5d1b19481c995c5d5a5c995960921b6044820152606401610629565b6000845111610cbf5760405162461bcd60e51b815260206004820152601460248201527311195cd8dc9a5c1d1a5bdb881c995c5d5a5c995960621b6044820152606401610629565b60018054906000610ccf836119e4565b919050555060006001549050604051806101a00160405280828152602001336001600160a01b0316815260200187815260200186815260200160008152602001600081526020016000815260200142815260200162093a8042610d329190611918565b815260200160018152602001848152602001856001600160a01b031681526020016064600254600854610d6591906119fd565b610d6f9190611a14565b905260008281526003602090815260409182902083518155908301516001820180546001600160a01b0319166001600160a01b03909216919091179055908201516002820190610dbf9082611a85565b5060608201516003820190610dd49082611a85565b506080820151816004015560a0820151816005015560c0820151816006015560e0820151816007015561010082015181600801556101208201518160090160006101000a81548160ff02191690836005811115610e3357610e336114c8565b0217905550610140820151600a820190610e4d9082611a85565b50610160820151600b820180546001600160a01b0319166001600160a01b0390921691909117905561018090910151600c9091015560008181526003602052604090819020600801549051339183917f6c98a8c940418b35614f0cd02412d5c9606faff474cbb6cdd6640ba5d1a9f06b91610ecb918b914291611b45565b60405180910390a395945050505050565b600060608060008060008060008060008a6003600082815260200190815260200160002060000154600003610f235760405162461bcd60e51b81526004016106299061189e565b60008c815260036020908152604080832081516101a0810183528154815260018201546001600160a01b0316938101939093526002810180549192840191610f6a90611864565b80601f0160208091040260200160405190810160405280929190818152602001828054610f9690611864565b8015610fe35780601f10610fb857610100808354040283529160200191610fe3565b820191906000526020600020905b815481529060010190602001808311610fc657829003601f168201915b50505050508152602001600382018054610ffc90611864565b80601f016020809104026020016040519081016040528092919081815260200182805461102890611864565b80156110755780601f1061104a57610100808354040283529160200191611075565b820191906000526020600020905b81548152906001019060200180831161105857829003601f168201915b50505091835250506004820154602082015260058083015460408301526006830154606083015260078301546080830152600883015460a0830152600983015460c09092019160ff16908111156110ce576110ce6114c8565b60058111156110df576110df6114c8565b8152602001600a820180546110f390611864565b80601f016020809104026020016040519081016040528092919081815260200182805461111f90611864565b801561116c5780601f106111415761010080835404028352916020019161116c565b820191906000526020600020905b81548152906001019060200180831161114f57829003601f168201915b50505050508152602001600b820160009054906101000a90046001600160a01b03166001600160a01b03166001600160a01b03168152602001600c82015481525050905080602001519b5080604001519a5080606001519950806080015198508060a0015197508060c0015196508060e00151955080610100015194508061012001519350600087898b6112009190611918565b61120a9190611918565b90508161010001514211801561122757508160a001518260800151115b801561123857508161018001518110155b801561125a575060018261012001516005811115611258576112586114c8565b145b93505050509193959799509193959799565b6000546001600160a01b031633146112965760405162461bcd60e51b8152600401610629906119a1565b600680546001600160a01b0319166001600160a01b0392909216919091179055565b6000818152600360205260408120548291036112e65760405162461bcd60e51b81526004016106299061189e565b600082815260036020526040902060018101546001600160a01b031633148061131957506000546001600160a01b031633145b6113355760405162461bcd60e51b8152600401610629906119a1565b6001600982015460ff166005811115611350576113506114c8565b1461136d5760405162461bcd60e51b8152600401610629906118d5565b60098101805460ff1916600517905560405183907f416e669c63d9a3a5e36ee7cc7e2104b8db28ccd286aa18966e98fa230c73b08c90600090a2505050565b6006546001600160a01b03163314806113cf57506000546001600160a01b031633145b6113eb5760405162461bcd60e51b8152600401610629906119a1565b6001600160a01b03821660009081526007602052604090208054908290556008548290611419908390611b6a565b6114239190611918565b6008556040518281526001600160a01b038416907f36ac285914fb5fd49dd16e36cab1e696eda836080e3a61ff587c8671cbbdcab99060200160405180910390a2505050565b60006020828403121561147b57600080fd5b5035919050565b6000815180845260005b818110156114a85760208185018101518683018201520161148c565b506000602082860101526020601f19601f83011685010191505092915050565b634e487b7160e01b600052602160045260246000fd5b600681106114ee576114ee6114c8565b9052565b8d81526001600160a01b038d1660208201526101a06040820181905260009061151d8382018f611482565b90508281036060840152611531818e611482565b90508b60808401528a60a08401528960c08401528860e0840152876101008401526115606101208401886114de565b8281036101408401526115738187611482565b91505061158c6101608301856001600160a01b03169052565b826101808301529e9d5050505050505050505050505050565b80356001600160a01b03811681146115bc57600080fd5b919050565b600080604083850312156115d457600080fd5b823591506115e4602084016115a5565b90509250929050565b600481106114ee576114ee6114c8565b602081016105f582846115ed565b6000806040838503121561161e57600080fd5b8235915060208301356004811061163457600080fd5b809150509250929050565b60006020828403121561165157600080fd5b61165a826115a5565b9392505050565b634e487b7160e01b600052604160045260246000fd5b600067ffffffffffffffff8084111561169257611692611661565b604051601f8501601f19908116603f011681019082821181831017156116ba576116ba611661565b816040528093508581528686860111156116d357600080fd5b858560208301376000602087830101525050509392505050565b600082601f8301126116fe57600080fd5b61165a83833560208501611677565b6000806000806080858703121561172357600080fd5b843567ffffffffffffffff8082111561173b57600080fd5b611747888389016116ed565b9550602087013591508082111561175d57600080fd5b611769888389016116ed565b9450611777604088016115a5565b9350606087013591508082111561178d57600080fd5b508501601f8101871361179f57600080fd5b6117ae87823560208401611677565b91505092959194509250565b6001600160a01b038b168152610140602082018190526000906117df8382018d611482565b905082810360408401526117f3818c611482565b9150508860608301528760808301528660a08301528560c08301528460e08301526118226101008301856114de565b8215156101208301529b9a5050505050505050505050565b6000806040838503121561184d57600080fd5b611856836115a5565b946020939093013593505050565b600181811c9082168061187857607f821691505b60208210810361189857634e487b7160e01b600052602260045260246000fd5b50919050565b60208082526017908201527f50726f706f73616c20646f6573206e6f74206578697374000000000000000000604082015260600190565b60208082526013908201527250726f706f73616c206e6f742061637469766560681b604082015260600190565b634e487b7160e01b600052601160045260246000fd5b808201808211156105f5576105f5611902565b600080835461193981611864565b60018281168015611951576001811461196657611995565b60ff1984168752821515830287019450611995565b8760005260208060002060005b8581101561198c5781548a820152908401908201611973565b50505082870194505b50929695505050505050565b6020808252600e908201526d139bdd08185d5d1a1bdc9a5e995960921b604082015260600190565b604081016119d782856115ed565b8260208301529392505050565b6000600182016119f6576119f6611902565b5060010190565b80820281158282048414176105f5576105f5611902565b600082611a3157634e487b7160e01b600052601260045260246000fd5b500490565b601f821115611a8057600081815260208120601f850160051c81016020861015611a5d5750805b601f850160051c820191505b81811015611a7c57828155600101611a69565b5050505b505050565b815167ffffffffffffffff811115611a9f57611a9f611661565b611ab381611aad8454611864565b84611a36565b602080601f831160018114611ae85760008415611ad05750858301515b600019600386901b1c1916600185901b178555611a7c565b600085815260208120601f198616915b82811015611b1757888601518255948401946001909101908401611af8565b5085821015611b355787850151600019600388901b60f8161c191681555b5050505050600190811b01905550565b606081526000611b586060830186611482565b60208301949094525060400152919050565b818103818111156105f5576105f561190256fea264697066735822122055b4a5225a309659805c8c8038ee6c77aacd9b9b13f4e0e8889b028230b3674e64736f6c63430008140033",
  "linkReferences": {},
  "deployedLinkReferences": {}
}