{
  "_format": "hh-sol-artifact-1",
  "contractName": "LendingProtocol",
  "sourceName": "contracts/LendingProtocol.sol",
  "abi": [
    {
      "inputs": [
        {
          "internalType": "address",
          "name": "_nodeVault",
          "type": "address"
        }
      ],
      "stateMutability": "nonpayable",
      "type": "constructor"
    },
    {
      "anonymous": false,
      "inputs": [
        {
          "indexed": true,
          "internalType": "uint256",
          "name": "loanId",
          "type": "uint256"
        },
        {
          "indexed": true,
          "internalType": "address",
          "name": "borrower",
          "type": "address"
        }
      ],
      "name": "LoanDefaulted",
      "type": "event"
    },
    {
      "anonymous": false,
      "inputs": [
        {
          "indexed": true,
          "internalType": "uint256",
          "name": "loanId",
          "type": "uint256"
        },
        {
          "indexed": true,
          "internalType": "address",
          "name": "borrower",
          "type": "address"
        },
        {
          "indexed": true,
          "internalType": "address",
          "name": "lender",
          "type": "address"
        },
        {
          "indexed": false,
          "internalType": "uint256",
          "name": "principal",
          "type": "uint256"
        },
        {
          "indexed": false,
          "internalType": "uint256",
          "name": "interestRate",
          "type": "uint256"
        }
      ],
      "name": "LoanIssued",
      "type": "event"
    },
    {
      "anonymous": false,
      "inputs": [
        {
          "indexed": true,
          "internalType": "uint256",
          "name": "loanId",
          "type": "uint256"
        },
        {
          "indexed": true,
          "internalType": "address",
          "name": "borrower",
          "type": "address"
        }
      ],
      "name": "LoanRepaid",
      "type": "event"
    },
    {
      "anonymous": false,
      "inputs": [
        {
          "indexed": true,
          "internalType": "uint256",
          "name": "loanId",
          "type": "uint256"
        },
        {
          "indexed": true,
          "internalType": "address",
          "name": "borrower",
          "type": "address"
        },
        {
          "indexed": false,
          "internalType": "uint256",
          "name": "amount",
          "type": "uint256"
        },
        {
          "indexed": false,
          "internalType": "uint256",
          "name": "revenueShare",
          "type": "uint256"
        },
        {
          "indexed": false,
          "internalType": "uint256",
          "name": "communityScore",
          "type": "uint256"
        }
      ],
      "name": "LoanRequested",
      "type": "event"
    },
    {
      "anonymous": false,
      "inputs": [
        {
          "indexed": true,
          "internalType": "uint256",
          "name": "loanId",
          "type": "uint256"
        },
        {
          "indexed": true,
          "internalType": "address",
          "name": "borrower",
          "type": "address"
        },
        {
          "indexed": false,
          "internalType": "uint256",
          "name": "amount",
          "type": "uint256"
        },
        {
          "indexed": false,
          "internalType": "uint256",
          "name": "remainingBalance",
          "type": "uint256"
        }
      ],
      "name": "PaymentMade",
      "type": "event"
    },
    {
      "inputs": [],
      "name": "MAX_LOAN",
      "outputs": [
        {
          "internalType": "uint256",
          "name": "",
          "type": "uint256"
        }
      ],
      "stateMutability": "view",
      "type": "function"
    },
    {
      "inputs": [],
      "name": "MIN_LOAN",
      "outputs": [
        {
          "internalType": "uint256",
          "name": "",
          "type": "uint256"
        }
      ],
      "stateMutability": "view",
      "type": "function"
    },
    {
      "inputs": [
        {
          "internalType": "address",
          "name": "",
          "type": "address"
        }
      ],
      "name": "borrowerDefaultCount",
      "outputs": [
        {
          "internalType": "uint256",
          "name": "",
          "type": "uint256"
        }
      ],
      "stateMutability": "view",
      "type": "function"
    },
    {
      "inputs": [
        {
          "internalType": "address",
          "name": "",
          "type": "address"
        },
        {
          "internalType": "uint256",
          "name": "",
          "type": "uint256"
        }
      ],
      "name": "borrowerLoans",
      "outputs": [
        {
          "internalType": "uint256",
          "name": "",
          "type": "uint256"
        }
      ],
      "stateMutability": "view",
      "type": "function"
    },
    {
      "inputs": [],
      "name": "defaultRate",
      "outputs": [
        {
          "internalType": "uint256",
          "name": "",
          "type": "uint256"
        }
      ],
      "stateMutability": "view",
      "type": "function"
    },
    {
      "inputs": [
        {
          "internalType": "address",
          "name": "borrower",
          "type": "address"
        }
      ],
      "name": "getBorrowerLoans",
      "outputs": [
        {
          "internalType": "uint256[]",
          "name": "",
          "type": "uint256[]"
        }
      ],
      "stateMutability": "view",
      "type": "function"
    },
    {
      "inputs": [
        {
          "internalType": "uint256",
          "name": "loanId",
          "type": "uint256"
        }
      ],
      "name": "getLoan",
      "outputs": [
        {
          "internalType": "address",
          "name": "borrower",
          "type": "address"
        },
        {
          "internalType": "address",
          "name": "lender",
          "type": "address"
        },
        {
          "internalType": "uint256",
          "name": "principal",
          "type": "uint256"
        },
        {
          "internalType": "uint256",
          "name": "amountPaid",
          "type": "uint256"
        },
        {
          "internalType": "uint256",
          "name": "interestRate",
          "type": "uint256"
        },
        {
          "internalType": "uint256",
          "name": "revenueShare",
          "type": "uint256"
        },
        {
          "internalType": "enum LendingProtocol.LoanStatus",
          "name": "status",
          "type": "uint8"
        },
        {
          "internalType": "uint256",
          "name": "remainingBalance",
          "type": "uint256"
        }
      ],
      "stateMutability": "view",
      "type": "function"
    },
    {
      "inputs": [],
      "name": "getProtocolStats",
      "outputs": [
        {
          "internalType": "uint256",
          "name": "_totalLoansIssued",
          "type": "uint256"
        },
        {
          "internalType": "uint256",
          "name": "_totalLoansOutstanding",
          "type": "uint256"
        },
        {
          "internalType": "uint256",
          "name": "_defaultRate",
          "type": "uint256"
        },
        {
          "internalType": "uint256",
          "name": "_totalLenderBalance",
          "type": "uint256"
        },
        {
          "internalType": "uint256",
          "name": "_totalLenderReturns",
          "type": "uint256"
        }
      ],
      "stateMutability": "view",
      "type": "function"
    },
    {
      "inputs": [
        {
          "internalType": "uint256",
          "name": "loanId",
          "type": "uint256"
        }
      ],
      "name": "issueLoan",
      "outputs": [],
      "stateMutability": "payable",
      "type": "function"
    },
    {
      "inputs": [
        {
          "internalType": "address",
          "name": "",
          "type": "address"
        }
      ],
      "name": "lenderBalance",
      "outputs": [
        {
          "internalType": "uint256",
          "name": "",
          "type": "uint256"
        }
      ],
      "stateMutability": "view",
      "type": "function"
    },
    {
      "inputs": [
        {
          "internalType": "address",
          "name": "",
          "type": "address"
        }
      ],
      "name": "lenderReturns",
      "outputs": [
        {
          "internalType": "uint256",
          "name": "",
          "type": "uint256"
        }
      ],
      "stateMutability": "view",
      "type": "function"
    },
    {
      "inputs": [],
      "name": "loanCounter",
      "outputs": [
        {
          "internalType": "uint256",
          "name": "",
          "type": "uint256"
        }
      ],
      "stateMutability": "view",
      "type": "function"
    },
    {
      "inputs": [
        {
          "internalType": "uint256",
          "name": "",
          "type": "uint256"
        }
      ],
      "name": "loans",
      "outputs": [
        {
          "internalType": "uint256",
          "name": "id",
          "type": "uint256"
        },
        {
          "internalType": "address",
          "name": "borrower",
          "type": "address"
        },
        {
          "internalType": "address",
          "name": "lender",
          "type": "address"
        },
        {
          "internalType": "uint256",
          "name": "principal",
          "type": "uint256"
        },
        {
          "internalType": "uint256",
          "name": "amountPaid",
          "type": "uint256"
        },
        {
          "internalType": "uint256",
          "name": "interestRate",
          "type": "uint256"
        },
        {
          "internalType": "uint256",
          "name": "revenueShare",
          "type": "uint256"
        },
        {
          "internalType": "uint256",
          "name": "issuedAt",
          "type": "uint256"
        },
        {
          "internalType": "uint256",
          "name": "dueDate",
          "type": "uint256"
        },
        {
          "internalType": "enum LendingProtocol.LoanStatus",
          "name": "status",
          "type": "uint8"
        },
        {
          "internalType": "uint256",
          "name": "lastPaymentDate",
          "type": "uint256"
        },
        {
          "internalType": "uint256",
          "name": "communityScore",
          "type": "uint256"
        }
      ],
      "stateMutability": "view",
      "type": "function"
    },
    {
      "inputs": [
        {
          "internalType": "uint256",
          "name": "loanId",
          "type": "uint256"
        }
      ],
      "name": "makeDirectPayment",
      "outputs": [],
      "stateMutability": "payable",
      "type": "function"
    },
    {
      "inputs": [
        {
          "internalType": "uint256",
          "name": "loanId",
          "type": "uint256"
        },
        {
          "internalType": "uint256",
          "name": "dailyRevenue",
          "type": "uint256"
        }
      ],
      "name": "makeRevenueSharePayment",
      "outputs": [],
      "stateMutability": "payable",
      "type": "function"
    },
    {
      "inputs": [
        {
          "internalType": "uint256",
          "name": "loanId",
          "type": "uint256"
        }
      ],
      "name": "markAsDefaulted",
      "outputs": [],
      "stateMutability": "nonpayable",
      "type": "function"
    },
    {
      "inputs": [],
      "name": "nodeVault",
      "outputs": [
        {
          "internalType": "address",
          "name": "",
          "type": "address"
        }
      ],
      "stateMutability": "view",
      "type": "function"
    },
    {
      "inputs": [],
      "name": "owner",
      "outputs": [
        {
          "internalType": "address",
          "name": "",
          "type": "address"
        }
      ],
      "stateMutability": "view",
      "type": "function"
    },
    {
      "inputs": [
        {
          "internalType": "uint256",
          "name": "amount",
          "type": "uint256"
        },
        {
          "internalType": "uint256",
          "name": "revenueShare",
          "type": "uint256"
        },
        {
          "internalType": "uint256",
          "name": "communityScore",
          "type": "uint256"
        }
      ],
      "name": "requestLoan",
      "outputs": [
        {
          "internalType": "uint256",
          "name": "",
          "type": "uint256"
        }
      ],
      "stateMutability": "nonpayable",
      "type": "function"
    },
    {
      "inputs": [
        {
          "internalType": "uint256",
          "name": "newRate",
          "type": "uint256"
        }
      ],
      "name": "setDefaultRate",
      "outputs": [],
      "stateMutability": "nonpayable",
      "type": "function"
    },
    {
      "inputs": [],
      "name": "totalLoansIssued",
      "outputs": [
        {
          "internalType": "uint256",
          "name": "",
          "type": "uint256"
        }
      ],
      "stateMutability": "view",
      "type": "function"
    },
    {
      "inputs": [],
      "name": "totalLoansOutstanding",
      "outputs": [
        {
          "internalType": "uint256",
          "name": "",
          "type": "uint256"
        }
      ],
      "stateMutability": "view",
      "type": "function"
    },
    {
      "stateMutability": "payable",
      "type": "receive"
    }
  ],
  "bytecode": "0x6080604052600260045534801561001557600080fd5b50604051611ac5380380611ac583398101604081905261003491610067565b60008054336001600160a01b031991821617909155600180549091166001600160a01b0392909216919091179055610097565b60006020828403121561007957600080fd5b81516001600160a01b038116811461009057600080fd5b9392505050565b611a1f806100a66000396000f3fe6080604052600436106101395760003560e01c8063831026a3116100ab578063db20fbdd1161006f578063db20fbdd1461036b578063e1ec3c6814610398578063e3ed19021461043b578063ed80c8501461045b578063edadbbfe14610471578063eee8b7ff1461049157600080fd5b8063831026a3146102e25780638da5cb5b146102f5578063a874302214610315578063abda490c14610335578063c7959d041461035557600080fd5b806334d9289e116100fd57806334d9289e146101fb5780634d31826414610211578063504006ca1461023e57806361755432146102725780636b7dba651461028c578063771aceef146102a457600080fd5b80631287b4671461014557806312ad78341461015a5780632616501d14610197578063275972ca146101bb5780632a025344146101e857600080fd5b3661014057005b600080fd5b6101586101533660046116eb565b6104be565b005b34801561016657600080fd5b5060015461017a906001600160a01b031681565b6040516001600160a01b0390911681526020015b60405180910390f35b3480156101a357600080fd5b506101ad60045481565b60405190815260200161018e565b3480156101c757600080fd5b506101ad6101d6366004611720565b60096020526000908152604090205481565b6101586101f6366004611742565b610719565b34801561020757600080fd5b506101ad60085481565b34801561021d57600080fd5b506101ad61022c366004611720565b60076020526000908152604090205481565b34801561024a57600080fd5b5061025e6102593660046116eb565b610b6e565b60405161018e98979695949392919061179c565b34801561027e57600080fd5b506101ad655af3107a400081565b34801561029857600080fd5b506101ad633b9aca0081565b3480156102b057600080fd5b50600254600354600454604080519384526020840192909252908201524760608201526000608082015260a00161018e565b6101586102f03660046116eb565b610d79565b34801561030157600080fd5b5060005461017a906001600160a01b031681565b34801561032157600080fd5b506101586103303660046116eb565b6110c2565b34801561034157600080fd5b506101586103503660046116eb565b611279565b34801561036157600080fd5b506101ad60025481565b34801561037757600080fd5b506101ad610386366004611720565b600a6020526000908152604090205481565b3480156103a457600080fd5b506104236103b33660046116eb565b600560208190526000918252604090912080546001820154600283015460038401546004850154958501546006860154600787015460088801546009890154600a8a0154600b909a0154989a6001600160a01b039889169a98909716989597949593949293919260ff909116918c565b60405161018e9c9b9a999897969594939291906117f1565b34801561044757600080fd5b506101ad610456366004611865565b61130a565b34801561046757600080fd5b506101ad60035481565b34801561047d57600080fd5b506101ad61048c36600461188f565b61133b565b34801561049d57600080fd5b506104b16104ac366004611720565b61167f565b60405161018e91906118bb565b6000818152600560205260408120548291036104f55760405162461bcd60e51b81526004016104ec906118ff565b60405180910390fd5b600082815260056020526040812090600982015460ff16600481111561051d5761051d611764565b1461055d5760405162461bcd60e51b815260206004820152601060248201526f4c6f616e206e6f742070656e64696e6760801b60448201526064016104ec565b80600301543410156105a65760405162461bcd60e51b8152602060048201526012602482015271496e73756666696369656e742066756e647360701b60448201526064016104ec565b6009818101805460ff191660011790554260078301819055600a830155600282018054336001600160a01b03199091168117909155600383015460009182526020929092526040812080549091906105ff908490611942565b9250508190555080600301546003600082825461061c9190611942565b9091555050600181015460038201546040516000926001600160a01b031691908381818185875af1925050503d8060008114610674576040519150601f19603f3d011682016040523d82523d6000602084013e610679565b606091505b50509050806106bc5760405162461bcd60e51b815260206004820152600f60248201526e151c985b9cd9995c8819985a5b1959608a1b60448201526064016104ec565b60018201546003830154600584015460408051928352602083019190915233926001600160a01b03169187917f7d43dc1f6eb477859afe637d16a2b5639855003644f1eccd55cc7ed368b4c26e910160405180910390a450505050565b6000828152600560205260408120548391036107475760405162461bcd60e51b81526004016104ec906118ff565b60008381526005602052604090206001600982015460ff16600481111561077057610770611764565b1461078d5760405162461bcd60e51b81526004016104ec9061195b565b60018101546001600160a01b031633146107e15760405162461bcd60e51b81526020600482015260156024820152744f6e6c7920626f72726f7765722063616e2070617960581b60448201526064016104ec565b600060648260060154856107f59190611984565b6107ff919061199b565b9050803410156108485760405162461bcd60e51b8152602060048201526014602482015273125b9cdd59999a58da595b9d081c185e5b595b9d60621b60448201526064016104ec565b600082600701544261085a91906119bd565b9050600063bbf81e0082856005015486600301546108789190611984565b6108829190611984565b61088c919061199b565b905060008185600301546108a09190611942565b90506000856004015482116108b65760006108c5565b60048601546108c590836119bd565b9050808511156108d3578094505b848660040160008282546108e79190611942565b909155505042600a87015560006064610901876001611984565b61090b919061199b565b9050600061091982886119bd565b60028901549091506001600160a01b031615610a005760028801546001600160a01b03166000908152600a60205260408120805483929061095b908490611942565b909155505060028801546040516000916001600160a01b03169083908381818185875af1925050503d80600081146109af576040519150601f19603f3d011682016040523d82523d6000602084013e6109b4565b606091505b50509050806109fe5760405162461bcd60e51b815260206004820152601660248201527513195b99195c881d1c985b9cd9995c8819985a5b195960521b60448201526064016104ec565b505b86341115610a9957600033610a1589346119bd565b604051600081818185875af1925050503d8060008114610a51576040519150601f19603f3d011682016040523d82523d6000602084013e610a56565b606091505b5050905080610a975760405162461bcd60e51b815260206004820152600d60248201526c1499599d5b990819985a5b1959609a1b60448201526064016104ec565b505b83886004015410610b0e5760098801805460ff191660021790556003808901548154909190600090610acc9084906119bd565b909155505060018801546040516001600160a01b03909116908c907fe69d7686a8bc68278b8c5419579f91716b3ef2ac2fac0d8cf80b8011f8f458a490600090a35b60018801546001600160a01b03168b7fc65404633dd8ca3eaa91445ad9c825c60c158e04c83dcf2fc9067e8d13035f2489610b4981886119bd565b6040805192835260208301919091520160405180910390a35050505050505050505050565b600080600080600080600080886005600082815260200190815260200160002060000154600003610bb15760405162461bcd60e51b81526004016104ec906118ff565b60008a81526005602081815260408084208151610180810183528154815260018201546001600160a01b03908116948201949094526002820154909316918301919091526003810154606083015260048082015460808401529281015460a0830152600681015460c0830152600781015460e0830152600881015461010083015260098101549192909161012084019160ff90911690811115610c5657610c56611764565b6004811115610c6757610c67611764565b8152602001600a8201548152602001600b820154815250509050806020015199508060400151985080606001519750806080015196508060a0015195508060c001519450806101200151935060016004811115610cc657610cc6611764565b8161012001516004811115610cdd57610cdd611764565b03610d675760008160e0015142610cf491906119bd565b9050600063bbf81e00828460a001518560600151610d129190611984565b610d1c9190611984565b610d26919061199b565b90506000818460600151610d3a9190611942565b905083608001518111610d4e576000610d5d565b6080840151610d5d90826119bd565b9550505050610d6c565b600092505b5050919395975091939597565b600081815260056020526040812054829103610da75760405162461bcd60e51b81526004016104ec906118ff565b60008281526005602052604090206001600982015460ff166004811115610dd057610dd0611764565b14610ded5760405162461bcd60e51b81526004016104ec9061195b565b60003411610e2f5760405162461bcd60e51b815260206004820152600f60248201526e139bc81c185e5b595b9d081cd95b9d608a1b60448201526064016104ec565b6000816007015442610e4191906119bd565b9050600063bbf81e008284600501548560030154610e5f9190611984565b610e699190611984565b610e73919061199b565b90506000818460030154610e879190611942565b9050600084600401548211610e9d576000610eac565b6004850154610eac90836119bd565b90506000813411610ebd5734610ebf565b815b905080866004016000828254610ed59190611942565b909155505042600a87015560006064610eef836001611984565b610ef9919061199b565b90506000610f0782846119bd565b60028901549091506001600160a01b031615610fee5760028801546001600160a01b03166000908152600a602052604081208054839290610f49908490611942565b909155505060028801546040516000916001600160a01b03169083908381818185875af1925050503d8060008114610f9d576040519150601f19603f3d011682016040523d82523d6000602084013e610fa2565b606091505b5050905080610fec5760405162461bcd60e51b815260206004820152601660248201527513195b99195c881d1c985b9cd9995c8819985a5b195960521b60448201526064016104ec565b505b848860040154106110635760098801805460ff1916600217905560038089015481549091906000906110219084906119bd565b909155505060018801546040516001600160a01b03909116908b907fe69d7686a8bc68278b8c5419579f91716b3ef2ac2fac0d8cf80b8011f8f458a490600090a35b60018801546001600160a01b03168a7fc65404633dd8ca3eaa91445ad9c825c60c158e04c83dcf2fc9067e8d13035f248561109e81896119bd565b6040805192835260208301919091520160405180910390a350505050505050505050565b6000546001600160a01b0316331461110d5760405162461bcd60e51b815260206004820152600e60248201526d139bdd08185d5d1a1bdc9a5e995960921b60448201526064016104ec565b60008181526005602052604081205482910361113b5760405162461bcd60e51b81526004016104ec906118ff565b60008281526005602052604090206001600982015460ff16600481111561116457611164611764565b146111815760405162461bcd60e51b81526004016104ec9061195b565b600a810154611193906276a700611942565b42116111e15760405162461bcd60e51b815260206004820152601860248201527f4c6f616e206e6f74207965742064656661756c7461626c65000000000000000060448201526064016104ec565b60098101805460ff1916600317905560018101546001600160a01b03166000908152600760205260408120805491611218836119d0565b919050555080600301546003600082825461123391906119bd565b909155505060018101546040516001600160a01b039091169084907f13b88e6866f0156d706fecfa22b678de5fc2b749c1d2307f6f47eb541385f1ec90600090a3505050565b6000546001600160a01b031633146112c45760405162461bcd60e51b815260206004820152600e60248201526d139bdd08185d5d1a1bdc9a5e995960921b60448201526064016104ec565b600a8111156113055760405162461bcd60e51b815260206004820152600d60248201526c0a4c2e8ca40e8dede40d0d2ced609b1b60448201526064016104ec565b600455565b6006602052816000526040600020818154811061132657600080fd5b90600052602060002001600091509150505481565b6000633b9aca0084101580156113575750655af3107a40008411155b6113995760405162461bcd60e51b8152602060048201526013602482015272125b9d985b1a59081b1bd85b88185b5bdd5b9d606a1b60448201526064016104ec565b6000831180156113aa575060148311155b6113f65760405162461bcd60e51b815260206004820152601b60248201527f526576656e7565207368617265206d75737420626520312d323025000000000060448201526064016104ec565b60648211156114475760405162461bcd60e51b815260206004820152601760248201527f496e76616c696420636f6d6d756e6974792073636f726500000000000000000060448201526064016104ec565b3360009081526007602052604081205460069190611466906002611984565b90506000600a6114778660646119bd565b611481919061199b565b90506000816114908486611942565b61149a9190611942565b9050600f8111156114a95750600f5b600880549060006114b9836119d0565b909155505060085460408051610180810182528281523360208201526000918101829052606081018b90526080810182905260a0810184905260c081018a905260e0810182905261010081018290529061012082019081526000602080830182905260409283018b90528482526005808252918390208451815590840151600180830180546001600160a01b039384166001600160a01b0319918216179091559486015160028401805491909316951694909417905560608401516003820155608084015160048083019190915560a08501519282019290925560c0840151600682015560e08401516007820155610100840151600882015561012084015160098201805492949193909260ff1916919084908111156115db576115db611764565b0217905550610140820151600a82015561016090910151600b9091015533600090815260066020908152604082208054600181018255908352908220018290556002805491611629836119d0565b9091555050604080518a8152602081018a9052908101889052339082907ff6cc19e46a340ab5888d736bfc79aef72ae92d12d7b76319d72b0abc170868e69060600160405180910390a398975050505050505050565b6001600160a01b0381166000908152600660209081526040918290208054835181840281018401909452808452606093928301828280156116df57602002820191906000526020600020905b8154815260200190600101908083116116cb575b50505050509050919050565b6000602082840312156116fd57600080fd5b5035919050565b80356001600160a01b038116811461171b57600080fd5b919050565b60006020828403121561173257600080fd5b61173b82611704565b9392505050565b6000806040838503121561175557600080fd5b50508035926020909101359150565b634e487b7160e01b600052602160045260246000fd5b6005811061179857634e487b7160e01b600052602160045260246000fd5b9052565b6001600160a01b0389811682528816602082015260408101879052606081018690526080810185905260a0810184905261010081016117de60c083018561177a565b8260e08301529998505050505050505050565b8c81526001600160a01b038c811660208301528b166040820152606081018a90526080810189905260a0810188905260c0810187905260e081018690526101008101859052610180810161184961012083018661177a565b61014082019390935261016001529a9950505050505050505050565b6000806040838503121561187857600080fd5b61188183611704565b946020939093013593505050565b6000806000606084860312156118a457600080fd5b505081359360208301359350604090920135919050565b6020808252825182820181905260009190848201906040850190845b818110156118f3578351835292840192918401916001016118d7565b50909695505050505050565b602080825260139082015272131bd85b88191bd95cc81b9bdd08195e1a5cdd606a1b604082015260600190565b634e487b7160e01b600052601160045260246000fd5b808201808211156119555761195561192c565b92915050565b6020808252600f908201526e4c6f616e206e6f742061637469766560881b604082015260600190565b80820281158282048414176119555761195561192c565b6000826119b857634e487b7160e01b600052601260045260246000fd5b500490565b818103818111156119555761195561192c565b6000600182016119e2576119e261192c565b506001019056fea264697066735822122085c58603cba4fedd6c1aacc51fa3f22ed07b7ab5e1b24e3e853d4c96b92d96db64736f6c63430008140033",
  "linkReferences": {},
  "deployedLinkReferences": {}
}