{"contracts/NodeGovernance.sol":{"NodeGovernance":{"abi":[{"inputs":[{"internalType":"address","name":"_nodeVault","type":"address"}],"stateMutability":"nonpayable","type":"constructor"},{"anonymous":false,"inputs":[{"indexed":true,"internalType":"uint256","name":"proposalId","type":"uint256"}],"name":"ProposalCancelled","type":"event"},{"anonymous":false,"inputs":[{"indexed":true,"internalType":"uint256","name":"proposalId","type":"uint256"},{"indexed":true,"internalType":"address","name":"proposer","type":"address"},{"indexed":false,"internalType":"string","name":"title","type":"string"},{"indexed":false,"internalType":"uint256","name":"startTime","type":"uint256"},{"indexed":false,"internalType":"uint256","name":"endTime","type":"uint256"}],"name":"ProposalCreated","type":"event"},{"anonymous":false,"inputs":[{"indexed":true,"internalType":"uint256","name":"proposalId","type":"uint256"}],"name":"ProposalExecuted","type":"event"},{"anonymous":false,"inputs":[{"indexed":true,"internalType":"uint256","name":"proposalId","type":"uint256"},{"indexed":true,"internalType":"address","name":"voter","type":"address"},{"indexed":false,"internalType":"enum NodeGovernance.Vote","name":"vote","type":"uint8"},{"indexed":false,"internalType":"uint256","name":"votingPower","type":"uint256"}],"name":"VoteCast","type":"event"},{"anonymous":false,"inputs":[{"indexed":true,"internalType":"address","name":"voter","type":"address"},{"indexed":false,"internalType":"uint256","name":"newPower","type":"uint256"}],"name":"VotingPowerUpdated","type":"event"},{"inputs":[],"name":"MIN_VOTING_POWER","outputs":[{"internalType":"uint256","name":"","type":"uint256"}],"stateMutability":"view","type":"function"},{"inputs":[],"name":"VOTING_PERIOD","outputs":[{"internalType":"uint256","name":"","type":"uint256"}],"stateMutability":"view","type":"function"},{"inputs":[{"internalType":"uint256","name":"proposalId","type":"uint256"}],"name":"cancelProposal","outputs":[],"stateMutability":"nonpayable","type":"function"},{"inputs":[{"internalType":"string","name":"title","type":"string"},{"internalType":"string","name":"description","type":"string"},{"internalType":"address","name":"targetContract","type":"address"},{"internalType":"bytes","name":"callData","type":"bytes"}],"name":"createProposal","outputs":[{"internalType":"uint256","name":"","type":"uint256"}],"stateMutability":"nonpayable","type":"function"},{"inputs":[{"internalType":"uint256","name":"proposalId","type":"uint256"}],"name":"executeProposal","outputs":[],"stateMutability":"nonpayable","type":"function"},{"inputs":[{"internalType":"uint256","name":"proposalId","type":"uint256"}],"name":"getProposal","outputs":[{"internalType":"address","name":"proposer","type":"address"},{"internalType":"string","name":"title","type":"string"},{"internalType":"string","name":"description","type":"string"},{"internalType":"uint256","name":"forVotes","type":"uint256"},{"internalType":"uint256","name":"againstVotes","type":"uint256"},{"internalType":"uint256","name":"abstainVotes","type":"uint256"},{"internalType":"uint256","name":"startTime","type":"uint256"},{"internalType":"uint256","name":"endTime","type":"uint256"},{"internalType":"enum NodeGovernance.ProposalStatus","name":"status","type":"uint8"},{"internalType":"bool","name":"canExecute","type":"bool"}],"stateMutability":"view","type":"function"},{"inputs":[{"internalType":"uint256","name":"proposalId","type":"uint256"},{"internalType":"address","name":"user","type":"address"}],"name":"getUserVote","outputs":[{"internalType":"enum NodeGovernance.Vote","name":"","type":"uint8"}],"stateMutability":"view","type":"function"},{"inputs":[{"internalType":"address","name":"voter","type":"address"}],"name":"getVotingPower","outputs":[{"internalType":"uint256","name":"","type":"uint256"}],"stateMutability":"view","type":"function"},{"inputs":[{"internalType":"uint256","name":"proposalId","type":"uint256"},{"internalType":"address","name":"user","type":"address"}],"name":"hasUserVoted","outputs":[{"internalType":"bool","name":"","type":"bool"}],"stateMutability":"view","type":"function"},{"inputs":[{"internalType":"uint256","name":"","type":"uint256"},{"internalType":"address","name":"","type":"address"}],"name":"hasVoted","outputs":[{"internalType":"bool","name":"","type":"bool"}],"stateMutability":"view","type":"function"},{"inputs":[],"name":"nodeVault","outputs":[{"internalType":"address","name":"","type":"address"}],"stateMutability":"view","type":"function"},{"inputs":[],"name":"owner","outputs":[{"internalType":"address","name":"","type":"address"}],"stateMutability":"view","type":"function"},{"inputs":[],"name":"proposalCounter","outputs":[{"internalType":"uint256","name":"","type":"uint256"}],"stateMutability":"view","type":"function"},{"inputs":[{"internalType":"uint256","name":"","type":"uint256"}],"name":"proposals","outputs":[{"internalType":"uint256","name":"id","type":"uint256"},{"internalType":"address","name":"proposer","type":"address"},{"internalType":"string","name":"title","type":"string"},{"internalType":"string","name":"description","type":"string"},{"internalType":"uint256","name":"forVotes","type":"uint256"},{"internalType":"uint256","name":"againstVotes","type":"uint256"},{"internalType":"uint256","name":"abstainVotes","type":"uint256"},{"internalType":"uint256","name":"startTime","type":"uint256"},{"internalType":"uint256","name":"endTime","type":"uint256"},{"internalType":"enum NodeGovernance.ProposalStatus","name":"status","type":"uint8"},{"internalType":"bytes","name":"callData","type":"bytes"},{"internalType":"address","name":"targetContract","type":"address"},{"internalType":"uint256","name":"executionThreshold","type":"uint256"}],"stateMutability":"view","type":"function"},{"inputs":[],"name":"quorumThreshold","outputs":[{"internalType":"uint256","name":"","type":"uint256"}],"stateMutability":"view","type":"function"},{"inputs":[{"internalType":"address","name":"newVault","type":"address"}],"name":"setNodeVault","outputs":[],"stateMutability":"nonpayable","type":"function"},{"inputs":[{"internalType":"uint256","name":"newThreshold","type":"uint256"}],"name":"setQuorumThreshold","outputs":[],"stateMutability":"nonpayable","type":"function"},{"inputs":[],"name":"totalVotingPower","outputs":[{"internalType":"uint256","name":"","type":"uint256"}],"stateMutability":"view","type":"function"},{"inputs":[{"internalType":"address","name":"voter","type":"address"},{"internalType":"uint256","name":"stakedAmount","type":"uint256"}],"name":"updateVotingPower","outputs":[],"stateMutability":"nonpayable","type":"function"},{"inputs":[{"internalType":"uint256","name":"proposalId","type":"uint256"},{"internalType":"enum NodeGovernance.Vote","name":"voteChoice","type":"uint8"}],"name":"vote","outputs":[],"stateMutability":"nonpayable","type":"function"},{"inputs":[{"internalType":"uint256","name":"","type":"uint256"},{"internalType":"address","name":"","type":"address"}],"name":"votes","outputs":[{"internalType":"enum NodeGovernance.Vote","name":"","type":"uint8"}],"stateMutability":"view","type":"function"},{"inputs":[{"internalType":"address","name":"","type":"address"}],"name":"votingPower","outputs":[{"internalType":"uint256","name":"","type":"uint256"}],"stateMutability":"view","type":"function"}],"evm":{"bytecode":{"linkReferences":{},"object":"6080604052600a60025534801561001557600080fd5b50604051611c59380380611c5983398101604081905261003491610067565b60008054336001600160a01b031991821617909155600680549091166001600160a01b0392909216919091179055610097565b60006020828403121561007957600080fd5b81516001600160a01b038116811461009057600080fd5b9392505050565b611bb3806100a66000396000f3fe608060405234801561001057600080fd5b50600436106101425760003560e01c8063943e8216116100b8578063c7f758a81161007c578063c7f758a8146102ed578063cce6568114610316578063d23254b414610329578063dc296ae114610357578063e0a8f6f514610390578063eadc29c7146103a357600080fd5b8063943e821614610274578063b1610d7e14610287578063bb4d443614610291578063c07473f6146102ba578063c26493f7146102da57600080fd5b8063438596321161010a57806343859632146101f35780634524c7e114610231578063671b3793146102445780637b7a91dd1461024d578063805a8142146102565780638da5cb5b1461026157600080fd5b8063013cf08b1461014757806303c7881a1461017c5780630c0512e91461019c5780630d61b519146101b357806312ad7834146101c8575b600080fd5b61015a610155366004611469565b6103b6565b6040516101739d9c9b9a999897969594939291906114f2565b60405180910390f35b61018f61018a3660046115c1565b6105ce565b60405161017391906115fd565b6101a560015481565b604051908152602001610173565b6101c66101c1366004611469565b6105fb565b005b6006546101db906001600160a01b031681565b6040516001600160a01b039091168152602001610173565b6102216102013660046115c1565b600460209081526000928352604080842090915290825290205460ff1681565b6040519015158152602001610173565b6101c661023f366004611469565b61085b565b6101a560085481565b6101a560025481565b6101a56305f5e10081565b6000546101db906001600160a01b031681565b6101c661028236600461160b565b6108db565b6101a562093a8081565b6101a561029f36600461163f565b6001600160a01b031660009081526007602052604090205490565b6101a56102c836600461163f565b60076020526000908152604090205481565b6101a56102e836600461170d565b610bd2565b6103006102fb366004611469565b610edc565b6040516101739a999897969594939291906117ba565b6101c661032436600461163f565b61126c565b61018f6103373660046115c1565b600560209081526000928352604080842090915290825290205460ff1681565b6102216103653660046115c1565b60009182526004602090815260408084206001600160a01b0393909316845291905290205460ff1690565b6101c661039e366004611469565b6112b8565b6101c66103b136600461183a565b6113ac565b60036020526000908152604090208054600182015460028301805492936001600160a01b03909216926103e890611864565b80601f016020809104026020016040519081016040528092919081815260200182805461041490611864565b80156104615780601f1061043657610100808354040283529160200191610461565b820191906000526020600020905b81548152906001019060200180831161044457829003601f168201915b50505050509080600301805461047690611864565b80601f01602080910402602001604051908101604052809291908181526020018280546104a290611864565b80156104ef5780601f106104c4576101008083540402835291602001916104ef565b820191906000526020600020905b8154815290600101906020018083116104d257829003601f168201915b5050505050908060040154908060050154908060060154908060070154908060080154908060090160009054906101000a900460ff169080600a01805461053590611864565b80601f016020809104026020016040519081016040528092919081815260200182805461056190611864565b80156105ae5780601f10610583576101008083540402835291602001916105ae565b820191906000526020600020905b81548152906001019060200180831161059157829003601f168201915b50505050600b830154600c9093015491926001600160a01b03169190508d565b60008281526005602090815260408083206001600160a01b038516845290915290205460ff165b92915050565b6000818152600360205260408120548291036106325760405162461bcd60e51b81526004016106299061189e565b60405180910390fd5b60008281526003602052604090206001600982015460ff16600581111561065b5761065b6114c8565b146106785760405162461bcd60e51b8152600401610629906118d5565b806008015442116106c15760405162461bcd60e51b8152602060048201526013602482015272566f74696e67207374696c6c2061637469766560681b6044820152606401610629565b60008160060154826005015483600401546106dc9190611918565b6106e69190611918565b9050600082600501548360040154118015610705575082600c01548210155b905080156108445760098301805460ff19166002179055600b8301546001600160a01b0316158015906107485750600083600a01805461074490611864565b9050115b1561081457600b8301546040516000916001600160a01b03169061077090600a87019061192b565b6000604051808303816000865af19150503d80600081146107ad576040519150601f19603f3d011682016040523d82523d6000602084013e6107b2565b606091505b50509050806108035760405162461bcd60e51b815260206004820152601960248201527f50726f706f73616c20657865637574696f6e206661696c6564000000000000006044820152606401610629565b5060098301805460ff191660041790555b60405185907f712ae1383f79ac853f8d882153778e0260ef8f03b504e2866e0593e04d2b291f90600090a2610854565b60098301805460ff191660031790555b5050505050565b6000546001600160a01b031633146108855760405162461bcd60e51b8152600401610629906119a1565b600081118015610896575060328111155b6108d65760405162461bcd60e51b8152602060048201526011602482015270125b9d985b1a59081d1a1c995cda1bdb19607a1b6044820152606401610629565b600255565b6000828152600360205260408120548391036109095760405162461bcd60e51b81526004016106299061189e565b60008381526003602052604090206001600982015460ff166005811115610932576109326114c8565b1461094f5760405162461bcd60e51b8152600401610629906118d5565b80600801544211156109995760405162461bcd60e51b8152602060048201526013602482015272159bdd1a5b99c81c195c9a5bd908195b991959606a1b6044820152606401610629565b600084815260046020908152604080832033845290915290205460ff16156109f35760405162461bcd60e51b815260206004820152600d60248201526c105b1c9958591e481d9bdd1959609a1b6044820152606401610629565b6000836003811115610a0757610a076114c8565b03610a435760405162461bcd60e51b815260206004820152600c60248201526b496e76616c696420766f746560a01b6044820152606401610629565b3360009081526007602052604090205480610a925760405162461bcd60e51b815260206004820152600f60248201526e2737903b37ba34b733903837bbb2b960891b6044820152606401610629565b6000858152600460209081526040808320338085529083528184208054600160ff1991821681179092558a865260058552838620928652919093529220805487939192911690836003811115610aea57610aea6114c8565b02179055506001846003811115610b0357610b036114c8565b03610b275780826004016000828254610b1c9190611918565b90915550610b879050565b6002846003811115610b3b57610b3b6114c8565b03610b545780826005016000828254610b1c9190611918565b6003846003811115610b6857610b686114c8565b03610b875780826006016000828254610b819190611918565b90915550505b336001600160a01b0316857fb83d25c6a5d258561330739951487acb4bd09ba5190b5d32c4f261817d9067928684604051610bc39291906119c9565b60405180910390a35050505050565b336000908152600760205260408120546305f5e1001115610c355760405162461bcd60e51b815260206004820152601960248201527f496e73756666696369656e7420766f74696e6720706f776572000000000000006044820152606401610629565b6000855111610c775760405162461bcd60e51b815260206004820152600e60248201526d151a5d1b19481c995c5d5a5c995960921b6044820152606401610629565b6000845111610cbf5760405162461bcd60e51b815260206004820152601460248201527311195cd8dc9a5c1d1a5bdb881c995c5d5a5c995960621b6044820152606401610629565b60018054906000610ccf836119e4565b919050555060006001549050604051806101a00160405280828152602001336001600160a01b0316815260200187815260200186815260200160008152602001600081526020016000815260200142815260200162093a8042610d329190611918565b815260200160018152602001848152602001856001600160a01b031681526020016064600254600854610d6591906119fd565b610d6f9190611a14565b905260008281526003602090815260409182902083518155908301516001820180546001600160a01b0319166001600160a01b03909216919091179055908201516002820190610dbf9082611a85565b5060608201516003820190610dd49082611a85565b506080820151816004015560a0820151816005015560c0820151816006015560e0820151816007015561010082015181600801556101208201518160090160006101000a81548160ff02191690836005811115610e3357610e336114c8565b0217905550610140820151600a820190610e4d9082611a85565b50610160820151600b820180546001600160a01b0319166001600160a01b0390921691909117905561018090910151600c9091015560008181526003602052604090819020600801549051339183917f6c98a8c940418b35614f0cd02412d5c9606faff474cbb6cdd6640ba5d1a9f06b91610ecb918b914291611b45565b60405180910390a395945050505050565b600060608060008060008060008060008a6003600082815260200190815260200160002060000154600003610f235760405162461bcd60e51b81526004016106299061189e565b60008c815260036020908152604080832081516101a0810183528154815260018201546001600160a01b0316938101939093526002810180549192840191610f6a90611864565b80601f0160208091040260200160405190810160405280929190818152602001828054610f9690611864565b8015610fe35780601f10610fb857610100808354040283529160200191610fe3565b820191906000526020600020905b815481529060010190602001808311610fc657829003601f168201915b50505050508152602001600382018054610ffc90611864565b80601f016020809104026020016040519081016040528092919081815260200182805461102890611864565b80156110755780601f1061104a57610100808354040283529160200191611075565b820191906000526020600020905b81548152906001019060200180831161105857829003601f168201915b50505091835250506004820154602082015260058083015460408301526006830154606083015260078301546080830152600883015460a0830152600983015460c09092019160ff16908111156110ce576110ce6114c8565b60058111156110df576110df6114c8565b8152602001600a820180546110f390611864565b80601f016020809104026020016040519081016040528092919081815260200182805461111f90611864565b801561116c5780601f106111415761010080835404028352916020019161116c565b820191906000526020600020905b81548152906001019060200180831161114f57829003601f168201915b50505050508152602001600b820160009054906101000a90046001600160a01b03166001600160a01b03166001600160a01b03168152602001600c82015481525050905080602001519b5080604001519a5080606001519950806080015198508060a0015197508060c0015196508060e00151955080610100015194508061012001519350600087898b6112009190611918565b61120a9190611918565b90508161010001514211801561122757508160a001518260800151115b801561123857508161018001518110155b801561125a575060018261012001516005811115611258576112586114c8565b145b93505050509193959799509193959799565b6000546001600160a01b031633146112965760405162461bcd60e51b8152600401610629906119a1565b600680546001600160a01b0319166001600160a01b0392909216919091179055565b6000818152600360205260408120548291036112e65760405162461bcd60e51b81526004016106299061189e565b600082815260036020526040902060018101546001600160a01b031633148061131957506000546001600160a01b031633145b6113355760405162461bcd60e51b8152600401610629906119a1565b6001600982015460ff166005811115611350576113506114c8565b1461136d5760405162461bcd60e51b8152600401610629906118d5565b60098101805460ff1916600517905560405183907f416e669c63d9a3a5e36ee7cc7e2104b8db28ccd286aa18966e98fa230c73b08c90600090a2505050565b6006546001600160a01b03163314806113cf57506000546001600160a01b031633145b6113eb5760405162461bcd60e51b8152600401610629906119a1565b6001600160a01b03821660009081526007602052604090208054908290556008548290611419908390611b6a565b6114239190611918565b6008556040518281526001600160a01b038416907f36ac285914fb5fd49dd16e36cab1e696eda836080e3a61ff587c8671cbbdcab99060200160405180910390a2505050565b60006020828403121561147b57600080fd5b5035919050565b6000815180845260005b818110156114a85760208185018101518683018201520161148c565b506000602082860101526020601f19601f83011685010191505092915050565b634e487b7160e01b600052602160045260246000fd5b600681106114ee576114ee6114c8565b9052565b8d81526001600160a01b038d1660208201526101a06040820181905260009061151d8382018f611482565b90508281036060840152611531818e611482565b90508b60808401528a60a08401528960c08401528860e0840152876101008401526115606101208401886114de565b8281036101408401526115738187611482565b91505061158c6101608301856001600160a01b03169052565b826101808301529e9d5050505050505050505050505050565b80356001600160a01b03811681146115bc57600080fd5b919050565b600080604083850312156115d457600080fd5b823591506115e4602084016115a5565b90509250929050565b600481106114ee576114ee6114c8565b602081016105f582846115ed565b6000806040838503121561161e57600080fd5b8235915060208301356004811061163457600080fd5b809150509250929050565b60006020828403121561165157600080fd5b61165a826115a5565b9392505050565b634e487b7160e01b600052604160045260246000fd5b600067ffffffffffffffff8084111561169257611692611661565b604051601f8501601f19908116603f011681019082821181831017156116ba576116ba611661565b816040528093508581528686860111156116d357600080fd5b858560208301376000602087830101525050509392505050565b600082601f8301126116fe57600080fd5b61165a83833560208501611677565b6000806000806080858703121561172357600080fd5b843567ffffffffffffffff8082111561173b57600080fd5b611747888389016116ed565b9550602087013591508082111561175d57600080fd5b611769888389016116ed565b9450611777604088016115a5565b9350606087013591508082111561178d57600080fd5b508501601f8101871361179f57600080fd5b6117ae87823560208401611677565b91505092959194509250565b6001600160a01b038b168152610140602082018190526000906117df8382018d611482565b905082810360408401526117f3818c611482565b9150508860608301528760808301528660a08301528560c08301528460e08301526118226101008301856114de565b8215156101208301529b9a5050505050505050505050565b6000806040838503121561184d57600080fd5b611856836115a5565b946020939093013593505050565b600181811c9082168061187857607f821691505b60208210810361189857634e487b7160e01b600052602260045260246000fd5b50919050565b60208082526017908201527f50726f706f73616c20646f6573206e6f74206578697374000000000000000000604082015260600190565b60208082526013908201527250726f706f73616c206e6f742061637469766560681b604082015260600190565b634e487b7160e01b600052601160045260246000fd5b808201808211156105f5576105f5611902565b600080835461193981611864565b60018281168015611951576001811461196657611995565b60ff1984168752821515830287019450611995565b8760005260208060002060005b8581101561198c5781548a820152908401908201611973565b50505082870194505b50929695505050505050565b6020808252600e908201526d139bdd08185d5d1a1bdc9a5e995960921b604082015260600190565b604081016119d782856115ed565b8260208301529392505050565b6000600182016119f6576119f6611902565b5060010190565b80820281158282048414176105f5576105f5611902565b600082611a3157634e487b7160e01b600052601260045260246000fd5b500490565b601f821115611a8057600081815260208120601f850160051c81016020861015611a5d5750805b601f850160051c820191505b81811015611a7c57828155600101611a69565b5050505b505050565b815167ffffffffffffffff811115611a9f57611a9f611661565b611ab381611aad8454611864565b84611a36565b602080601f831160018114611ae85760008415611ad05750858301515b600019600386901b1c1916600185901b178555611a7c565b600085815260208120601f198616915b82811015611b1757888601518255948401946001909101908401611af8565b5085821015611b355787850151600019600388901b60f8161c191681555b5050505050600190811b01905550565b606081526000611b586060830186611482565b60208301949094525060400152919050565b818103818111156105f5576105f561190256fea264697066735822122055b4a5225a309659805c8c8038ee6c77aacd9b9b13f4e0e8889b028230b3674e64736f6c63430008140033","opcodes":"PUSH1 0x80 PUSH1 0x40 MSTORE PUSH1 0xA PUSH1 0x2 SSTORE CALLVALUE DUP1 ISZERO PUSH2 0x15 JUMPI PUSH1 0x0 DUP1 REVERT JUMPDEST POP PUSH1 0x40 MLOAD PUSH2 0x1C59 CODESIZE SUB DUP1 PUSH2 0x1C59 DUP4 CODECOPY DUP2 ADD PUSH1 0x40 DUP2 SWAP1 MSTORE PUSH2 0x34 SWAP2 PUSH2 0x67 JUMP JUMPDEST PUSH1 0x0 DUP1 SLOAD CALLER PUSH1 0x1 PUSH1 0x1 PUSH1 0xA0 SHL SUB NOT SWAP2 DUP3 AND OR SWAP1 SWAP2 SSTORE PUSH1 0x6 DUP1 SLOAD SWAP1 SWAP2 AND PUSH1 0x1 PUSH1 0x1 PUSH1 0xA0 SHL SUB SWAP3 SWAP1 SWAP3 AND SWAP2 SWAP1 SWAP2 OR SWAP1 SSTORE PUSH2 0x97 JUMP JUMPDEST PUSH1 0x0 PUSH1 0x20 DUP3 DUP5 SUB SLT ISZERO PUSH2 0x79 JUMPI PUSH1 0x0 DUP1 REVERT JUMPDEST DUP2 MLOAD PUSH1 0x1 PUSH1 0x1 PUSH1 0xA0 SHL SUB DUP2 AND DUP2 EQ PUSH2 0x90 JUMPI PUSH1 0x0 DUP1 REVERT JUMPDEST SWAP4 SWAP3 POP POP POP JUMP JUMPDEST PUSH2 0x1BB3 DUP1 PUSH2 0xA6 PUSH1 0x0 CODECOPY PUSH1 0x0 RETURN INVALID PUSH1 0x80 PUSH1 0x40 MSTORE CALLVALUE DUP1 ISZERO PUSH2 0x10 JUMPI PUSH1 0x0 DUP1 REVERT JUMPDEST POP PUSH1 0x4 CALLDATASIZE LT PUSH2 0x142 JUMPI PUSH1 0x0 CALLDATALOAD PUSH1 0xE0 SHR DUP1 PUSH4 0x943E8216 GT PUSH2 0xB8 JUMPI DUP1 PUSH4 0xC7F758A8 GT PUSH2 0x7C JUMPI DUP1 PUSH4 0xC7F758A8 EQ PUSH2 0x2ED JUMPI DUP1 PUSH4 0xCCE65681 EQ PUSH2 0x316 JUMPI DUP1 PUSH4 0xD23254B4 EQ PUSH2 0x329 JUMPI DUP1 PUSH4 0xDC296AE1 EQ PUSH2 0x357 JUMPI DUP1 PUSH4 0xE0A8F6F5 EQ PUSH2 0x390 JUMPI DUP1 PUSH4 0xEADC29C7 EQ PUSH2 0x3A3 JUMPI PUSH1 0x0 DUP1 REVERT JUMPDEST DUP1 PUSH4 0x943E8216 EQ PUSH2 0x274 JUMPI DUP1 PUSH4 0xB1610D7E EQ PUSH2 0x287 JUMPI DUP1 PUSH4 0xBB4D4436 EQ PUSH2 0x291 JUMPI DUP1 PUSH4 0xC07473F6 EQ PUSH2 0x2BA JUMPI DUP1 PUSH4 0xC26493F7 EQ PUSH2 0x2DA JUMPI PUSH1 0x0 DUP1 REVERT JUMPDEST DUP1 PUSH4 0x43859632 GT PUSH2 0x10A JUMPI DUP1 PUSH4 0x43859632 EQ PUSH2 0x1F3 JUMPI DUP1 PUSH4 0x4524C7E1 EQ PUSH2 0x231 JUMPI DUP1 PUSH4 0x671B3793 EQ PUSH2 0x244 JUMPI DUP1 PUSH4 0x7B7A91DD EQ PUSH2 0x24D JUMPI DUP1 PUSH4 0x805A8142 EQ PUSH2 0x256 JUMPI DUP1 PUSH4 0x8DA5CB5B EQ PUSH2 0x261 JUMPI PUSH1 0x0 DUP1 REVERT JUMPDEST DUP1 PUSH4 0x13CF08B EQ PUSH2 0x147 JUMPI DUP1 PUSH4 0x3C7881A EQ PUSH2 0x17C JUMPI DUP1 PUSH4 0xC0512E9 EQ PUSH2 0x19C JUMPI DUP1 PUSH4 0xD61B519 EQ PUSH2 0x1B3 JUMPI DUP1 PUSH4 0x12AD7834 EQ PUSH2 0x1C8 JUMPI JUMPDEST PUSH1 0x0 DUP1 REVERT JUMPDEST PUSH2 0x15A PUSH2 0x155 CALLDATASIZE PUSH1 0x4 PUSH2 0x1469 JUMP JUMPDEST PUSH2 0x3B6 JUMP JUMPDEST PUSH1 0x40 MLOAD PUSH2 0x173 SWAP14 SWAP13 SWAP12 SWAP11 SWAP10 SWAP9 SWAP8 SWAP7 SWAP6 SWAP5 SWAP4 SWAP3 SWAP2 SWAP1 PUSH2 0x14F2 JUMP JUMPDEST PUSH1 0x40 MLOAD DUP1 SWAP2 SUB SWAP1 RETURN JUMPDEST PUSH2 0x18F PUSH2 0x18A CALLDATASIZE PUSH1 0x4 PUSH2 0x15C1 JUMP JUMPDEST PUSH2 0x5CE JUMP JUMPDEST PUSH1 0x40 MLOAD PUSH2 0x173 SWAP2 SWAP1 PUSH2 0x15FD JUMP JUMPDEST PUSH2 0x1A5 PUSH1 0x1 SLOAD DUP2 JUMP JUMPDEST PUSH1 0x40 MLOAD SWAP1 DUP2 MSTORE PUSH1 0x20 ADD PUSH2 0x173 JUMP JUMPDEST PUSH2 0x1C6 PUSH2 0x1C1 CALLDATASIZE PUSH1 0x4 PUSH2 0x1469 JUMP JUMPDEST PUSH2 0x5FB JUMP JUMPDEST STOP JUMPDEST PUSH1 0x6 SLOAD PUSH2 0x1DB SWAP1 PUSH1 0x1 PUSH1 0x1 PUSH1 0xA0 SHL SUB AND DUP2 JUMP JUMPDEST PUSH1 0x40 MLOAD PUSH1 0x1 PUSH1 0x1 PUSH1 0xA0 SHL SUB SWAP1 SWAP2 AND DUP2 MSTORE PUSH1 0x20 ADD PUSH2 0x173 JUMP JUMPDEST PUSH2 0x221 PUSH2 0x201 CALLDATASIZE PUSH1 0x4 PUSH2 0x15C1 JUMP JUMPDEST PUSH1 0x4 PUSH1 0x20 SWAP1 DUP2 MSTORE PUSH1 0x0 SWAP3 DUP4 MSTORE PUSH1 0x40 DUP1 DUP5 KECCAK256 SWAP1 SWAP2 MSTORE SWAP1 DUP3 MSTORE SWAP1 KECCAK256 SLOAD PUSH1 0xFF AND DUP2 JUMP JUMPDEST PUSH1 0x40 MLOAD SWAP1 ISZERO ISZERO DUP2 MSTORE PUSH1 0x20 ADD PUSH2 0x173 JUMP JUMPDEST PUSH2 0x1C6 PUSH2 0x23F CALLDATASIZE PUSH1 0x4 PUSH2 0x1469 JUMP JUMPDEST PUSH2 0x85B JUMP JUMPDEST PUSH2 0x1A5 PUSH1 0x8 SLOAD DUP2 JUMP JUMPDEST PUSH2 0x1A5 PUSH1 0x2 SLOAD DUP2 JUMP JUMPDEST PUSH2 0x1A5 PUSH4 0x5F5E100 DUP2 JUMP JUMPDEST PUSH1 0x0 SLOAD PUSH2 0x1DB SWAP1 PUSH1 0x1 PUSH1 0x1 PUSH1 0xA0 SHL SUB AND DUP2 JUMP JUMPDEST PUSH2 0x1C6 PUSH2 0x282 CALLDATASIZE PUSH1 0x4 PUSH2 0x160B JUMP JUMPDEST PUSH2 0x8DB JUMP JUMPDEST PUSH2 0x1A5 PUSH3 0x93A80 DUP2 JUMP JUMPDEST PUSH2 0x1A5 PUSH2 0x29F CALLDATASIZE PUSH1 0x4 PUSH2 0x163F JUMP JUMPDEST PUSH1 0x1 PUSH1 0x1 PUSH1 0xA0 SHL SUB AND PUSH1 0x0 SWAP1 DUP2 MSTORE PUSH1 0x7 PUSH1 0x20 MSTORE PUSH1 0x40 SWAP1 KECCAK256 SLOAD SWAP1 JUMP JUMPDEST PUSH2 0x1A5 PUSH2 0x2C8 CALLDATASIZE PUSH1 0x4 PUSH2 0x163F JUMP JUMPDEST PUSH1 0x7 PUSH1 0x20 MSTORE PUSH1 0x0 SWAP1 DUP2 MSTORE PUSH1 0x40 SWAP1 KECCAK256 SLOAD DUP2 JUMP JUMPDEST PUSH2 0x1A5 PUSH2 0x2E8 CALLDATASIZE PUSH1 0x4 PUSH2 0x170D JUMP JUMPDEST PUSH2 0xBD2 JUMP JUMPDEST PUSH2 0x300 PUSH2 0x2FB CALLDATASIZE PUSH1 0x4 PUSH2 0x1469 JUMP JUMPDEST PUSH2 0xEDC JUMP JUMPDEST PUSH1 0x40 MLOAD PUSH2 0x173 SWAP11 SWAP10 SWAP9 SWAP8 SWAP7 SWAP6 SWAP5 SWAP4 SWAP3 SWAP2 SWAP1 PUSH2 0x17BA JUMP JUMPDEST PUSH2 0x1C6 PUSH2 0x324 CALLDATASIZE PUSH1 0x4 PUSH2 0x163F JUMP JUMPDEST PUSH2 0x126C JUMP JUMPDEST PUSH2 0x18F PUSH2 0x337 CALLDATASIZE PUSH1 0x4 PUSH2 0x15C1 JUMP JUMPDEST PUSH1 0x5 PUSH1 0x20 SWAP1 DUP2 MSTORE PUSH1 0x0 SWAP3 DUP4 MSTORE PUSH1 0x40 DUP1 DUP5 KECCAK256 SWAP1 SWAP2 MSTORE SWAP1 DUP3 MSTORE SWAP1 KECCAK256 SLOAD PUSH1 0xFF AND DUP2 JUMP JUMPDEST PUSH2 0x221 PUSH2 0x365 CALLDATASIZE PUSH1 0x4 PUSH2 0x15C1 JUMP JUMPDEST PUSH1 0x0 SWAP2 DUP3 MSTORE PUSH1 0x4 PUSH1 0x20 SWAP1 DUP2 MSTORE PUSH1 0x40 DUP1 DUP5 KECCAK256 PUSH1 0x1 PUSH1 0x1 PUSH1 0xA0 SHL SUB SWAP4 SWAP1 SWAP4 AND DUP5 MSTORE SWAP2 SWAP1 MSTORE SWAP1 KECCAK256 SLOAD PUSH1 0xFF AND SWAP1 JUMP JUMPDEST PUSH2 0x1C6 PUSH2 0x39E CALLDATASIZE PUSH1 0x4 PUSH2 0x1469 JUMP JUMPDEST PUSH2 0x12B8 JUMP JUMPDEST PUSH2 0x1C6 PUSH2 0x3B1 CALLDATASIZE PUSH1 0x4 PUSH2 0x183A JUMP JUMPDEST PUSH2 0x13AC JUMP JUMPDEST PUSH1 0x3 PUSH1 0x20 MSTORE PUSH1 0x0 SWAP1 DUP2 MSTORE PUSH1 0x40 SWAP1 KECCAK256 DUP1 SLOAD PUSH1 0x1 DUP3 ADD SLOAD PUSH1 0x2 DUP4 ADD DUP1 SLOAD SWAP3 SWAP4 PUSH1 0x1 PUSH1 0x1 PUSH1 0xA0 SHL SUB SWAP1 SWAP3 AND SWAP3 PUSH2 0x3E8 SWAP1 PUSH2 0x1864 JUMP JUMPDEST DUP1 PUSH1 0x1F ADD PUSH1 0x20 DUP1 SWAP2 DIV MUL PUSH1 0x20 ADD PUSH1 0x40 MLOAD SWAP1 DUP2 ADD PUSH1 0x40 MSTORE DUP1 SWAP3 SWAP2 SWAP1 DUP2 DUP2 MSTORE PUSH1 0x20 ADD DUP3 DUP1 SLOAD PUSH2 0x414 SWAP1 PUSH2 0x1864 JUMP JUMPDEST DUP1 ISZERO PUSH2 0x461 JUMPI DUP1 PUSH1 0x1F LT PUSH2 0x436 JUMPI PUSH2 0x100 DUP1 DUP4 SLOAD DIV MUL DUP4 MSTORE SWAP2 PUSH1 0x20 ADD SWAP2 PUSH2 0x461 JUMP JUMPDEST DUP3 ADD SWAP2 SWAP1 PUSH1 0x0 MSTORE PUSH1 0x20 PUSH1 0x0 KECCAK256 SWAP1 JUMPDEST DUP2 SLOAD DUP2 MSTORE SWAP1 PUSH1 0x1 ADD SWAP1 PUSH1 0x20 ADD DUP1 DUP4 GT PUSH2 0x444 JUMPI DUP3 SWAP1 SUB PUSH1 0x1F AND DUP3 ADD SWAP2 JUMPDEST POP POP POP POP POP SWAP1 DUP1 PUSH1 0x3 ADD DUP1 SLOAD PUSH2 0x476 SWAP1 PUSH2 0x1864 JUMP JUMPDEST DUP1 PUSH1 0x1F ADD PUSH1 0x20 DUP1 SWAP2 DIV MUL PUSH1 0x20 ADD PUSH1 0x40 MLOAD SWAP1 DUP2 ADD PUSH1 0x40 MSTORE DUP1 SWAP3 SWAP2 SWAP1 DUP2 DUP2 MSTORE PUSH1 0x20 ADD DUP3 DUP1 SLOAD PUSH2 0x4A2 SWAP1 PUSH2 0x1864 JUMP JUMPDEST DUP1 ISZERO PUSH2 0x4EF JUMPI DUP1 PUSH1 0x1F LT PUSH2 0x4C4 JUMPI PUSH2 0x100 DUP1 DUP4 SLOAD DIV MUL DUP4 MSTORE SWAP2 PUSH1 0x20 ADD SWAP2 PUSH2 0x4EF JUMP JUMPDEST DUP3 ADD SWAP2 SWAP1 PUSH1 0x0 MSTORE PUSH1 0x20 PUSH1 0x0 KECCAK256 SWAP1 JUMPDEST DUP2 SLOAD DUP2 MSTORE SWAP1 PUSH1 0x1 ADD SWAP1 PUSH1 0x20 ADD DUP1 DUP4 GT PUSH2 0x4D2 JUMPI DUP3 SWAP1 SUB PUSH1 0x1F AND DUP3 ADD SWAP2 JUMPDEST POP POP POP POP POP SWAP1 DUP1 PUSH1 0x4 ADD SLOAD SWAP1 DUP1 PUSH1 0x5 ADD SLOAD SWAP1 DUP1 PUSH1 0x6 ADD SLOAD SWAP1 DUP1 PUSH1 0x7 ADD SLOAD SWAP1 DUP1 PUSH1 0x8 ADD SLOAD SWAP1 DUP1 PUSH1 0x9 ADD PUSH1 0x0 SWAP1 SLOAD SWAP1 PUSH2 0x100 EXP SWAP1 DIV PUSH1 0xFF AND SWAP1 DUP1 PUSH1 0xA ADD DUP1 SLOAD PUSH2 0x535 SWAP1 PUSH2 0x1864 JUMP JUMPDEST DUP1 PUSH1 0x1F ADD PUSH1 0x20 DUP1 SWAP2 DIV MUL PUSH1 0x20 ADD PUSH1 0x40 MLOAD SWAP1 DUP2 ADD PUSH1 0x40 MSTORE DUP1 SWAP3 SWAP2 SWAP1 DUP2 DUP2 MSTORE PUSH1 0x20 ADD DUP3 DUP1 SLOAD PUSH2 0x561 SWAP1 PUSH2 0x1864 JUMP JUMPDEST DUP1 ISZERO PUSH2 0x5AE JUMPI DUP1 PUSH1 0x1F LT PUSH2 0x583 JUMPI PUSH2 0x100 DUP1 DUP4 SLOAD DIV MUL DUP4 MSTORE SWAP2 PUSH1 0x20 ADD SWAP2 PUSH2 0x5AE JUMP JUMPDEST DUP3 ADD SWAP2 SWAP1 PUSH1 0x0 MSTORE PUSH1 0x20 PUSH1 0x0 KECCAK256 SWAP1 JUMPDEST DUP2 SLOAD DUP2 MSTORE SWAP1 PUSH1 0x1 ADD SWAP1 PUSH1 0x20 ADD DUP1 DUP4 GT PUSH2 0x591 JUMPI DUP3 SWAP1 SUB PUSH1 0x1F AND DUP3 ADD SWAP2 JUMPDEST POP POP POP POP PUSH1 0xB DUP4 ADD SLOAD PUSH1 0xC SWAP1 SWAP4 ADD SLOAD SWAP2 SWAP3 PUSH1 0x1 PUSH1 0x1 PUSH1 0xA0 SHL SUB AND SWAP2 SWAP1 POP DUP14 JUMP JUMPDEST PUSH1 0x0 DUP3 DUP2 MSTORE PUSH1 0x5 PUSH1 0x20 SWAP1 DUP2 MSTORE PUSH1 0x40 DUP1 DUP4 KECCAK256 PUSH1 0x1 PUSH1 0x1 PUSH1 0xA0 SHL SUB DUP6 AND DUP5 MSTORE SWAP1 SWAP2 MSTORE SWAP1 KECCAK256 SLOAD PUSH1 0xFF AND JUMPDEST SWAP3 SWAP2 POP POP JUMP JUMPDEST PUSH1 0x0 DUP2 DUP2 MSTORE PUSH1 0x3 PUSH1 0x20 MSTORE PUSH1 0x40 DUP2 KECCAK256 SLOAD DUP3 SWAP2 SUB PUSH2 0x632 JUMPI PUSH1 0x40 MLOAD PUSH3 0x461BCD PUSH1 0xE5 SHL DUP2 MSTORE PUSH1 0x4 ADD PUSH2 0x629 SWAP1 PUSH2 0x189E JUMP JUMPDEST PUSH1 0x40 MLOAD DUP1 SWAP2 SUB SWAP1 REVERT JUMPDEST PUSH1 0x0 DUP3 DUP2 MSTORE PUSH1 0x3 PUSH1 0x20 MSTORE PUSH1 0x40 SWAP1 KECCAK256 PUSH1 0x1 PUSH1 0x9 DUP3 ADD SLOAD PUSH1 0xFF AND PUSH1 0x5 DUP2 GT ISZERO PUSH2 0x65B JUMPI PUSH2 0x65B PUSH2 0x14C8 JUMP JUMPDEST EQ PUSH2 0x678 JUMPI PUSH1 0x40 MLOAD PUSH3 0x461BCD PUSH1 0xE5 SHL DUP2 MSTORE PUSH1 0x4 ADD PUSH2 0x629 SWAP1 PUSH2 0x18D5 JUMP JUMPDEST DUP1 PUSH1 0x8 ADD SLOAD TIMESTAMP GT PUSH2 0x6C1 JUMPI PUSH1 0x40 MLOAD PUSH3 0x461BCD PUSH1 0xE5 SHL DUP2 MSTORE PUSH1 0x20 PUSH1 0x4 DUP3 ADD MSTORE PUSH1 0x13 PUSH1 0x24 DUP3 ADD MSTORE PUSH19 0x566F74696E67207374696C6C20616374697665 PUSH1 0x68 SHL PUSH1 0x44 DUP3 ADD MSTORE PUSH1 0x64 ADD PUSH2 0x629 JUMP JUMPDEST PUSH1 0x0 DUP2 PUSH1 0x6 ADD SLOAD DUP3 PUSH1 0x5 ADD SLOAD DUP4 PUSH1 0x4 ADD SLOAD PUSH2 0x6DC SWAP2 SWAP1 PUSH2 0x1918 JUMP JUMPDEST PUSH2 0x6E6 SWAP2 SWAP1 PUSH2 0x1918 JUMP JUMPDEST SWAP1 POP PUSH1 0x0 DUP3 PUSH1 0x5 ADD SLOAD DUP4 PUSH1 0x4 ADD SLOAD GT DUP1 ISZERO PUSH2 0x705 JUMPI POP DUP3 PUSH1 0xC ADD SLOAD DUP3 LT ISZERO JUMPDEST SWAP1 POP DUP1 ISZERO PUSH2 0x844 JUMPI PUSH1 0x9 DUP4 ADD DUP1 SLOAD PUSH1 0xFF NOT AND PUSH1 0x2 OR SWAP1 SSTORE PUSH1 0xB DUP4 ADD SLOAD PUSH1 0x1 PUSH1 0x1 PUSH1 0xA0 SHL SUB AND ISZERO DUP1 ISZERO SWAP1 PUSH2 0x748 JUMPI POP PUSH1 0x0 DUP4 PUSH1 0xA ADD DUP1 SLOAD PUSH2 0x744 SWAP1 PUSH2 0x1864 JUMP JUMPDEST SWAP1 POP GT JUMPDEST ISZERO PUSH2 0x814 JUMPI PUSH1 0xB DUP4 ADD SLOAD PUSH1 0x40 MLOAD PUSH1 0x0 SWAP2 PUSH1 0x1 PUSH1 0x1 PUSH1 0xA0 SHL SUB AND SWAP1 PUSH2 0x770 SWAP1 PUSH1 0xA DUP8 ADD SWAP1 PUSH2 0x192B JUMP JUMPDEST PUSH1 0x0 PUSH1 0x40 MLOAD DUP1 DUP4 SUB DUP2 PUSH1 0x0 DUP7 GAS CALL SWAP2 POP POP RETURNDATASIZE DUP1 PUSH1 0x0 DUP2 EQ PUSH2 0x7AD JUMPI PUSH1 0x40 MLOAD SWAP2 POP PUSH1 0x1F NOT PUSH1 0x3F RETURNDATASIZE ADD AND DUP3 ADD PUSH1 0x40 MSTORE RETURNDATASIZE DUP3 MSTORE RETURNDATASIZE PUSH1 0x0 PUSH1 0x20 DUP5 ADD RETURNDATACOPY PUSH2 0x7B2 JUMP JUMPDEST PUSH1 0x60 SWAP2 POP JUMPDEST POP POP SWAP1 POP DUP1 PUSH2 0x803 JUMPI PUSH1 0x40 MLOAD PUSH3 0x461BCD PUSH1 0xE5 SHL DUP2 MSTORE PUSH1 0x20 PUSH1 0x4 DUP3 ADD MSTORE PUSH1 0x19 PUSH1 0x24 DUP3 ADD MSTORE PUSH32 0x50726F706F73616C20657865637574696F6E206661696C656400000000000000 PUSH1 0x44 DUP3 ADD MSTORE PUSH1 0x64 ADD PUSH2 0x629 JUMP JUMPDEST POP PUSH1 0x9 DUP4 ADD DUP1 SLOAD PUSH1 0xFF NOT AND PUSH1 0x4 OR SWAP1 SSTORE JUMPDEST PUSH1 0x40 MLOAD DUP6 SWAP1 PUSH32 0x712AE1383F79AC853F8D882153778E0260EF8F03B504E2866E0593E04D2B291F SWAP1 PUSH1 0x0 SWAP1 LOG2 PUSH2 0x854 JUMP JUMPDEST PUSH1 0x9 DUP4 ADD DUP1 SLOAD PUSH1 0xFF NOT AND PUSH1 0x3 OR SWAP1 SSTORE JUMPDEST POP POP POP POP POP JUMP JUMPDEST PUSH1 0x0 SLOAD PUSH1 0x1 PUSH1 0x1 PUSH1 0xA0 SHL SUB AND CALLER EQ PUSH2 0x885 JUMPI PUSH1 0x40 MLOAD PUSH3 0x461BCD PUSH1 0xE5 SHL DUP2 MSTORE PUSH1 0x4 ADD PUSH2 0x629 SWAP1 PUSH2 0x19A1 JUMP JUMPDEST PUSH1 0x0 DUP2 GT DUP1 ISZERO PUSH2 0x896 JUMPI POP PUSH1 0x32 DUP2 GT ISZERO JUMPDEST PUSH2 0x8D6 JUMPI PUSH1 0x40 MLOAD PUSH3 0x461BCD PUSH1 0xE5 SHL DUP2 MSTORE PUSH1 0x20 PUSH1 0x4 DUP3 ADD MSTORE PUSH1 0x11 PUSH1 0x24 DUP3 ADD MSTORE PUSH17 0x125B9D985B1A59081D1A1C995CDA1BDB19 PUSH1 0x7A SHL PUSH1 0x44 DUP3 ADD MSTORE PUSH1 0x64 ADD PUSH2 0x629 JUMP JUMPDEST PUSH1 0x2 SSTORE JUMP JUMPDEST PUSH1 0x0 DUP3 DUP2 MSTORE PUSH1 0x3 PUSH1 0x20 MSTORE PUSH1 0x40 DUP2 KECCAK256 SLOAD DUP4 SWAP2 SUB PUSH2 0x909 JUMPI PUSH1 0x40 MLOAD PUSH3 0x461BCD PUSH1 0xE5 SHL DUP2 MSTORE PUSH1 0x4 ADD PUSH2 0x629 SWAP1 PUSH2 0x189E JUMP JUMPDEST PUSH1 0x0 DUP4 DUP2 MSTORE PUSH1 0x3 PUSH1 0x20 MSTORE PUSH1 0x40 SWAP1 KECCAK256 PUSH1 0x1 PUSH1 0x9 DUP3 ADD SLOAD PUSH1 0xFF AND PUSH1 0x5 DUP2 GT ISZERO PUSH2 0x932 JUMPI PUSH2 0x932 PUSH2 0x14C8 JUMP JUMPDEST EQ PUSH2 0x94F JUMPI PUSH1 0x40 MLOAD PUSH3 0x461BCD PUSH1 0xE5 SHL DUP2 MSTORE PUSH1 0x4 ADD PUSH2 0x629 SWAP1 PUSH2 0x18D5 JUMP JUMPDEST DUP1 PUSH1 0x8 ADD SLOAD TIMESTAMP GT ISZERO PUSH2 0x999 JUMPI PUSH1 0x40 MLOAD PUSH3 0x461BCD PUSH1 0xE5 SHL DUP2 MSTORE PUSH1 0x20 PUSH1 0x4 DUP3 ADD MSTORE PUSH1 0x13 PUSH1 0x24 DUP3 ADD MSTORE PUSH19 0x159BDD1A5B99C81C195C9A5BD908195B991959 PUSH1 0x6A SHL PUSH1 0x44 DUP3 ADD MSTORE PUSH1 0x64 ADD PUSH2 0x629 JUMP JUMPDEST PUSH1 0x0 DUP5 DUP2 MSTORE PUSH1 0x4 PUSH1 0x20 SWAP1 DUP2 MSTORE PUSH1 0x40 DUP1 DUP4 KECCAK256 CALLER DUP5 MSTORE SWAP1 SWAP2 MSTORE SWAP1 KECCAK256 SLOAD PUSH1 0xFF AND ISZERO PUSH2 0x9F3 JUMPI PUSH1 0x40 MLOAD PUSH3 0x461BCD PUSH1 0xE5 SHL DUP2 MSTORE PUSH1 0x20 PUSH1 0x4 DUP3 ADD MSTORE PUSH1 0xD PUSH1 0x24 DUP3 ADD MSTORE PUSH13 0x105B1C9958591E481D9BDD1959 PUSH1 0x9A SHL PUSH1 0x44 DUP3 ADD MSTORE PUSH1 0x64 ADD PUSH2 0x629 JUMP JUMPDEST PUSH1 0x0 DUP4 PUSH1 0x3 DUP2 GT ISZERO PUSH2 0xA07 JUMPI PUSH2 0xA07 PUSH2 0x14C8 JUMP JUMPDEST SUB PUSH2 0xA43 JUMPI PUSH1 0x40 MLOAD PUSH3 0x461BCD PUSH1 0xE5 SHL DUP2 MSTORE PUSH1 0x20 PUSH1 0x4 DUP3 ADD MSTORE PUSH1 0xC PUSH1 0x24 DUP3 ADD MSTORE PUSH12 0x496E76616C696420766F7465 PUSH1 0xA0 SHL PUSH1 0x44 DUP3 ADD MSTORE PUSH1 0x64 ADD PUSH2 0x629 JUMP JUMPDEST CALLER PUSH1 0x0 SWAP1 DUP2 MSTORE PUSH1 0x7 PUSH1 0x20 MSTORE PUSH1 0x40 SWAP1 KECCAK256 SLOAD DUP1 PUSH2 0xA92 JUMPI PUSH1 0x40 MLOAD PUSH3 0x461BCD PUSH1 0xE5 SHL DUP2 MSTORE PUSH1 0x20 PUSH1 0x4 DUP3 ADD MSTORE PUSH1 0xF PUSH1 0x24 DUP3 ADD MSTORE PUSH15 0x2737903B37BA34B733903837BBB2B9 PUSH1 0x89 SHL PUSH1 0x44 DUP3 ADD MSTORE PUSH1 0x64 ADD PUSH2 0x629 JUMP JUMPDEST PUSH1 0x0 DUP6 DUP2 MSTORE PUSH1 0x4 PUSH1 0x20 SWAP1 DUP2 MSTORE PUSH1 0x40 DUP1 DUP4 KECCAK256 CALLER DUP1 DUP6 MSTORE SWAP1 DUP4 MSTORE DUP2 DUP5 KECCAK256 DUP1 SLOAD PUSH1 0x1 PUSH1 0xFF NOT SWAP2 DUP3 AND DUP2 OR SWAP1 SWAP3 SSTORE DUP11 DUP7 MSTORE PUSH1 0x5 DUP6 MSTORE DUP4 DUP7 KECCAK256 SWAP3 DUP7 MSTORE SWAP2 SWAP1 SWAP4 MSTORE SWAP3 KECCAK256 DUP1 SLOAD DUP8 SWAP4 SWAP2 SWAP3 SWAP2 AND SWAP1 DUP4 PUSH1 0x3 DUP2 GT ISZERO PUSH2 0xAEA JUMPI PUSH2 0xAEA PUSH2 0x14C8 JUMP JUMPDEST MUL OR SWAP1 SSTORE POP PUSH1 0x1 DUP5 PUSH1 0x3 DUP2 GT ISZERO PUSH2 0xB03 JUMPI PUSH2 0xB03 PUSH2 0x14C8 JUMP JUMPDEST SUB PUSH2 0xB27 JUMPI DUP1 DUP3 PUSH1 0x4 ADD PUSH1 0x0 DUP3 DUP3 SLOAD PUSH2 0xB1C SWAP2 SWAP1 PUSH2 0x1918 JUMP JUMPDEST SWAP1 SWAP2 SSTORE POP PUSH2 0xB87 SWAP1 POP JUMP JUMPDEST PUSH1 0x2 DUP5 PUSH1 0x3 DUP2 GT ISZERO PUSH2 0xB3B JUMPI PUSH2 0xB3B PUSH2 0x14C8 JUMP JUMPDEST SUB PUSH2 0xB54 JUMPI DUP1 DUP3 PUSH1 0x5 ADD PUSH1 0x0 DUP3 DUP3 SLOAD PUSH2 0xB1C SWAP2 SWAP1 PUSH2 0x1918 JUMP JUMPDEST PUSH1 0x3 DUP5 PUSH1 0x3 DUP2 GT ISZERO PUSH2 0xB68 JUMPI PUSH2 0xB68 PUSH2 0x14C8 JUMP JUMPDEST SUB PUSH2 0xB87 JUMPI DUP1 DUP3 PUSH1 0x6 ADD PUSH1 0x0 DUP3 DUP3 SLOAD PUSH2 0xB81 SWAP2 SWAP1 PUSH2 0x1918 JUMP JUMPDEST SWAP1 SWAP2 SSTORE POP POP JUMPDEST CALLER PUSH1 0x1 PUSH1 0x1 PUSH1 0xA0 SHL SUB AND DUP6 PUSH32 0xB83D25C6A5D258561330739951487ACB4BD09BA5190B5D32C4F261817D906792 DUP7 DUP5 PUSH1 0x40 MLOAD PUSH2 0xBC3 SWAP3 SWAP2 SWAP1 PUSH2 0x19C9 JUMP JUMPDEST PUSH1 0x40 MLOAD DUP1 SWAP2 SUB SWAP1 LOG3 POP POP POP POP POP JUMP JUMPDEST CALLER PUSH1 0x0 SWAP1 DUP2 MSTORE PUSH1 0x7 PUSH1 0x20 MSTORE PUSH1 0x40 DUP2 KECCAK256 SLOAD PUSH4 0x5F5E100 GT ISZERO PUSH2 0xC35 JUMPI PUSH1 0x40 MLOAD PUSH3 0x461BCD PUSH1 0xE5 SHL DUP2 MSTORE PUSH1 0x20 PUSH1 0x4 DUP3 ADD MSTORE PUSH1 0x19 PUSH1 0x24 DUP3 ADD MSTORE PUSH32 0x496E73756666696369656E7420766F74696E6720706F77657200000000000000 PUSH1 0x44 DUP3 ADD MSTORE PUSH1 0x64 ADD PUSH2 0x629 JUMP JUMPDEST PUSH1 0x0 DUP6 MLOAD GT PUSH2 0xC77 JUMPI PUSH1 0x40 MLOAD PUSH3 0x461BCD PUSH1 0xE5 SHL DUP2 MSTORE PUSH1 0x20 PUSH1 0x4 DUP3 ADD MSTORE PUSH1 0xE PUSH1 0x24 DUP3 ADD MSTORE PUSH14 0x151A5D1B19481C995C5D5A5C9959 PUSH1 0x92 SHL PUSH1 0x44 DUP3 ADD MSTORE PUSH1 0x64 ADD PUSH2 0x629 JUMP JUMPDEST PUSH1 0x0 DUP5 MLOAD GT PUSH2 0xCBF JUMPI PUSH1 0x40 MLOAD PUSH3 0x461BCD PUSH1 0xE5 SHL DUP2 MSTORE PUSH1 0x20 PUSH1 0x4 DUP3 ADD MSTORE PUSH1 0x14 PUSH1 0x24 DUP3 ADD MSTORE PUSH20 0x11195CD8DC9A5C1D1A5BDB881C995C5D5A5C9959 PUSH1 0x62 SHL PUSH1 0x44 DUP3 ADD MSTORE PUSH1 0x64 ADD PUSH2 0x629 JUMP JUMPDEST PUSH1 0x1 DUP1 SLOAD SWAP1 PUSH1 0x0 PUSH2 0xCCF DUP4 PUSH2 0x19E4 JUMP JUMPDEST SWAP2 SWAP1 POP SSTORE POP PUSH1 0x0 PUSH1 0x1 SLOAD SWAP1 POP PUSH1 0x40 MLOAD DUP1 PUSH2 0x1A0 ADD PUSH1 0x40 MSTORE DUP1 DUP3 DUP2 MSTORE PUSH1 0x20 ADD CALLER PUSH1 0x1 PUSH1 0x1 PUSH1 0xA0 SHL SUB AND DUP2 MSTORE PUSH1 0x20 ADD DUP8 DUP2 MSTORE PUSH1 0x20 ADD DUP7 DUP2 MSTORE PUSH1 0x20 ADD PUSH1 0x0 DUP2 MSTORE PUSH1 0x20 ADD PUSH1 0x0 DUP2 MSTORE PUSH1 0x20 ADD PUSH1 0x0 DUP2 MSTORE PUSH1 0x20 ADD TIMESTAMP DUP2 MSTORE PUSH1 0x20 ADD PUSH3 0x93A80 TIMESTAMP PUSH2 0xD32 SWAP2 SWAP1 PUSH2 0x1918 JUMP JUMPDEST DUP2 MSTORE PUSH1 0x20 ADD PUSH1 0x1 DUP2 MSTORE PUSH1 0x20 ADD DUP5 DUP2 MSTORE PUSH1 0x20 ADD DUP6 PUSH1 0x1 PUSH1 0x1 PUSH1 0xA0 SHL SUB AND DUP2 MSTORE PUSH1 0x20 ADD PUSH1 0x64 PUSH1 0x2 SLOAD PUSH1 0x8 SLOAD PUSH2 0xD65 SWAP2 SWAP1 PUSH2 0x19FD JUMP JUMPDEST PUSH2 0xD6F SWAP2 SWAP1 PUSH2 0x1A14 JUMP JUMPDEST SWAP1 MSTORE PUSH1 0x0 DUP3 DUP2 MSTORE PUSH1 0x3 PUSH1 0x20 SWAP1 DUP2 MSTORE PUSH1 0x40 SWAP2 DUP3 SWAP1 KECCAK256 DUP4 MLOAD DUP2 SSTORE SWAP1 DUP4 ADD MLOAD PUSH1 0x1 DUP3 ADD DUP1 SLOAD PUSH1 0x1 PUSH1 0x1 PUSH1 0xA0 SHL SUB NOT AND PUSH1 0x1 PUSH1 0x1 PUSH1 0xA0 SHL SUB SWAP1 SWAP3 AND SWAP2 SWAP1 SWAP2 OR SWAP1 SSTORE SWAP1 DUP3 ADD MLOAD PUSH1 0x2 DUP3 ADD SWAP1 PUSH2 0xDBF SWAP1 DUP3 PUSH2 0x1A85 JUMP JUMPDEST POP PUSH1 0x60 DUP3 ADD MLOAD PUSH1 0x3 DUP3 ADD SWAP1 PUSH2 0xDD4 SWAP1 DUP3 PUSH2 0x1A85 JUMP JUMPDEST POP PUSH1 0x80 DUP3 ADD MLOAD DUP2 PUSH1 0x4 ADD SSTORE PUSH1 0xA0 DUP3 ADD MLOAD DUP2 PUSH1 0x5 ADD SSTORE PUSH1 0xC0 DUP3 ADD MLOAD DUP2 PUSH1 0x6 ADD SSTORE PUSH1 0xE0 DUP3 ADD MLOAD DUP2 PUSH1 0x7 ADD SSTORE PUSH2 0x100 DUP3 ADD MLOAD DUP2 PUSH1 0x8 ADD SSTORE PUSH2 0x120 DUP3 ADD MLOAD DUP2 PUSH1 0x9 ADD PUSH1 0x0 PUSH2 0x100 EXP DUP2 SLOAD DUP2 PUSH1 0xFF MUL NOT AND SWAP1 DUP4 PUSH1 0x5 DUP2 GT ISZERO PUSH2 0xE33 JUMPI PUSH2 0xE33 PUSH2 0x14C8 JUMP JUMPDEST MUL OR SWAP1 SSTORE POP PUSH2 0x140 DUP3 ADD MLOAD PUSH1 0xA DUP3 ADD SWAP1 PUSH2 0xE4D SWAP1 DUP3 PUSH2 0x1A85 JUMP JUMPDEST POP PUSH2 0x160 DUP3 ADD MLOAD PUSH1 0xB DUP3 ADD DUP1 SLOAD PUSH1 0x1 PUSH1 0x1 PUSH1 0xA0 SHL SUB NOT AND PUSH1 0x1 PUSH1 0x1 PUSH1 0xA0 SHL SUB SWAP1 SWAP3 AND SWAP2 SWAP1 SWAP2 OR SWAP1 SSTORE PUSH2 0x180 SWAP1 SWAP2 ADD MLOAD PUSH1 0xC SWAP1 SWAP2 ADD SSTORE PUSH1 0x0 DUP2 DUP2 MSTORE PUSH1 0x3 PUSH1 0x20 MSTORE PUSH1 0x40 SWAP1 DUP2 SWAP1 KECCAK256 PUSH1 0x8 ADD SLOAD SWAP1 MLOAD CALLER SWAP2 DUP4 SWAP2 PUSH32 0x6C98A8C940418B35614F0CD02412D5C9606FAFF474CBB6CDD6640BA5D1A9F06B SWAP2 PUSH2 0xECB SWAP2 DUP12 SWAP2 TIMESTAMP SWAP2 PUSH2 0x1B45 JUMP JUMPDEST PUSH1 0x40 MLOAD DUP1 SWAP2 SUB SWAP1 LOG3 SWAP6 SWAP5 POP POP POP POP POP JUMP JUMPDEST PUSH1 0x0 PUSH1 0x60 DUP1 PUSH1 0x0 DUP1 PUSH1 0x0 DUP1 PUSH1 0x0 DUP1 PUSH1 0x0 DUP11 PUSH1 0x3 PUSH1 0x0 DUP3 DUP2 MSTORE PUSH1 0x20 ADD SWAP1 DUP2 MSTORE PUSH1 0x20 ADD PUSH1 0x0 KECCAK256 PUSH1 0x0 ADD SLOAD PUSH1 0x0 SUB PUSH2 0xF23 JUMPI PUSH1 0x40 MLOAD PUSH3 0x461BCD PUSH1 0xE5 SHL DUP2 MSTORE PUSH1 0x4 ADD PUSH2 0x629 SWAP1 PUSH2 0x189E JUMP JUMPDEST PUSH1 0x0 DUP13 DUP2 MSTORE PUSH1 0x3 PUSH1 0x20 SWAP1 DUP2 MSTORE PUSH1 0x40 DUP1 DUP4 KECCAK256 DUP2 MLOAD PUSH2 0x1A0 DUP2 ADD DUP4 MSTORE DUP2 SLOAD DUP2 MSTORE PUSH1 0x1 DUP3 ADD SLOAD PUSH1 0x1 PUSH1 0x1 PUSH1 0xA0 SHL SUB AND SWAP4 DUP2 ADD SWAP4 SWAP1 SWAP4 MSTORE PUSH1 0x2 DUP2 ADD DUP1 SLOAD SWAP2 SWAP3 DUP5 ADD SWAP2 PUSH2 0xF6A SWAP1 PUSH2 0x1864 JUMP JUMPDEST DUP1 PUSH1 0x1F ADD PUSH1 0x20 DUP1 SWAP2 DIV MUL PUSH1 0x20 ADD PUSH1 0x40 MLOAD SWAP1 DUP2 ADD PUSH1 0x40 MSTORE DUP1 SWAP3 SWAP2 SWAP1 DUP2 DUP2 MSTORE PUSH1 0x20 ADD DUP3 DUP1 SLOAD PUSH2 0xF96 SWAP1 PUSH2 0x1864 JUMP JUMPDEST DUP1 ISZERO PUSH2 0xFE3 JUMPI DUP1 PUSH1 0x1F LT PUSH2 0xFB8 JUMPI PUSH2 0x100 DUP1 DUP4 SLOAD DIV MUL DUP4 MSTORE SWAP2 PUSH1 0x20 ADD SWAP2 PUSH2 0xFE3 JUMP JUMPDEST DUP3 ADD SWAP2 SWAP1 PUSH1 0x0 MSTORE PUSH1 0x20 PUSH1 0x0 KECCAK256 SWAP1 JUMPDEST DUP2 SLOAD DUP2 MSTORE SWAP1 PUSH1 0x1 ADD SWAP1 PUSH1 0x20 ADD DUP1 DUP4 GT PUSH2 0xFC6 JUMPI DUP3 SWAP1 SUB PUSH1 0x1F AND DUP3 ADD SWAP2 JUMPDEST POP POP POP POP POP DUP2 MSTORE PUSH1 0x20 ADD PUSH1 0x3 DUP3 ADD DUP1 SLOAD PUSH2 0xFFC SWAP1 PUSH2 0x1864 JUMP JUMPDEST DUP1 PUSH1 0x1F ADD PUSH1 0x20 DUP1 SWAP2 DIV MUL PUSH1 0x20 ADD PUSH1 0x40 MLOAD SWAP1 DUP2 ADD PUSH1 0x40 MSTORE DUP1 SWAP3 SWAP2 SWAP1 DUP2 DUP2 MSTORE PUSH1 0x20 ADD DUP3 DUP1 SLOAD PUSH2 0x1028 SWAP1 PUSH2 0x1864 JUMP JUMPDEST DUP1 ISZERO PUSH2 0x1075 JUMPI DUP1 PUSH1 0x1F LT PUSH2 0x104A JUMPI PUSH2 0x100 DUP1 DUP4 SLOAD DIV MUL DUP4 MSTORE SWAP2 PUSH1 0x20 ADD SWAP2 PUSH2 0x1075 JUMP JUMPDEST DUP3 ADD SWAP2 SWAP1 PUSH1 0x0 MSTORE PUSH1 0x20 PUSH1 0x0 KECCAK256 SWAP1 JUMPDEST DUP2 SLOAD DUP2 MSTORE SWAP1 PUSH1 0x1 ADD SWAP1 PUSH1 0x20 ADD DUP1 DUP4 GT PUSH2 0x1058 JUMPI DUP3 SWAP1 SUB PUSH1 0x1F AND DUP3 ADD SWAP2 JUMPDEST POP POP POP SWAP2 DUP4 MSTORE POP POP PUSH1 0x4 DUP3 ADD SLOAD PUSH1 0x20 DUP3 ADD MSTORE PUSH1 0x5 DUP1 DUP4 ADD SLOAD PUSH1 0x40 DUP4 ADD MSTORE PUSH1 0x6 DUP4 ADD SLOAD PUSH1 0x60 DUP4 ADD MSTORE PUSH1 0x7 DUP4 ADD SLOAD PUSH1 0x80 DUP4 ADD MSTORE PUSH1 0x8 DUP4 ADD SLOAD PUSH1 0xA0 DUP4 ADD MSTORE PUSH1 0x9 DUP4 ADD SLOAD PUSH1 0xC0 SWAP1 SWAP3 ADD SWAP2 PUSH1 0xFF AND SWAP1 DUP2 GT ISZERO PUSH2 0x10CE JUMPI PUSH2 0x10CE PUSH2 0x14C8 JUMP JUMPDEST PUSH1 0x5 DUP2 GT ISZERO PUSH2 0x10DF JUMPI PUSH2 0x10DF PUSH2 0x14C8 JUMP JUMPDEST DUP2 MSTORE PUSH1 0x20 ADD PUSH1 0xA DUP3 ADD DUP1 SLOAD PUSH2 0x10F3 SWAP1 PUSH2 0x1864 JUMP JUMPDEST DUP1 PUSH1 0x1F ADD PUSH1 0x20 DUP1 SWAP2 DIV MUL PUSH1 0x20 ADD PUSH1 0x40 MLOAD SWAP1 DUP2 ADD PUSH1 0x40 MSTORE DUP1 SWAP3 SWAP2 SWAP1 DUP2 DUP2 MSTORE PUSH1 0x20 ADD DUP3 DUP1 SLOAD PUSH2 0x111F SWAP1 PUSH2 0x1864 JUMP JUMPDEST DUP1 ISZERO PUSH2 0x116C JUMPI DUP1 PUSH1 0x1F LT PUSH2 0x1141 JUMPI PUSH2 0x100 DUP1 DUP4 SLOAD DIV MUL DUP4 MSTORE SWAP2 PUSH1 0x20 ADD SWAP2 PUSH2 0x116C JUMP JUMPDEST DUP3 ADD SWAP2 SWAP1 PUSH1 0x0 MSTORE PUSH1 0x20 PUSH1 0x0 KECCAK256 SWAP1 JUMPDEST DUP2 SLOAD DUP2 MSTORE SWAP1 PUSH1 0x1 ADD SWAP1 PUSH1 0x20 ADD DUP1 DUP4 GT PUSH2 0x114F JUMPI DUP3 SWAP1 SUB PUSH1 0x1F AND DUP3 ADD SWAP2 JUMPDEST POP POP POP POP POP DUP2 MSTORE PUSH1 0x20 ADD PUSH1 0xB DUP3 ADD PUSH1 0x0 SWAP1 SLOAD SWAP1 PUSH2 0x100 EXP SWAP1 DIV PUSH1 0x1 PUSH1 0x1 PUSH1 0xA0 SHL SUB AND PUSH1 0x1 PUSH1 0x1 PUSH1 0xA0 SHL SUB AND PUSH1 0x1 PUSH1 0x1 PUSH1 0xA0 SHL SUB AND DUP2 MSTORE PUSH1 0x20 ADD PUSH1 0xC DUP3 ADD SLOAD DUP2 MSTORE POP POP SWAP1 POP DUP1 PUSH1 0x20 ADD MLOAD SWAP12 POP DUP1 PUSH1 0x40 ADD MLOAD SWAP11 POP DUP1 PUSH1 0x60 ADD MLOAD SWAP10 POP DUP1 PUSH1 0x80 ADD MLOAD SWAP9 POP DUP1 PUSH1 0xA0 ADD MLOAD SWAP8 POP DUP1 PUSH1 0xC0 ADD MLOAD SWAP7 POP DUP1 PUSH1 0xE0 ADD MLOAD SWAP6 POP DUP1 PUSH2 0x100 ADD MLOAD SWAP5 POP DUP1 PUSH2 0x120 ADD MLOAD SWAP4 POP PUSH1 0x0 DUP8 DUP10 DUP12 PUSH2 0x1200 SWAP2 SWAP1 PUSH2 0x1918 JUMP JUMPDEST PUSH2 0x120A SWAP2 SWAP1 PUSH2 0x1918 JUMP JUMPDEST SWAP1 POP DUP2 PUSH2 0x100 ADD MLOAD TIMESTAMP GT DUP1 ISZERO PUSH2 0x1227 JUMPI POP DUP2 PUSH1 0xA0 ADD MLOAD DUP3 PUSH1 0x80 ADD MLOAD GT JUMPDEST DUP1 ISZERO PUSH2 0x1238 JUMPI POP DUP2 PUSH2 0x180 ADD MLOAD DUP2 LT ISZERO JUMPDEST DUP1 ISZERO PUSH2 0x125A JUMPI POP PUSH1 0x1 DUP3 PUSH2 0x120 ADD MLOAD PUSH1 0x5 DUP2 GT ISZERO PUSH2 0x1258 JUMPI PUSH2 0x1258 PUSH2 0x14C8 JUMP JUMPDEST EQ JUMPDEST SWAP4 POP POP POP POP SWAP2 SWAP4 SWAP6 SWAP8 SWAP10 POP SWAP2 SWAP4 SWAP6 SWAP8 SWAP10 JUMP JUMPDEST PUSH1 0x0 SLOAD PUSH1 0x1 PUSH1 0x1 PUSH1 0xA0 SHL SUB AND CALLER EQ PUSH2 0x1296 JUMPI PUSH1 0x40 MLOAD PUSH3 0x461BCD PUSH1 0xE5 SHL DUP2 MSTORE PUSH1 0x4 ADD PUSH2 0x629 SWAP1 PUSH2 0x19A1 JUMP JUMPDEST PUSH1 0x6 DUP1 SLOAD PUSH1 0x1 PUSH1 0x1 PUSH1 0xA0 SHL SUB NOT AND PUSH1 0x1 PUSH1 0x1 PUSH1 0xA0 SHL SUB SWAP3 SWAP1 SWAP3 AND SWAP2 SWAP1 SWAP2 OR SWAP1 SSTORE JUMP JUMPDEST PUSH1 0x0 DUP2 DUP2 MSTORE PUSH1 0x3 PUSH1 0x20 MSTORE PUSH1 0x40 DUP2 KECCAK256 SLOAD DUP3 SWAP2 SUB PUSH2 0x12E6 JUMPI PUSH1 0x40 MLOAD PUSH3 0x461BCD PUSH1 0xE5 SHL DUP2 MSTORE PUSH1 0x4 ADD PUSH2 0x629 SWAP1 PUSH2 0x189E JUMP JUMPDEST PUSH1 0x0 DUP3 DUP2 MSTORE PUSH1 0x3 PUSH1 0x20 MSTORE PUSH1 0x40 SWAP1 KECCAK256 PUSH1 0x1 DUP2 ADD SLOAD PUSH1 0x1 PUSH1 0x1 PUSH1 0xA0 SHL SUB AND CALLER EQ DUP1 PUSH2 0x1319 JUMPI POP PUSH1 0x0 SLOAD PUSH1 0x1 PUSH1 0x1 PUSH1 0xA0 SHL SUB AND CALLER EQ JUMPDEST PUSH2 0x1335 JUMPI PUSH1 0x40 MLOAD PUSH3 0x461BCD PUSH1 0xE5 SHL DUP2 MSTORE PUSH1 0x4 ADD PUSH2 0x629 SWAP1 PUSH2 0x19A1 JUMP JUMPDEST PUSH1 0x1 PUSH1 0x9 DUP3 ADD SLOAD PUSH1 0xFF AND PUSH1 0x5 DUP2 GT ISZERO PUSH2 0x1350 JUMPI PUSH2 0x1350 PUSH2 0x14C8 JUMP JUMPDEST EQ PUSH2 0x136D JUMPI PUSH1 0x40 MLOAD PUSH3 0x461BCD PUSH1 0xE5 SHL DUP2 MSTORE PUSH1 0x4 ADD PUSH2 0x629 SWAP1 PUSH2 0x18D5 JUMP JUMPDEST PUSH1 0x9 DUP2 ADD DUP1 SLOAD PUSH1 0xFF NOT AND PUSH1 0x5 OR SWAP1 SSTORE PUSH1 0x40 MLOAD DUP4 SWAP1 PUSH32 0x416E669C63D9A3A5E36EE7CC7E2104B8DB28CCD286AA18966E98FA230C73B08C SWAP1 PUSH1 0x0 SWAP1 LOG2 POP POP POP JUMP JUMPDEST PUSH1 0x6 SLOAD PUSH1 0x1 PUSH1 0x1 PUSH1 0xA0 SHL SUB AND CALLER EQ DUP1 PUSH2 0x13CF JUMPI POP PUSH1 0x0 SLOAD PUSH1 0x1 PUSH1 0x1 PUSH1 0xA0 SHL SUB AND CALLER EQ JUMPDEST PUSH2 0x13EB JUMPI PUSH1 0x40 MLOAD PUSH3 0x461BCD PUSH1 0xE5 SHL DUP2 MSTORE PUSH1 0x4 ADD PUSH2 0x629 SWAP1 PUSH2 0x19A1 JUMP JUMPDEST PUSH1 0x1 PUSH1 0x1 PUSH1 0xA0 SHL SUB DUP3 AND PUSH1 0x0 SWAP1 DUP2 MSTORE PUSH1 0x7 PUSH1 0x20 MSTORE PUSH1 0x40 SWAP1 KECCAK256 DUP1 SLOAD SWAP1 DUP3 SWAP1 SSTORE PUSH1 0x8 SLOAD DUP3 SWAP1 PUSH2 0x1419 SWAP1 DUP4 SWAP1 PUSH2 0x1B6A JUMP JUMPDEST PUSH2 0x1423 SWAP2 SWAP1 PUSH2 0x1918 JUMP JUMPDEST PUSH1 0x8 SSTORE PUSH1 0x40 MLOAD DUP3 DUP2 MSTORE PUSH1 0x1 PUSH1 0x1 PUSH1 0xA0 SHL SUB DUP5 AND SWAP1 PUSH32 0x36AC285914FB5FD49DD16E36CAB1E696EDA836080E3A61FF587C8671CBBDCAB9 SWAP1 PUSH1 0x20 ADD PUSH1 0x40 MLOAD DUP1 SWAP2 SUB SWAP1 LOG2 POP POP POP JUMP JUMPDEST PUSH1 0x0 PUSH1 0x20 DUP3 DUP5 SUB SLT ISZERO PUSH2 0x147B JUMPI PUSH1 0x0 DUP1 REVERT JUMPDEST POP CALLDATALOAD SWAP2 SWAP1 POP JUMP JUMPDEST PUSH1 0x0 DUP2 MLOAD DUP1 DUP5 MSTORE PUSH1 0x0 JUMPDEST DUP2 DUP2 LT ISZERO PUSH2 0x14A8 JUMPI PUSH1 0x20 DUP2 DUP6 ADD DUP2 ADD MLOAD DUP7 DUP4 ADD DUP3 ADD MSTORE ADD PUSH2 0x148C JUMP JUMPDEST POP PUSH1 0x0 PUSH1 0x20 DUP3 DUP7 ADD ADD MSTORE PUSH1 0x20 PUSH1 0x1F NOT PUSH1 0x1F DUP4 ADD AND DUP6 ADD ADD SWAP2 POP POP SWAP3 SWAP2 POP POP JUMP JUMPDEST PUSH4 0x4E487B71 PUSH1 0xE0 SHL PUSH1 0x0 MSTORE PUSH1 0x21 PUSH1 0x4 MSTORE PUSH1 0x24 PUSH1 0x0 REVERT JUMPDEST PUSH1 0x6 DUP2 LT PUSH2 0x14EE JUMPI PUSH2 0x14EE PUSH2 0x14C8 JUMP JUMPDEST SWAP1 MSTORE JUMP JUMPDEST DUP14 DUP2 MSTORE PUSH1 0x1 PUSH1 0x1 PUSH1 0xA0 SHL SUB DUP14 AND PUSH1 0x20 DUP3 ADD MSTORE PUSH2 0x1A0 PUSH1 0x40 DUP3 ADD DUP2 SWAP1 MSTORE PUSH1 0x0 SWAP1 PUSH2 0x151D DUP4 DUP3 ADD DUP16 PUSH2 0x1482 JUMP JUMPDEST SWAP1 POP DUP3 DUP2 SUB PUSH1 0x60 DUP5 ADD MSTORE PUSH2 0x1531 DUP2 DUP15 PUSH2 0x1482 JUMP JUMPDEST SWAP1 POP DUP12 PUSH1 0x80 DUP5 ADD MSTORE DUP11 PUSH1 0xA0 DUP5 ADD MSTORE DUP10 PUSH1 0xC0 DUP5 ADD MSTORE DUP9 PUSH1 0xE0 DUP5 ADD MSTORE DUP8 PUSH2 0x100 DUP5 ADD MSTORE PUSH2 0x1560 PUSH2 0x120 DUP5 ADD DUP9 PUSH2 0x14DE JUMP JUMPDEST DUP3 DUP2 SUB PUSH2 0x140 DUP5 ADD MSTORE PUSH2 0x1573 DUP2 DUP8 PUSH2 0x1482 JUMP JUMPDEST SWAP2 POP POP PUSH2 0x158C PUSH2 0x160 DUP4 ADD DUP6 PUSH1 0x1 PUSH1 0x1 PUSH1 0xA0 SHL SUB AND SWAP1 MSTORE JUMP JUMPDEST DUP3 PUSH2 0x180 DUP4 ADD MSTORE SWAP15 SWAP14 POP POP POP POP POP POP POP POP POP POP POP POP POP POP JUMP JUMPDEST DUP1 CALLDATALOAD PUSH1 0x1 PUSH1 0x1 PUSH1 0xA0 SHL SUB DUP2 AND DUP2 EQ PUSH2 0x15BC JUMPI PUSH1 0x0 DUP1 REVERT JUMPDEST SWAP2 SWAP1 POP JUMP JUMPDEST PUSH1 0x0 DUP1 PUSH1 0x40 DUP4 DUP6 SUB SLT ISZERO PUSH2 0x15D4 JUMPI PUSH1 0x0 DUP1 REVERT JUMPDEST DUP3 CALLDATALOAD SWAP2 POP PUSH2 0x15E4 PUSH1 0x20 DUP5 ADD PUSH2 0x15A5 JUMP JUMPDEST SWAP1 POP SWAP3 POP SWAP3 SWAP1 POP JUMP JUMPDEST PUSH1 0x4 DUP2 LT PUSH2 0x14EE JUMPI PUSH2 0x14EE PUSH2 0x14C8 JUMP JUMPDEST PUSH1 0x20 DUP2 ADD PUSH2 0x5F5 DUP3 DUP5 PUSH2 0x15ED JUMP JUMPDEST PUSH1 0x0 DUP1 PUSH1 0x40 DUP4 DUP6 SUB SLT ISZERO PUSH2 0x161E JUMPI PUSH1 0x0 DUP1 REVERT JUMPDEST DUP3 CALLDATALOAD SWAP2 POP PUSH1 0x20 DUP4 ADD CALLDATALOAD PUSH1 0x4 DUP2 LT PUSH2 0x1634 JUMPI PUSH1 0x0 DUP1 REVERT JUMPDEST DUP1 SWAP2 POP POP SWAP3 POP SWAP3 SWAP1 POP JUMP JUMPDEST PUSH1 0x0 PUSH1 0x20 DUP3 DUP5 SUB SLT ISZERO PUSH2 0x1651 JUMPI PUSH1 0x0 DUP1 REVERT JUMPDEST PUSH2 0x165A DUP3 PUSH2 0x15A5 JUMP JUMPDEST SWAP4 SWAP3 POP POP POP JUMP JUMPDEST PUSH4 0x4E487B71 PUSH1 0xE0 SHL PUSH1 0x0 MSTORE PUSH1 0x41 PUSH1 0x4 MSTORE PUSH1 0x24 PUSH1 0x0 REVERT JUMPDEST PUSH1 0x0 PUSH8 0xFFFFFFFFFFFFFFFF DUP1 DUP5 GT ISZERO PUSH2 0x1692 JUMPI PUSH2 0x1692 PUSH2 0x1661 JUMP JUMPDEST PUSH1 0x40 MLOAD PUSH1 0x1F DUP6 ADD PUSH1 0x1F NOT SWAP1 DUP2 AND PUSH1 0x3F ADD AND DUP2 ADD SWAP1 DUP3 DUP3 GT DUP2 DUP4 LT OR ISZERO PUSH2 0x16BA JUMPI PUSH2 0x16BA PUSH2 0x1661 JUMP JUMPDEST DUP2 PUSH1 0x40 MSTORE DUP1 SWAP4 POP DUP6 DUP2 MSTORE DUP7 DUP7 DUP7 ADD GT ISZERO PUSH2 0x16D3 JUMPI PUSH1 0x0 DUP1 REVERT JUMPDEST DUP6 DUP6 PUSH1 0x20 DUP4 ADD CALLDATACOPY PUSH1 0x0 PUSH1 0x20 DUP8 DUP4 ADD ADD MSTORE POP POP POP SWAP4 SWAP3 POP POP POP JUMP JUMPDEST PUSH1 0x0 DUP3 PUSH1 0x1F DUP4 ADD SLT PUSH2 0x16FE JUMPI PUSH1 0x0 DUP1 REVERT JUMPDEST PUSH2 0x165A DUP4 DUP4 CALLDATALOAD PUSH1 0x20 DUP6 ADD PUSH2 0x1677 JUMP JUMPDEST PUSH1 0x0 DUP1 PUSH1 0x0 DUP1 PUSH1 0x80 DUP6 DUP8 SUB SLT ISZERO PUSH2 0x1723 JUMPI PUSH1 0x0 DUP1 REVERT JUMPDEST DUP5 CALLDATALOAD PUSH8 0xFFFFFFFFFFFFFFFF DUP1 DUP3 GT ISZERO PUSH2 0x173B JUMPI PUSH1 0x0 DUP1 REVERT JUMPDEST PUSH2 0x1747 DUP9 DUP4 DUP10 ADD PUSH2 0x16ED JUMP JUMPDEST SWAP6 POP PUSH1 0x20 DUP8 ADD CALLDATALOAD SWAP2 POP DUP1 DUP3 GT ISZERO PUSH2 0x175D JUMPI PUSH1 0x0 DUP1 REVERT JUMPDEST PUSH2 0x1769 DUP9 DUP4 DUP10 ADD PUSH2 0x16ED JUMP JUMPDEST SWAP5 POP PUSH2 0x1777 PUSH1 0x40 DUP9 ADD PUSH2 0x15A5 JUMP JUMPDEST SWAP4 POP PUSH1 0x60 DUP8 ADD CALLDATALOAD SWAP2 POP DUP1 DUP3 GT ISZERO PUSH2 0x178D JUMPI PUSH1 0x0 DUP1 REVERT JUMPDEST POP DUP6 ADD PUSH1 0x1F DUP2 ADD DUP8 SGT PUSH2 0x179F JUMPI PUSH1 0x0 DUP1 REVERT JUMPDEST PUSH2 0x17AE DUP8 DUP3 CALLDATALOAD PUSH1 0x20 DUP5 ADD PUSH2 0x1677 JUMP JUMPDEST SWAP2 POP POP SWAP3 SWAP6 SWAP2 SWAP5 POP SWAP3 POP JUMP JUMPDEST PUSH1 0x1 PUSH1 0x1 PUSH1 0xA0 SHL SUB DUP12 AND DUP2 MSTORE PUSH2 0x140 PUSH1 0x20 DUP3 ADD DUP2 SWAP1 MSTORE PUSH1 0x0 SWAP1 PUSH2 0x17DF DUP4 DUP3 ADD DUP14 PUSH2 0x1482 JUMP JUMPDEST SWAP1 POP DUP3 DUP2 SUB PUSH1 0x40 DUP5 ADD MSTORE PUSH2 0x17F3 DUP2 DUP13 PUSH2 0x1482 JUMP JUMPDEST SWAP2 POP POP DUP9 PUSH1 0x60 DUP4 ADD MSTORE DUP8 PUSH1 0x80 DUP4 ADD MSTORE DUP7 PUSH1 0xA0 DUP4 ADD MSTORE DUP6 PUSH1 0xC0 DUP4 ADD MSTORE DUP5 PUSH1 0xE0 DUP4 ADD MSTORE PUSH2 0x1822 PUSH2 0x100 DUP4 ADD DUP6 PUSH2 0x14DE JUMP JUMPDEST DUP3 ISZERO ISZERO PUSH2 0x120 DUP4 ADD MSTORE SWAP12 SWAP11 POP POP POP POP POP POP POP POP POP POP POP JUMP JUMPDEST PUSH1 0x0 DUP1 PUSH1 0x40 DUP4 DUP6 SUB SLT ISZERO PUSH2 0x184D JUMPI PUSH1 0x0 DUP1 REVERT JUMPDEST PUSH2 0x1856 DUP4 PUSH2 0x15A5 JUMP JUMPDEST SWAP5 PUSH1 0x20 SWAP4 SWAP1 SWAP4 ADD CALLDATALOAD SWAP4 POP POP POP JUMP JUMPDEST PUSH1 0x1 DUP2 DUP2 SHR SWAP1 DUP3 AND DUP1 PUSH2 0x1878 JUMPI PUSH1 0x7F DUP3 AND SWAP2 POP JUMPDEST PUSH1 0x20 DUP3 LT DUP2 SUB PUSH2 0x1898 JUMPI PUSH4 0x4E487B71 PUSH1 0xE0 SHL PUSH1 0x0 MSTORE PUSH1 0x22 PUSH1 0x4 MSTORE PUSH1 0x24 PUSH1 0x0 REVERT JUMPDEST POP SWAP2 SWAP1 POP JUMP JUMPDEST PUSH1 0x20 DUP1 DUP3 MSTORE PUSH1 0x17 SWAP1 DUP3 ADD MSTORE PUSH32 0x50726F706F73616C20646F6573206E6F74206578697374000000000000000000 PUSH1 0x40 DUP3 ADD MSTORE PUSH1 0x60 ADD SWAP1 JUMP JUMPDEST PUSH1 0x20 DUP1 DUP3 MSTORE PUSH1 0x13 SWAP1 DUP3 ADD MSTORE PUSH19 0x50726F706F73616C206E6F7420616374697665 PUSH1 0x68 SHL PUSH1 0x40 DUP3 ADD MSTORE PUSH1 0x60 ADD SWAP1 JUMP JUMPDEST PUSH4 0x4E487B71 PUSH1 0xE0 SHL PUSH1 0x0 MSTORE PUSH1 0x11 PUSH1 0x4 MSTORE PUSH1 0x24 PUSH1 0x0 REVERT JUMPDEST DUP1 DUP3 ADD DUP1 DUP3 GT ISZERO PUSH2 0x5F5 JUMPI PUSH2 0x5F5 PUSH2 0x1902 JUMP JUMPDEST PUSH1 0x0 DUP1 DUP4 SLOAD PUSH2 0x1939 DUP2 PUSH2 0x1864 JUMP JUMPDEST PUSH1 0x1 DUP3 DUP2 AND DUP1 ISZERO PUSH2 0x1951 JUMPI PUSH1 0x1 DUP2 EQ PUSH2 0x1966 JUMPI PUSH2 0x1995 JUMP JUMPDEST PUSH1 0xFF NOT DUP5 AND DUP8 MSTORE DUP3 ISZERO ISZERO DUP4 MUL DUP8 ADD SWAP5 POP PUSH2 0x1995 JUMP JUMPDEST DUP8 PUSH1 0x0 MSTORE PUSH1 0x20 DUP1 PUSH1 0x0 KECCAK256 PUSH1 0x0 JUMPDEST DUP6 DUP2 LT ISZERO PUSH2 0x198C JUMPI DUP2 SLOAD DUP11 DUP3 ADD MSTORE SWAP1 DUP5 ADD SWAP1 DUP3 ADD PUSH2 0x1973 JUMP JUMPDEST POP POP POP DUP3 DUP8 ADD SWAP5 POP JUMPDEST POP SWAP3 SWAP7 SWAP6 POP POP POP POP POP POP JUMP JUMPDEST PUSH1 0x20 DUP1 DUP3 MSTORE PUSH1 0xE SWAP1 DUP3 ADD MSTORE PUSH14 0x139BDD08185D5D1A1BDC9A5E9959 PUSH1 0x92 SHL PUSH1 0x40 DUP3 ADD MSTORE PUSH1 0x60 ADD SWAP1 JUMP JUMPDEST PUSH1 0x40 DUP2 ADD PUSH2 0x19D7 DUP3 DUP6 PUSH2 0x15ED JUMP JUMPDEST DUP3 PUSH1 0x20 DUP4 ADD MSTORE SWAP4 SWAP3 POP POP POP JUMP JUMPDEST PUSH1 0x0 PUSH1 0x1 DUP3 ADD PUSH2 0x19F6 JUMPI PUSH2 0x19F6 PUSH2 0x1902 JUMP JUMPDEST POP PUSH1 0x1 ADD SWAP1 JUMP JUMPDEST DUP1 DUP3 MUL DUP2 ISZERO DUP3 DUP3 DIV DUP5 EQ OR PUSH2 0x5F5 JUMPI PUSH2 0x5F5 PUSH2 0x1902 JUMP JUMPDEST PUSH1 0x0 DUP3 PUSH2 0x1A31 JUMPI PUSH4 0x4E487B71 PUSH1 0xE0 SHL PUSH1 0x0 MSTORE PUSH1 0x12 PUSH1 0x4 MSTORE PUSH1 0x24 PUSH1 0x0 REVERT JUMPDEST POP DIV SWAP1 JUMP JUMPDEST PUSH1 0x1F DUP3 GT ISZERO PUSH2 0x1A80 JUMPI PUSH1 0x0 DUP2 DUP2 MSTORE PUSH1 0x20 DUP2 KECCAK256 PUSH1 0x1F DUP6 ADD PUSH1 0x5 SHR DUP2 ADD PUSH1 0x20 DUP7 LT ISZERO PUSH2 0x1A5D JUMPI POP DUP1 JUMPDEST PUSH1 0x1F DUP6 ADD PUSH1 0x5 SHR DUP3 ADD SWAP2 POP JUMPDEST DUP2 DUP2 LT ISZERO PUSH2 0x1A7C JUMPI DUP3 DUP2 SSTORE PUSH1 0x1 ADD PUSH2 0x1A69 JUMP JUMPDEST POP POP POP JUMPDEST POP POP POP JUMP JUMPDEST DUP2 MLOAD PUSH8 0xFFFFFFFFFFFFFFFF DUP2 GT ISZERO PUSH2 0x1A9F JUMPI PUSH2 0x1A9F PUSH2 0x1661 JUMP JUMPDEST PUSH2 0x1AB3 DUP2 PUSH2 0x1AAD DUP5 SLOAD PUSH2 0x1864 JUMP JUMPDEST DUP5 PUSH2 0x1A36 JUMP JUMPDEST PUSH1 0x20 DUP1 PUSH1 0x1F DUP4 GT PUSH1 0x1 DUP2 EQ PUSH2 0x1AE8 JUMPI PUSH1 0x0 DUP5 ISZERO PUSH2 0x1AD0 JUMPI POP DUP6 DUP4 ADD MLOAD JUMPDEST PUSH1 0x0 NOT PUSH1 0x3 DUP7 SWAP1 SHL SHR NOT AND PUSH1 0x1 DUP6 SWAP1 SHL OR DUP6 SSTORE PUSH2 0x1A7C JUMP JUMPDEST PUSH1 0x0 DUP6 DUP2 MSTORE PUSH1 0x20 DUP2 KECCAK256 PUSH1 0x1F NOT DUP7 AND SWAP2 JUMPDEST DUP3 DUP2 LT ISZERO PUSH2 0x1B17 JUMPI DUP9 DUP7 ADD MLOAD DUP3 SSTORE SWAP5 DUP5 ADD SWAP5 PUSH1 0x1 SWAP1 SWAP2 ADD SWAP1 DUP5 ADD PUSH2 0x1AF8 JUMP JUMPDEST POP DUP6 DUP3 LT ISZERO PUSH2 0x1B35 JUMPI DUP8 DUP6 ADD MLOAD PUSH1 0x0 NOT PUSH1 0x3 DUP9 SWAP1 SHL PUSH1 0xF8 AND SHR NOT AND DUP2 SSTORE JUMPDEST POP POP POP POP POP PUSH1 0x1 SWAP1 DUP2 SHL ADD SWAP1 SSTORE POP JUMP JUMPDEST PUSH1 0x60 DUP2 MSTORE PUSH1 0x0 PUSH2 0x1B58 PUSH1 0x60 DUP4 ADD DUP7 PUSH2 0x1482 JUMP JUMPDEST PUSH1 0x20 DUP4 ADD SWAP5 SWAP1 SWAP5 MSTORE POP PUSH1 0x40 ADD MSTORE SWAP2 SWAP1 POP JUMP JUMPDEST DUP2 DUP2 SUB DUP2 DUP2 GT ISZERO PUSH2 0x5F5 JUMPI PUSH2 0x5F5 PUSH2 0x1902 JUMP INVALID LOG2 PUSH5 0x6970667358 0x22 SLT KECCAK256 SSTORE 0xB4 0xA5 0x22 GAS ADDRESS SWAP7 MSIZE DUP1 0x5C DUP13 DUP1 CODESIZE 0xEE PUSH13 0x77AACD9B9B13F4E0E8889B0282 ADDRESS 0xB3 PUSH8 0x4E64736F6C634300 ADDMOD EQ STOP CALLER "},"methodIdentifiers":{"MIN_VOTING_POWER()":"805a8142","VOTING_PERIOD()":"b1610d7e","cancelProposal(uint256)":"e0a8f6f5","createProposal(string,string,address,bytes)":"c26493f7","executeProposal(uint256)":"0d61b519","getProposal(uint256)":"c7f758a8","getUserVote(uint256,address)":"03c7881a","getVotingPower(address)":"bb4d4436","hasUserVoted(uint256,address)":"dc296ae1","hasVoted(uint256,address)":"43859632","nodeVault()":"12ad7834","owner()":"8da5cb5b","proposalCounter()":"0c0512e9","proposals(uint256)":"013cf08b","quorumThreshold()":"7b7a91dd","setNodeVault(address)":"cce65681","setQuorumThreshold(uint256)":"4524c7e1","totalVotingPower()":"671b3793","updateVotingPower(address,uint256)":"eadc29c7","vote(uint256,uint8)":"943e8216","votes(uint256,address)":"d23254b4","votingPower(address)":"c07473f6"}}}}}