{"contracts/NodeVault.sol":{"NodeVault":{"abi":[{"inputs":[],"stateMutability":"nonpayable","type":"constructor"},{"anonymous":false,"inputs":[{"indexed":true,"internalType":"uint256","name":"poolId","type":"uint256"},{"indexed":false,"internalType":"string","name":"name","type":"string"},{"indexed":false,"internalType":"uint256","name":"allocation","type":"uint256"}],"name":"PoolCreated","type":"event"},{"anonymous":false,"inputs":[{"indexed":true,"internalType":"address","name":"staker","type":"address"},{"indexed":false,"internalType":"uint256","name":"amount","type":"uint256"},{"indexed":false,"internalType":"uint256","name":"timestamp","type":"uint256"}],"name":"Staked","type":"event"},{"anonymous":false,"inputs":[{"indexed":true,"internalType":"address","name":"staker","type":"address"},{"indexed":false,"internalType":"uint256","name":"amount","type":"uint256"},{"indexed":false,"internalType":"uint256","name":"timestamp","type":"uint256"}],"name":"Unstaked","type":"event"},{"anonymous":false,"inputs":[{"indexed":true,"internalType":"address","name":"staker","type":"address"},{"indexed":false,"internalType":"uint256","name":"yieldAmount","type":"uint256"}],"name":"YieldClaimed","type":"event"},{"anonymous":false,"inputs":[{"indexed":false,"internalType":"uint256","name":"totalYield","type":"uint256"},{"indexed":false,"internalType":"uint256","name":"timestamp","type":"uint256"}],"name":"YieldDistributed","type":"event"},{"inputs":[],"name":"MIN_STAKE","outputs":[{"internalType":"uint256","name":"","type":"uint256"}],"stateMutability":"view","type":"function"},{"inputs":[],"name":"YIELD_RATE","outputs":[{"internalType":"uint256","name":"","type":"uint256"}],"stateMutability":"view","type":"function"},{"inputs":[],"name":"claimYield","outputs":[],"stateMutability":"nonpayable","type":"function"},{"inputs":[{"internalType":"string","name":"name","type":"string"},{"internalType":"uint256","name":"allocation","type":"uint256"}],"name":"createPool","outputs":[],"stateMutability":"nonpayable","type":"function"},{"inputs":[],"name":"distributeYield","outputs":[],"stateMutability":"payable","type":"function"},{"inputs":[],"name":"getStakerCount","outputs":[{"internalType":"uint256","name":"","type":"uint256"}],"stateMutability":"view","type":"function"},{"inputs":[{"internalType":"address","name":"stakerAddr","type":"address"}],"name":"getStakerInfo","outputs":[{"internalType":"uint256","name":"amount","type":"uint256"},{"internalType":"uint256","name":"pendingYield","type":"uint256"},{"internalType":"uint256","name":"stakedSince","type":"uint256"},{"internalType":"uint256","name":"estimatedAnnualYield","type":"uint256"}],"stateMutability":"view","type":"function"},{"inputs":[],"name":"getVaultStats","outputs":[{"internalType":"uint256","name":"_totalStaked","type":"uint256"},{"internalType":"uint256","name":"_totalYieldGenerated","type":"uint256"},{"internalType":"uint256","name":"_stakerCount","type":"uint256"},{"internalType":"uint256","name":"_vaultBalance","type":"uint256"}],"stateMutability":"view","type":"function"},{"inputs":[{"internalType":"uint256","name":"poolId","type":"uint256"},{"internalType":"uint256","name":"amount","type":"uint256"}],"name":"investInPool","outputs":[],"stateMutability":"nonpayable","type":"function"},{"inputs":[],"name":"owner","outputs":[{"internalType":"address","name":"","type":"address"}],"stateMutability":"view","type":"function"},{"inputs":[],"name":"poolCount","outputs":[{"internalType":"uint256","name":"","type":"uint256"}],"stateMutability":"view","type":"function"},{"inputs":[{"internalType":"uint256","name":"","type":"uint256"}],"name":"pools","outputs":[{"internalType":"string","name":"name","type":"string"},{"internalType":"uint256","name":"allocation","type":"uint256"},{"internalType":"uint256","name":"totalInvested","type":"uint256"},{"internalType":"bool","name":"active","type":"bool"}],"stateMutability":"view","type":"function"},{"inputs":[],"name":"stake","outputs":[],"stateMutability":"payable","type":"function"},{"inputs":[{"internalType":"uint256","name":"","type":"uint256"}],"name":"stakerAddresses","outputs":[{"internalType":"address","name":"","type":"address"}],"stateMutability":"view","type":"function"},{"inputs":[{"internalType":"address","name":"","type":"address"}],"name":"stakers","outputs":[{"internalType":"uint256","name":"amount","type":"uint256"},{"internalType":"uint256","name":"timestamp","type":"uint256"},{"internalType":"uint256","name":"lastClaim","type":"uint256"},{"internalType":"uint256","name":"pendingYield","type":"uint256"}],"stateMutability":"view","type":"function"},{"inputs":[],"name":"totalStaked","outputs":[{"internalType":"uint256","name":"","type":"uint256"}],"stateMutability":"view","type":"function"},{"inputs":[],"name":"totalYieldGenerated","outputs":[{"internalType":"uint256","name":"","type":"uint256"}],"stateMutability":"view","type":"function"},{"inputs":[{"internalType":"uint256","name":"amount","type":"uint256"}],"name":"unstake","outputs":[],"stateMutability":"nonpayable","type":"function"},{"stateMutability":"payable","type":"receive"}],"evm":{"bytecode":{"linkReferences":{},"object":"60806040523480156200001157600080fd5b50600080546001600160a01b0319163317905560408051808201909152601681527f536d616c6c20427573696e657373204c656e64696e6700000000000000000000602082015262000065906028620000d8565b60408051808201909152601581527f477265656e20456e657267792050726f6a6563747300000000000000000000006020820152620000a6906023620000d8565b604080518082019091526008815267526573657276657360c01b6020820152620000d2906019620000d8565b62000393565b6040805160808101825283815260208082018490526000828401819052600160608401526006548152600590915291909120815181906200011a908262000248565b506020820151600182015560408083015160028301556060909201516003909101805460ff191691151591909117905560065490517f3040bbc5c012df6c85e9f1cc10202ceda09051bc16d18aa369bf9ada2ba7716f9062000180908590859062000314565b60405180910390a2600680549060006200019a836200036b565b91905055505050565b634e487b7160e01b600052604160045260246000fd5b600181811c90821680620001ce57607f821691505b602082108103620001ef57634e487b7160e01b600052602260045260246000fd5b50919050565b601f8211156200024357600081815260208120601f850160051c810160208610156200021e5750805b601f850160051c820191505b818110156200023f578281556001016200022a565b5050505b505050565b81516001600160401b03811115620002645762000264620001a3565b6200027c81620002758454620001b9565b84620001f5565b602080601f831160018114620002b457600084156200029b5750858301515b600019600386901b1c1916600185901b1785556200023f565b600085815260208120601f198616915b82811015620002e557888601518255948401946001909101908401620002c4565b5085821015620003045787850151600019600388901b60f8161c191681555b5050505050600190811b01905550565b604081526000835180604084015260005b8181101562000344576020818701810151606086840101520162000325565b506000606082850101526060601f19601f8301168401019150508260208301529392505050565b6000600182016200038c57634e487b7160e01b600052601160045260246000fd5b5060010190565b61160680620003a36000396000f3fe60806040526004361061010d5760003560e01c80638c82505611610095578063a59aa5a611610064578063a59aa5a6146103f7578063ac4afa3814610413578063cb1c2b5c14610443578063e852090a1461045b578063f525cb681461047057600080fd5b80638c8250561461035d5780638da5cb5b146103735780639168ae7214610393578063a53caaa8146103d757600080fd5b8063406cf229116100dc578063406cf229146102b2578063459598a2146102c7578063733bdef0146102ff578063817b1cd21461033f5780638a570a121461035557600080fd5b80631319649d1461024657806326fc66ab1461026a5780632e17de781461028a5780633a4b66f1146102aa57600080fd5b3661024157341561023f573360009081526003602052604081205490036101bf576004805460018181019092557f8a35acfbc15ff81a39ae7d344fd709f28e8600b4aa8c65c6b64bfe7fe36bd19b0180546001600160a01b031916339081179091556040805160808101825234815242602082810182815283850192835260006060850181815296815260039283905294909420925183559251948201949094559251600284015590519101556101ed565b6101c833610486565b33600090815260036020526040812080543492906101e790849061120e565b90915550505b34600160008282546101ff919061120e565b90915550506040805134815242602082015233917f1449c6dd7851abc30abf37f57715f492010519147cc2652fbc38202c18a6ee90910160405180910390a25b005b600080fd5b34801561025257600080fd5b506004545b6040519081526020015b60405180910390f35b34801561027657600080fd5b5061023f61028536600461123d565b610503565b34801561029657600080fd5b5061023f6102a53660046112f2565b6105b2565b61023f61088b565b3480156102be57600080fd5b5061023f610a07565b3480156102d357600080fd5b506102e76102e23660046112f2565b610b80565b6040516001600160a01b039091168152602001610261565b34801561030b57600080fd5b5061031f61031a36600461130b565b610baa565b604080519485526020850193909352918301526060820152608001610261565b34801561034b57600080fd5b5061025760015481565b61023f610c32565b34801561036957600080fd5b5061025760025481565b34801561037f57600080fd5b506000546102e7906001600160a01b031681565b34801561039f57600080fd5b5061031f6103ae36600461130b565b600360208190526000918252604090912080546001820154600283015492909301549092919084565b3480156103e357600080fd5b5061023f6103f236600461133b565b610dec565b34801561040357600080fd5b506001546002546004544761031f565b34801561041f57600080fd5b5061043361042e3660046112f2565b610f04565b60405161026194939291906113a3565b34801561044f57600080fd5b506102576305f5e10081565b34801561046757600080fd5b50610257600581565b34801561047c57600080fd5b5061025760065481565b6001600160a01b03811660009081526003602081815260408084208151608081018352815481526001820154938101939093526002810154918301919091529182015460608201529091906104da90610fb9565b9050808260030160008282546104f0919061120e565b9091555050426002909201919091555050565b6000546001600160a01b031633146105535760405162461bcd60e51b815260206004820152600e60248201526d139bdd08185d5d1a1bdc9a5e995960921b60448201526064015b60405180910390fd5b60648111156105a45760405162461bcd60e51b815260206004820152601d60248201527f416c6c6f636174696f6e2063616e6e6f74206578636565642031303025000000604482015260640161054a565b6105ae828261102c565b5050565b336000908152600360205260409020546105fd5760405162461bcd60e51b815260206004820152600c60248201526b2737ba10309039ba30b5b2b960a11b604482015260640161054a565b336000908152600360205260409020805482111561065d5760405162461bcd60e51b815260206004820152601a60248201527f496e73756666696369656e74207374616b656420616d6f756e74000000000000604482015260640161054a565b61066633610486565b60038101541561074a57600381018054600091829055426002840155604051909190339083908381818185875af1925050503d80600081146106c4576040519150601f19603f3d011682016040523d82523d6000602084013e6106c9565b606091505b50509050806107125760405162461bcd60e51b8152602060048201526015602482015274165a595b19081d1c985b9cd9995c8819985a5b1959605a1b604482015260640161054a565b60405182815233907fc04825ba3f383b602255d2a13065a68e325c65c9e0ed5d031ea2b06f641873af9060200160405180910390a250505b8181600001600082825461075e91906113d4565b92505081905550816001600082825461077791906113d4565b909155505080546000036107b35761078e336110f1565b3360009081526003602081905260408220828155600181018390556002810183905501555b604051600090339084908381818185875af1925050503d80600081146107f5576040519150601f19603f3d011682016040523d82523d6000602084013e6107fa565b606091505b505090508061084b5760405162461bcd60e51b815260206004820152601760248201527f556e7374616b65207472616e73666572206661696c6564000000000000000000604482015260640161054a565b6040805184815242602082015233917f7fc4727e062e336010f2c282598ef5f14facb3de68cf8195c2f23e1454b2b74e91015b60405180910390a2505050565b6305f5e1003410156108df5760405162461bcd60e51b815260206004820152601760248201527f4d696e696d756d207374616b6520697320312048424152000000000000000000604482015260640161054a565b336000908152600360205260408120549003610986576004805460018181019092557f8a35acfbc15ff81a39ae7d344fd709f28e8600b4aa8c65c6b64bfe7fe36bd19b0180546001600160a01b031916339081179091556040805160808101825234815242602082810182815283850192835260006060850181815296815260039283905294909420925183559251948201949094559251600284015590519101556109b4565b61098f33610486565b33600090815260036020526040812080543492906109ae90849061120e565b90915550505b34600160008282546109c6919061120e565b90915550506040805134815242602082015233917f1449c6dd7851abc30abf37f57715f492010519147cc2652fbc38202c18a6ee90910160405180910390a2565b33600090815260036020526040902054610a525760405162461bcd60e51b815260206004820152600c60248201526b2737ba10309039ba30b5b2b960a11b604482015260640161054a565b610a5b33610486565b3360009081526003602081905260409091209081015480610ab25760405162461bcd60e51b81526020600482015260116024820152704e6f207969656c6420746f20636c61696d60781b604482015260640161054a565b600060038301819055426002840155604051339083908381818185875af1925050503d8060008114610b00576040519150601f19603f3d011682016040523d82523d6000602084013e610b05565b606091505b5050905080610b4e5760405162461bcd60e51b8152602060048201526015602482015274165a595b19081d1c985b9cd9995c8819985a5b1959605a1b604482015260640161054a565b60405182815233907fc04825ba3f383b602255d2a13065a68e325c65c9e0ed5d031ea2b06f641873af9060200161087e565b60048181548110610b9057600080fd5b6000918252602090912001546001600160a01b0316905081565b6001600160a01b038116600090815260036020818152604080842081516080810183528154808252600183015494820194909452600282015492810192909252909201546060830152919081908190610c0281610fb9565b935080602001519250606460058260000151610c1e91906113e7565b610c2891906113fe565b9150509193509193565b60003411610c7b5760405162461bcd60e51b81526020600482015260166024820152754e6f207969656c6420746f206469737472696275746560501b604482015260640161054a565b600060015411610cba5760405162461bcd60e51b815260206004820152600a6024820152694e6f207374616b65727360b01b604482015260640161054a565b3460026000828254610ccc919061120e565b90915550600090505b600454811015610db157600060048281548110610cf457610cf4611420565b60009182526020808320909101546001600160a01b0316808352600390915260409091205490915015610d9e57610d2a81610486565b6001546001600160a01b038216600090815260036020526040812054909190610d5390346113e7565b610d5d91906113fe565b90508060036000846001600160a01b03166001600160a01b031681526020019081526020016000206003016000828254610d97919061120e565b9091555050505b5080610da981611436565b915050610cd5565b50604080513481524260208201527ffe4996cd48c364c468cee70dd6b9061874ff01b05c5ea49311cbcabd9b9cb615910160405180910390a1565b6000546001600160a01b03163314610e375760405162461bcd60e51b815260206004820152600e60248201526d139bdd08185d5d1a1bdc9a5e995960921b604482015260640161054a565b60008281526005602052604090206003015460ff16610e8a5760405162461bcd60e51b815260206004820152600f60248201526e506f6f6c206e6f742061637469766560881b604482015260640161054a565b80471015610eda5760405162461bcd60e51b815260206004820152601a60248201527f496e73756666696369656e74207661756c742062616c616e6365000000000000604482015260640161054a565b60008281526005602052604081206002018054839290610efb90849061120e565b90915550505050565b600560205260009081526040902080548190610f1f9061144f565b80601f0160208091040260200160405190810160405280929190818152602001828054610f4b9061144f565b8015610f985780601f10610f6d57610100808354040283529160200191610f98565b820191906000526020600020905b815481529060010190602001808311610f7b57829003601f168201915b50505050600183015460028401546003909401549293909290915060ff1684565b80516000901580610fcc57506040820151155b15610fd957506000919050565b6000826040015142610feb91906113d4565b90506301e133806000610fff8260646113e7565b8551849061100f906005906113e7565b61101991906113e7565b61102391906113fe565b95945050505050565b60408051608081018252838152602080820184905260008284018190526001606084015260065481526005909152919091208151819061106c90826114d8565b506020820151600182015560408083015160028301556060909201516003909101805460ff191691151591909117905560065490517f3040bbc5c012df6c85e9f1cc10202ceda09051bc16d18aa369bf9ada2ba7716f906110d09085908590611598565b60405180910390a2600680549060006110e883611436565b91905055505050565b60005b6004548110156105ae57816001600160a01b03166004828154811061111b5761111b611420565b6000918252602090912001546001600160a01b0316036111e65760048054611145906001906113d4565b8154811061115557611155611420565b600091825260209091200154600480546001600160a01b03909216918390811061118157611181611420565b9060005260206000200160006101000a8154816001600160a01b0302191690836001600160a01b0316021790555060048054806111c0576111c06115ba565b600082815260209020810160001990810180546001600160a01b03191690550190555050565b806111f081611436565b9150506110f4565b634e487b7160e01b600052601160045260246000fd5b80820180821115611221576112216111f8565b92915050565b634e487b7160e01b600052604160045260246000fd5b6000806040838503121561125057600080fd5b823567ffffffffffffffff8082111561126857600080fd5b818501915085601f83011261127c57600080fd5b81358181111561128e5761128e611227565b604051601f8201601f19908116603f011681019083821181831017156112b6576112b6611227565b816040528281528860208487010111156112cf57600080fd5b826020860160208301376000602093820184015298969091013596505050505050565b60006020828403121561130457600080fd5b5035919050565b60006020828403121561131d57600080fd5b81356001600160a01b038116811461133457600080fd5b9392505050565b6000806040838503121561134e57600080fd5b50508035926020909101359150565b6000815180845260005b8181101561138357602081850181015186830182015201611367565b506000602082860101526020601f19601f83011685010191505092915050565b6080815260006113b6608083018761135d565b60208301959095525060408101929092521515606090910152919050565b81810381811115611221576112216111f8565b8082028115828204841417611221576112216111f8565b60008261141b57634e487b7160e01b600052601260045260246000fd5b500490565b634e487b7160e01b600052603260045260246000fd5b600060018201611448576114486111f8565b5060010190565b600181811c9082168061146357607f821691505b60208210810361148357634e487b7160e01b600052602260045260246000fd5b50919050565b601f8211156114d357600081815260208120601f850160051c810160208610156114b05750805b601f850160051c820191505b818110156114cf578281556001016114bc565b5050505b505050565b815167ffffffffffffffff8111156114f2576114f2611227565b61150681611500845461144f565b84611489565b602080601f83116001811461153b57600084156115235750858301515b600019600386901b1c1916600185901b1785556114cf565b600085815260208120601f198616915b8281101561156a5788860151825594840194600190910190840161154b565b50858210156115885787850151600019600388901b60f8161c191681555b5050505050600190811b01905550565b6040815260006115ab604083018561135d565b90508260208301529392505050565b634e487b7160e01b600052603160045260246000fdfea2646970667358221220855ee87f55cba880450c4402962329e13f5034856469464e4423dd9b560d94b364736f6c63430008140033","opcodes":"PUSH1 0x80 PUSH1 0x40 MSTORE CALLVALUE DUP1 ISZERO PUSH3 0x11 JUMPI PUSH1 0x0 DUP1 REVERT JUMPDEST POP PUSH1 0x0 DUP1 SLOAD PUSH1 0x1 PUSH1 0x1 PUSH1 0xA0 SHL SUB NOT AND CALLER OR SWAP1 SSTORE PUSH1 0x40 DUP1 MLOAD DUP1 DUP3 ADD SWAP1 SWAP2 MSTORE PUSH1 0x16 DUP2 MSTORE PUSH32 0x536D616C6C20427573696E657373204C656E64696E6700000000000000000000 PUSH1 0x20 DUP3 ADD MSTORE PUSH3 0x65 SWAP1 PUSH1 0x28 PUSH3 0xD8 JUMP JUMPDEST PUSH1 0x40 DUP1 MLOAD DUP1 DUP3 ADD SWAP1 SWAP2 MSTORE PUSH1 0x15 DUP2 MSTORE PUSH32 0x477265656E20456E657267792050726F6A656374730000000000000000000000 PUSH1 0x20 DUP3 ADD MSTORE PUSH3 0xA6 SWAP1 PUSH1 0x23 PUSH3 0xD8 JUMP JUMPDEST PUSH1 0x40 DUP1 MLOAD DUP1 DUP3 ADD SWAP1 SWAP2 MSTORE PUSH1 0x8 DUP2 MSTORE PUSH8 0x5265736572766573 PUSH1 0xC0 SHL PUSH1 0x20 DUP3 ADD MSTORE PUSH3 0xD2 SWAP1 PUSH1 0x19 PUSH3 0xD8 JUMP JUMPDEST PUSH3 0x393 JUMP JUMPDEST PUSH1 0x40 DUP1 MLOAD PUSH1 0x80 DUP2 ADD DUP3 MSTORE DUP4 DUP2 MSTORE PUSH1 0x20 DUP1 DUP3 ADD DUP5 SWAP1 MSTORE PUSH1 0x0 DUP3 DUP5 ADD DUP2 SWAP1 MSTORE PUSH1 0x1 PUSH1 0x60 DUP5 ADD MSTORE PUSH1 0x6 SLOAD DUP2 MSTORE PUSH1 0x5 SWAP1 SWAP2 MSTORE SWAP2 SWAP1 SWAP2 KECCAK256 DUP2 MLOAD DUP2 SWAP1 PUSH3 0x11A SWAP1 DUP3 PUSH3 0x248 JUMP JUMPDEST POP PUSH1 0x20 DUP3 ADD MLOAD PUSH1 0x1 DUP3 ADD SSTORE PUSH1 0x40 DUP1 DUP4 ADD MLOAD PUSH1 0x2 DUP4 ADD SSTORE PUSH1 0x60 SWAP1 SWAP3 ADD MLOAD PUSH1 0x3 SWAP1 SWAP2 ADD DUP1 SLOAD PUSH1 0xFF NOT AND SWAP2 ISZERO ISZERO SWAP2 SWAP1 SWAP2 OR SWAP1 SSTORE PUSH1 0x6 SLOAD SWAP1 MLOAD PUSH32 0x3040BBC5C012DF6C85E9F1CC10202CEDA09051BC16D18AA369BF9ADA2BA7716F SWAP1 PUSH3 0x180 SWAP1 DUP6 SWAP1 DUP6 SWAP1 PUSH3 0x314 JUMP JUMPDEST PUSH1 0x40 MLOAD DUP1 SWAP2 SUB SWAP1 LOG2 PUSH1 0x6 DUP1 SLOAD SWAP1 PUSH1 0x0 PUSH3 0x19A DUP4 PUSH3 0x36B JUMP JUMPDEST SWAP2 SWAP1 POP SSTORE POP POP POP JUMP JUMPDEST PUSH4 0x4E487B71 PUSH1 0xE0 SHL PUSH1 0x0 MSTORE PUSH1 0x41 PUSH1 0x4 MSTORE PUSH1 0x24 PUSH1 0x0 REVERT JUMPDEST PUSH1 0x1 DUP2 DUP2 SHR SWAP1 DUP3 AND DUP1 PUSH3 0x1CE JUMPI PUSH1 0x7F DUP3 AND SWAP2 POP JUMPDEST PUSH1 0x20 DUP3 LT DUP2 SUB PUSH3 0x1EF JUMPI PUSH4 0x4E487B71 PUSH1 0xE0 SHL PUSH1 0x0 MSTORE PUSH1 0x22 PUSH1 0x4 MSTORE PUSH1 0x24 PUSH1 0x0 REVERT JUMPDEST POP SWAP2 SWAP1 POP JUMP JUMPDEST PUSH1 0x1F DUP3 GT ISZERO PUSH3 0x243 JUMPI PUSH1 0x0 DUP2 DUP2 MSTORE PUSH1 0x20 DUP2 KECCAK256 PUSH1 0x1F DUP6 ADD PUSH1 0x5 SHR DUP2 ADD PUSH1 0x20 DUP7 LT ISZERO PUSH3 0x21E JUMPI POP DUP1 JUMPDEST PUSH1 0x1F DUP6 ADD PUSH1 0x5 SHR DUP3 ADD SWAP2 POP JUMPDEST DUP2 DUP2 LT ISZERO PUSH3 0x23F JUMPI DUP3 DUP2 SSTORE PUSH1 0x1 ADD PUSH3 0x22A JUMP JUMPDEST POP POP POP JUMPDEST POP POP POP JUMP JUMPDEST DUP2 MLOAD PUSH1 0x1 PUSH1 0x1 PUSH1 0x40 SHL SUB DUP2 GT ISZERO PUSH3 0x264 JUMPI PUSH3 0x264 PUSH3 0x1A3 JUMP JUMPDEST PUSH3 0x27C DUP2 PUSH3 0x275 DUP5 SLOAD PUSH3 0x1B9 JUMP JUMPDEST DUP5 PUSH3 0x1F5 JUMP JUMPDEST PUSH1 0x20 DUP1 PUSH1 0x1F DUP4 GT PUSH1 0x1 DUP2 EQ PUSH3 0x2B4 JUMPI PUSH1 0x0 DUP5 ISZERO PUSH3 0x29B JUMPI POP DUP6 DUP4 ADD MLOAD JUMPDEST PUSH1 0x0 NOT PUSH1 0x3 DUP7 SWAP1 SHL SHR NOT AND PUSH1 0x1 DUP6 SWAP1 SHL OR DUP6 SSTORE PUSH3 0x23F JUMP JUMPDEST PUSH1 0x0 DUP6 DUP2 MSTORE PUSH1 0x20 DUP2 KECCAK256 PUSH1 0x1F NOT DUP7 AND SWAP2 JUMPDEST DUP3 DUP2 LT ISZERO PUSH3 0x2E5 JUMPI DUP9 DUP7 ADD MLOAD DUP3 SSTORE SWAP5 DUP5 ADD SWAP5 PUSH1 0x1 SWAP1 SWAP2 ADD SWAP1 DUP5 ADD PUSH3 0x2C4 JUMP JUMPDEST POP DUP6 DUP3 LT ISZERO PUSH3 0x304 JUMPI DUP8 DUP6 ADD MLOAD PUSH1 0x0 NOT PUSH1 0x3 DUP9 SWAP1 SHL PUSH1 0xF8 AND SHR NOT AND DUP2 SSTORE JUMPDEST POP POP POP POP POP PUSH1 0x1 SWAP1 DUP2 SHL ADD SWAP1 SSTORE POP JUMP JUMPDEST PUSH1 0x40 DUP2 MSTORE PUSH1 0x0 DUP4 MLOAD DUP1 PUSH1 0x40 DUP5 ADD MSTORE PUSH1 0x0 JUMPDEST DUP2 DUP2 LT ISZERO PUSH3 0x344 JUMPI PUSH1 0x20 DUP2 DUP8 ADD DUP2 ADD MLOAD PUSH1 0x60 DUP7 DUP5 ADD ADD MSTORE ADD PUSH3 0x325 JUMP JUMPDEST POP PUSH1 0x0 PUSH1 0x60 DUP3 DUP6 ADD ADD MSTORE PUSH1 0x60 PUSH1 0x1F NOT PUSH1 0x1F DUP4 ADD AND DUP5 ADD ADD SWAP2 POP POP DUP3 PUSH1 0x20 DUP4 ADD MSTORE SWAP4 SWAP3 POP POP POP JUMP JUMPDEST PUSH1 0x0 PUSH1 0x1 DUP3 ADD PUSH3 0x38C JUMPI PUSH4 0x4E487B71 PUSH1 0xE0 SHL PUSH1 0x0 MSTORE PUSH1 0x11 PUSH1 0x4 MSTORE PUSH1 0x24 PUSH1 0x0 REVERT JUMPDEST POP PUSH1 0x1 ADD SWAP1 JUMP JUMPDEST PUSH2 0x1606 DUP1 PUSH3 0x3A3 PUSH1 0x0 CODECOPY PUSH1 0x0 RETURN INVALID PUSH1 0x80 PUSH1 0x40 MSTORE PUSH1 0x4 CALLDATASIZE LT PUSH2 0x10D JUMPI PUSH1 0x0 CALLDATALOAD PUSH1 0xE0 SHR DUP1 PUSH4 0x8C825056 GT PUSH2 0x95 JUMPI DUP1 PUSH4 0xA59AA5A6 GT PUSH2 0x64 JUMPI DUP1 PUSH4 0xA59AA5A6 EQ PUSH2 0x3F7 JUMPI DUP1 PUSH4 0xAC4AFA38 EQ PUSH2 0x413 JUMPI DUP1 PUSH4 0xCB1C2B5C EQ PUSH2 0x443 JUMPI DUP1 PUSH4 0xE852090A EQ PUSH2 0x45B JUMPI DUP1 PUSH4 0xF525CB68 EQ PUSH2 0x470 JUMPI PUSH1 0x0 DUP1 REVERT JUMPDEST DUP1 PUSH4 0x8C825056 EQ PUSH2 0x35D JUMPI DUP1 PUSH4 0x8DA5CB5B EQ PUSH2 0x373 JUMPI DUP1 PUSH4 0x9168AE72 EQ PUSH2 0x393 JUMPI DUP1 PUSH4 0xA53CAAA8 EQ PUSH2 0x3D7 JUMPI PUSH1 0x0 DUP1 REVERT JUMPDEST DUP1 PUSH4 0x406CF229 GT PUSH2 0xDC JUMPI DUP1 PUSH4 0x406CF229 EQ PUSH2 0x2B2 JUMPI DUP1 PUSH4 0x459598A2 EQ PUSH2 0x2C7 JUMPI DUP1 PUSH4 0x733BDEF0 EQ PUSH2 0x2FF JUMPI DUP1 PUSH4 0x817B1CD2 EQ PUSH2 0x33F JUMPI DUP1 PUSH4 0x8A570A12 EQ PUSH2 0x355 JUMPI PUSH1 0x0 DUP1 REVERT JUMPDEST DUP1 PUSH4 0x1319649D EQ PUSH2 0x246 JUMPI DUP1 PUSH4 0x26FC66AB EQ PUSH2 0x26A JUMPI DUP1 PUSH4 0x2E17DE78 EQ PUSH2 0x28A JUMPI DUP1 PUSH4 0x3A4B66F1 EQ PUSH2 0x2AA JUMPI PUSH1 0x0 DUP1 REVERT JUMPDEST CALLDATASIZE PUSH2 0x241 JUMPI CALLVALUE ISZERO PUSH2 0x23F JUMPI CALLER PUSH1 0x0 SWAP1 DUP2 MSTORE PUSH1 0x3 PUSH1 0x20 MSTORE PUSH1 0x40 DUP2 KECCAK256 SLOAD SWAP1 SUB PUSH2 0x1BF JUMPI PUSH1 0x4 DUP1 SLOAD PUSH1 0x1 DUP2 DUP2 ADD SWAP1 SWAP3 SSTORE PUSH32 0x8A35ACFBC15FF81A39AE7D344FD709F28E8600B4AA8C65C6B64BFE7FE36BD19B ADD DUP1 SLOAD PUSH1 0x1 PUSH1 0x1 PUSH1 0xA0 SHL SUB NOT AND CALLER SWAP1 DUP2 OR SWAP1 SWAP2 SSTORE PUSH1 0x40 DUP1 MLOAD PUSH1 0x80 DUP2 ADD DUP3 MSTORE CALLVALUE DUP2 MSTORE TIMESTAMP PUSH1 0x20 DUP3 DUP2 ADD DUP3 DUP2 MSTORE DUP4 DUP6 ADD SWAP3 DUP4 MSTORE PUSH1 0x0 PUSH1 0x60 DUP6 ADD DUP2 DUP2 MSTORE SWAP7 DUP2 MSTORE PUSH1 0x3 SWAP3 DUP4 SWAP1 MSTORE SWAP5 SWAP1 SWAP5 KECCAK256 SWAP3 MLOAD DUP4 SSTORE SWAP3 MLOAD SWAP5 DUP3 ADD SWAP5 SWAP1 SWAP5 SSTORE SWAP3 MLOAD PUSH1 0x2 DUP5 ADD SSTORE SWAP1 MLOAD SWAP2 ADD SSTORE PUSH2 0x1ED JUMP JUMPDEST PUSH2 0x1C8 CALLER PUSH2 0x486 JUMP JUMPDEST CALLER PUSH1 0x0 SWAP1 DUP2 MSTORE PUSH1 0x3 PUSH1 0x20 MSTORE PUSH1 0x40 DUP2 KECCAK256 DUP1 SLOAD CALLVALUE SWAP3 SWAP1 PUSH2 0x1E7 SWAP1 DUP5 SWAP1 PUSH2 0x120E JUMP JUMPDEST SWAP1 SWAP2 SSTORE POP POP JUMPDEST CALLVALUE PUSH1 0x1 PUSH1 0x0 DUP3 DUP3 SLOAD PUSH2 0x1FF SWAP2 SWAP1 PUSH2 0x120E JUMP JUMPDEST SWAP1 SWAP2 SSTORE POP POP PUSH1 0x40 DUP1 MLOAD CALLVALUE DUP2 MSTORE TIMESTAMP PUSH1 0x20 DUP3 ADD MSTORE CALLER SWAP2 PUSH32 0x1449C6DD7851ABC30ABF37F57715F492010519147CC2652FBC38202C18A6EE90 SWAP2 ADD PUSH1 0x40 MLOAD DUP1 SWAP2 SUB SWAP1 LOG2 JUMPDEST STOP JUMPDEST PUSH1 0x0 DUP1 REVERT JUMPDEST CALLVALUE DUP1 ISZERO PUSH2 0x252 JUMPI PUSH1 0x0 DUP1 REVERT JUMPDEST POP PUSH1 0x4 SLOAD JUMPDEST PUSH1 0x40 MLOAD SWAP1 DUP2 MSTORE PUSH1 0x20 ADD JUMPDEST PUSH1 0x40 MLOAD DUP1 SWAP2 SUB SWAP1 RETURN JUMPDEST CALLVALUE DUP1 ISZERO PUSH2 0x276 JUMPI PUSH1 0x0 DUP1 REVERT JUMPDEST POP PUSH2 0x23F PUSH2 0x285 CALLDATASIZE PUSH1 0x4 PUSH2 0x123D JUMP JUMPDEST PUSH2 0x503 JUMP JUMPDEST CALLVALUE DUP1 ISZERO PUSH2 0x296 JUMPI PUSH1 0x0 DUP1 REVERT JUMPDEST POP PUSH2 0x23F PUSH2 0x2A5 CALLDATASIZE PUSH1 0x4 PUSH2 0x12F2 JUMP JUMPDEST PUSH2 0x5B2 JUMP JUMPDEST PUSH2 0x23F PUSH2 0x88B JUMP JUMPDEST CALLVALUE DUP1 ISZERO PUSH2 0x2BE JUMPI PUSH1 0x0 DUP1 REVERT JUMPDEST POP PUSH2 0x23F PUSH2 0xA07 JUMP JUMPDEST CALLVALUE DUP1 ISZERO PUSH2 0x2D3 JUMPI PUSH1 0x0 DUP1 REVERT JUMPDEST POP PUSH2 0x2E7 PUSH2 0x2E2 CALLDATASIZE PUSH1 0x4 PUSH2 0x12F2 JUMP JUMPDEST PUSH2 0xB80 JUMP JUMPDEST PUSH1 0x40 MLOAD PUSH1 0x1 PUSH1 0x1 PUSH1 0xA0 SHL SUB SWAP1 SWAP2 AND DUP2 MSTORE PUSH1 0x20 ADD PUSH2 0x261 JUMP JUMPDEST CALLVALUE DUP1 ISZERO PUSH2 0x30B JUMPI PUSH1 0x0 DUP1 REVERT JUMPDEST POP PUSH2 0x31F PUSH2 0x31A CALLDATASIZE PUSH1 0x4 PUSH2 0x130B JUMP JUMPDEST PUSH2 0xBAA JUMP JUMPDEST PUSH1 0x40 DUP1 MLOAD SWAP5 DUP6 MSTORE PUSH1 0x20 DUP6 ADD SWAP4 SWAP1 SWAP4 MSTORE SWAP2 DUP4 ADD MSTORE PUSH1 0x60 DUP3 ADD MSTORE PUSH1 0x80 ADD PUSH2 0x261 JUMP JUMPDEST CALLVALUE DUP1 ISZERO PUSH2 0x34B JUMPI PUSH1 0x0 DUP1 REVERT JUMPDEST POP PUSH2 0x257 PUSH1 0x1 SLOAD DUP2 JUMP JUMPDEST PUSH2 0x23F PUSH2 0xC32 JUMP JUMPDEST CALLVALUE DUP1 ISZERO PUSH2 0x369 JUMPI PUSH1 0x0 DUP1 REVERT JUMPDEST POP PUSH2 0x257 PUSH1 0x2 SLOAD DUP2 JUMP JUMPDEST CALLVALUE DUP1 ISZERO PUSH2 0x37F JUMPI PUSH1 0x0 DUP1 REVERT JUMPDEST POP PUSH1 0x0 SLOAD PUSH2 0x2E7 SWAP1 PUSH1 0x1 PUSH1 0x1 PUSH1 0xA0 SHL SUB AND DUP2 JUMP JUMPDEST CALLVALUE DUP1 ISZERO PUSH2 0x39F JUMPI PUSH1 0x0 DUP1 REVERT JUMPDEST POP PUSH2 0x31F PUSH2 0x3AE CALLDATASIZE PUSH1 0x4 PUSH2 0x130B JUMP JUMPDEST PUSH1 0x3 PUSH1 0x20 DUP2 SWAP1 MSTORE PUSH1 0x0 SWAP2 DUP3 MSTORE PUSH1 0x40 SWAP1 SWAP2 KECCAK256 DUP1 SLOAD PUSH1 0x1 DUP3 ADD SLOAD PUSH1 0x2 DUP4 ADD SLOAD SWAP3 SWAP1 SWAP4 ADD SLOAD SWAP1 SWAP3 SWAP2 SWAP1 DUP5 JUMP JUMPDEST CALLVALUE DUP1 ISZERO PUSH2 0x3E3 JUMPI PUSH1 0x0 DUP1 REVERT JUMPDEST POP PUSH2 0x23F PUSH2 0x3F2 CALLDATASIZE PUSH1 0x4 PUSH2 0x133B JUMP JUMPDEST PUSH2 0xDEC JUMP JUMPDEST CALLVALUE DUP1 ISZERO PUSH2 0x403 JUMPI PUSH1 0x0 DUP1 REVERT JUMPDEST POP PUSH1 0x1 SLOAD PUSH1 0x2 SLOAD PUSH1 0x4 SLOAD SELFBALANCE PUSH2 0x31F JUMP JUMPDEST CALLVALUE DUP1 ISZERO PUSH2 0x41F JUMPI PUSH1 0x0 DUP1 REVERT JUMPDEST POP PUSH2 0x433 PUSH2 0x42E CALLDATASIZE PUSH1 0x4 PUSH2 0x12F2 JUMP JUMPDEST PUSH2 0xF04 JUMP JUMPDEST PUSH1 0x40 MLOAD PUSH2 0x261 SWAP5 SWAP4 SWAP3 SWAP2 SWAP1 PUSH2 0x13A3 JUMP JUMPDEST CALLVALUE DUP1 ISZERO PUSH2 0x44F JUMPI PUSH1 0x0 DUP1 REVERT JUMPDEST POP PUSH2 0x257 PUSH4 0x5F5E100 DUP2 JUMP JUMPDEST CALLVALUE DUP1 ISZERO PUSH2 0x467 JUMPI PUSH1 0x0 DUP1 REVERT JUMPDEST POP PUSH2 0x257 PUSH1 0x5 DUP2 JUMP JUMPDEST CALLVALUE DUP1 ISZERO PUSH2 0x47C JUMPI PUSH1 0x0 DUP1 REVERT JUMPDEST POP PUSH2 0x257 PUSH1 0x6 SLOAD DUP2 JUMP JUMPDEST PUSH1 0x1 PUSH1 0x1 PUSH1 0xA0 SHL SUB DUP2 AND PUSH1 0x0 SWAP1 DUP2 MSTORE PUSH1 0x3 PUSH1 0x20 DUP2 DUP2 MSTORE PUSH1 0x40 DUP1 DUP5 KECCAK256 DUP2 MLOAD PUSH1 0x80 DUP2 ADD DUP4 MSTORE DUP2 SLOAD DUP2 MSTORE PUSH1 0x1 DUP3 ADD SLOAD SWAP4 DUP2 ADD SWAP4 SWAP1 SWAP4 MSTORE PUSH1 0x2 DUP2 ADD SLOAD SWAP2 DUP4 ADD SWAP2 SWAP1 SWAP2 MSTORE SWAP2 DUP3 ADD SLOAD PUSH1 0x60 DUP3 ADD MSTORE SWAP1 SWAP2 SWAP1 PUSH2 0x4DA SWAP1 PUSH2 0xFB9 JUMP JUMPDEST SWAP1 POP DUP1 DUP3 PUSH1 0x3 ADD PUSH1 0x0 DUP3 DUP3 SLOAD PUSH2 0x4F0 SWAP2 SWAP1 PUSH2 0x120E JUMP JUMPDEST SWAP1 SWAP2 SSTORE POP POP TIMESTAMP PUSH1 0x2 SWAP1 SWAP3 ADD SWAP2 SWAP1 SWAP2 SSTORE POP POP JUMP JUMPDEST PUSH1 0x0 SLOAD PUSH1 0x1 PUSH1 0x1 PUSH1 0xA0 SHL SUB AND CALLER EQ PUSH2 0x553 JUMPI PUSH1 0x40 MLOAD PUSH3 0x461BCD PUSH1 0xE5 SHL DUP2 MSTORE PUSH1 0x20 PUSH1 0x4 DUP3 ADD MSTORE PUSH1 0xE PUSH1 0x24 DUP3 ADD MSTORE PUSH14 0x139BDD08185D5D1A1BDC9A5E9959 PUSH1 0x92 SHL PUSH1 0x44 DUP3 ADD MSTORE PUSH1 0x64 ADD JUMPDEST PUSH1 0x40 MLOAD DUP1 SWAP2 SUB SWAP1 REVERT JUMPDEST PUSH1 0x64 DUP2 GT ISZERO PUSH2 0x5A4 JUMPI PUSH1 0x40 MLOAD PUSH3 0x461BCD PUSH1 0xE5 SHL DUP2 MSTORE PUSH1 0x20 PUSH1 0x4 DUP3 ADD MSTORE PUSH1 0x1D PUSH1 0x24 DUP3 ADD MSTORE PUSH32 0x416C6C6F636174696F6E2063616E6E6F74206578636565642031303025000000 PUSH1 0x44 DUP3 ADD MSTORE PUSH1 0x64 ADD PUSH2 0x54A JUMP JUMPDEST PUSH2 0x5AE DUP3 DUP3 PUSH2 0x102C JUMP JUMPDEST POP POP JUMP JUMPDEST CALLER PUSH1 0x0 SWAP1 DUP2 MSTORE PUSH1 0x3 PUSH1 0x20 MSTORE PUSH1 0x40 SWAP1 KECCAK256 SLOAD PUSH2 0x5FD JUMPI PUSH1 0x40 MLOAD PUSH3 0x461BCD PUSH1 0xE5 SHL DUP2 MSTORE PUSH1 0x20 PUSH1 0x4 DUP3 ADD MSTORE PUSH1 0xC PUSH1 0x24 DUP3 ADD MSTORE PUSH12 0x2737BA10309039BA30B5B2B9 PUSH1 0xA1 SHL PUSH1 0x44 DUP3 ADD MSTORE PUSH1 0x64 ADD PUSH2 0x54A JUMP JUMPDEST CALLER PUSH1 0x0 SWAP1 DUP2 MSTORE PUSH1 0x3 PUSH1 0x20 MSTORE PUSH1 0x40 SWAP1 KECCAK256 DUP1 SLOAD DUP3 GT ISZERO PUSH2 0x65D JUMPI PUSH1 0x40 MLOAD PUSH3 0x461BCD PUSH1 0xE5 SHL DUP2 MSTORE PUSH1 0x20 PUSH1 0x4 DUP3 ADD MSTORE PUSH1 0x1A PUSH1 0x24 DUP3 ADD MSTORE PUSH32 0x496E73756666696369656E74207374616B656420616D6F756E74000000000000 PUSH1 0x44 DUP3 ADD MSTORE PUSH1 0x64 ADD PUSH2 0x54A JUMP JUMPDEST PUSH2 0x666 CALLER PUSH2 0x486 JUMP JUMPDEST PUSH1 0x3 DUP2 ADD SLOAD ISZERO PUSH2 0x74A JUMPI PUSH1 0x3 DUP2 ADD DUP1 SLOAD PUSH1 0x0 SWAP2 DUP3 SWAP1 SSTORE TIMESTAMP PUSH1 0x2 DUP5 ADD SSTORE PUSH1 0x40 MLOAD SWAP1 SWAP2 SWAP1 CALLER SWAP1 DUP4 SWAP1 DUP4 DUP2 DUP2 DUP2 DUP6 DUP8 GAS CALL SWAP3 POP POP POP RETURNDATASIZE DUP1 PUSH1 0x0 DUP2 EQ PUSH2 0x6C4 JUMPI PUSH1 0x40 MLOAD SWAP2 POP PUSH1 0x1F NOT PUSH1 0x3F RETURNDATASIZE ADD AND DUP3 ADD PUSH1 0x40 MSTORE RETURNDATASIZE DUP3 MSTORE RETURNDATASIZE PUSH1 0x0 PUSH1 0x20 DUP5 ADD RETURNDATACOPY PUSH2 0x6C9 JUMP JUMPDEST PUSH1 0x60 SWAP2 POP JUMPDEST POP POP SWAP1 POP DUP1 PUSH2 0x712 JUMPI PUSH1 0x40 MLOAD PUSH3 0x461BCD PUSH1 0xE5 SHL DUP2 MSTORE PUSH1 0x20 PUSH1 0x4 DUP3 ADD MSTORE PUSH1 0x15 PUSH1 0x24 DUP3 ADD MSTORE PUSH21 0x165A595B19081D1C985B9CD9995C8819985A5B1959 PUSH1 0x5A SHL PUSH1 0x44 DUP3 ADD MSTORE PUSH1 0x64 ADD PUSH2 0x54A JUMP JUMPDEST PUSH1 0x40 MLOAD DUP3 DUP2 MSTORE CALLER SWAP1 PUSH32 0xC04825BA3F383B602255D2A13065A68E325C65C9E0ED5D031EA2B06F641873AF SWAP1 PUSH1 0x20 ADD PUSH1 0x40 MLOAD DUP1 SWAP2 SUB SWAP1 LOG2 POP POP JUMPDEST DUP2 DUP2 PUSH1 0x0 ADD PUSH1 0x0 DUP3 DUP3 SLOAD PUSH2 0x75E SWAP2 SWAP1 PUSH2 0x13D4 JUMP JUMPDEST SWAP3 POP POP DUP2 SWAP1 SSTORE POP DUP2 PUSH1 0x1 PUSH1 0x0 DUP3 DUP3 SLOAD PUSH2 0x777 SWAP2 SWAP1 PUSH2 0x13D4 JUMP JUMPDEST SWAP1 SWAP2 SSTORE POP POP DUP1 SLOAD PUSH1 0x0 SUB PUSH2 0x7B3 JUMPI PUSH2 0x78E CALLER PUSH2 0x10F1 JUMP JUMPDEST CALLER PUSH1 0x0 SWAP1 DUP2 MSTORE PUSH1 0x3 PUSH1 0x20 DUP2 SWAP1 MSTORE PUSH1 0x40 DUP3 KECCAK256 DUP3 DUP2 SSTORE PUSH1 0x1 DUP2 ADD DUP4 SWAP1 SSTORE PUSH1 0x2 DUP2 ADD DUP4 SWAP1 SSTORE ADD SSTORE JUMPDEST PUSH1 0x40 MLOAD PUSH1 0x0 SWAP1 CALLER SWAP1 DUP5 SWAP1 DUP4 DUP2 DUP2 DUP2 DUP6 DUP8 GAS CALL SWAP3 POP POP POP RETURNDATASIZE DUP1 PUSH1 0x0 DUP2 EQ PUSH2 0x7F5 JUMPI PUSH1 0x40 MLOAD SWAP2 POP PUSH1 0x1F NOT PUSH1 0x3F RETURNDATASIZE ADD AND DUP3 ADD PUSH1 0x40 MSTORE RETURNDATASIZE DUP3 MSTORE RETURNDATASIZE PUSH1 0x0 PUSH1 0x20 DUP5 ADD RETURNDATACOPY PUSH2 0x7FA JUMP JUMPDEST PUSH1 0x60 SWAP2 POP JUMPDEST POP POP SWAP1 POP DUP1 PUSH2 0x84B JUMPI PUSH1 0x40 MLOAD PUSH3 0x461BCD PUSH1 0xE5 SHL DUP2 MSTORE PUSH1 0x20 PUSH1 0x4 DUP3 ADD MSTORE PUSH1 0x17 PUSH1 0x24 DUP3 ADD MSTORE PUSH32 0x556E7374616B65207472616E73666572206661696C6564000000000000000000 PUSH1 0x44 DUP3 ADD MSTORE PUSH1 0x64 ADD PUSH2 0x54A JUMP JUMPDEST PUSH1 0x40 DUP1 MLOAD DUP5 DUP2 MSTORE TIMESTAMP PUSH1 0x20 DUP3 ADD MSTORE CALLER SWAP2 PUSH32 0x7FC4727E062E336010F2C282598EF5F14FACB3DE68CF8195C2F23E1454B2B74E SWAP2 ADD JUMPDEST PUSH1 0x40 MLOAD DUP1 SWAP2 SUB SWAP1 LOG2 POP POP POP JUMP JUMPDEST PUSH4 0x5F5E100 CALLVALUE LT ISZERO PUSH2 0x8DF JUMPI PUSH1 0x40 MLOAD PUSH3 0x461BCD PUSH1 0xE5 SHL DUP2 MSTORE PUSH1 0x20 PUSH1 0x4 DUP3 ADD MSTORE PUSH1 0x17 PUSH1 0x24 DUP3 ADD MSTORE PUSH32 0x4D696E696D756D207374616B6520697320312048424152000000000000000000 PUSH1 0x44 DUP3 ADD MSTORE PUSH1 0x64 ADD PUSH2 0x54A JUMP JUMPDEST CALLER PUSH1 0x0 SWAP1 DUP2 MSTORE PUSH1 0x3 PUSH1 0x20 MSTORE PUSH1 0x40 DUP2 KECCAK256 SLOAD SWAP1 SUB PUSH2 0x986 JUMPI PUSH1 0x4 DUP1 SLOAD PUSH1 0x1 DUP2 DUP2 ADD SWAP1 SWAP3 SSTORE PUSH32 0x8A35ACFBC15FF81A39AE7D344FD709F28E8600B4AA8C65C6B64BFE7FE36BD19B ADD DUP1 SLOAD PUSH1 0x1 PUSH1 0x1 PUSH1 0xA0 SHL SUB NOT AND CALLER SWAP1 DUP2 OR SWAP1 SWAP2 SSTORE PUSH1 0x40 DUP1 MLOAD PUSH1 0x80 DUP2 ADD DUP3 MSTORE CALLVALUE DUP2 MSTORE TIMESTAMP PUSH1 0x20 DUP3 DUP2 ADD DUP3 DUP2 MSTORE DUP4 DUP6 ADD SWAP3 DUP4 MSTORE PUSH1 0x0 PUSH1 0x60 DUP6 ADD DUP2 DUP2 MSTORE SWAP7 DUP2 MSTORE PUSH1 0x3 SWAP3 DUP4 SWAP1 MSTORE SWAP5 SWAP1 SWAP5 KECCAK256 SWAP3 MLOAD DUP4 SSTORE SWAP3 MLOAD SWAP5 DUP3 ADD SWAP5 SWAP1 SWAP5 SSTORE SWAP3 MLOAD PUSH1 0x2 DUP5 ADD SSTORE SWAP1 MLOAD SWAP2 ADD SSTORE PUSH2 0x9B4 JUMP JUMPDEST PUSH2 0x98F CALLER PUSH2 0x486 JUMP JUMPDEST CALLER PUSH1 0x0 SWAP1 DUP2 MSTORE PUSH1 0x3 PUSH1 0x20 MSTORE PUSH1 0x40 DUP2 KECCAK256 DUP1 SLOAD CALLVALUE SWAP3 SWAP1 PUSH2 0x9AE SWAP1 DUP5 SWAP1 PUSH2 0x120E JUMP JUMPDEST SWAP1 SWAP2 SSTORE POP POP JUMPDEST CALLVALUE PUSH1 0x1 PUSH1 0x0 DUP3 DUP3 SLOAD PUSH2 0x9C6 SWAP2 SWAP1 PUSH2 0x120E JUMP JUMPDEST SWAP1 SWAP2 SSTORE POP POP PUSH1 0x40 DUP1 MLOAD CALLVALUE DUP2 MSTORE TIMESTAMP PUSH1 0x20 DUP3 ADD MSTORE CALLER SWAP2 PUSH32 0x1449C6DD7851ABC30ABF37F57715F492010519147CC2652FBC38202C18A6EE90 SWAP2 ADD PUSH1 0x40 MLOAD DUP1 SWAP2 SUB SWAP1 LOG2 JUMP JUMPDEST CALLER PUSH1 0x0 SWAP1 DUP2 MSTORE PUSH1 0x3 PUSH1 0x20 MSTORE PUSH1 0x40 SWAP1 KECCAK256 SLOAD PUSH2 0xA52 JUMPI PUSH1 0x40 MLOAD PUSH3 0x461BCD PUSH1 0xE5 SHL DUP2 MSTORE PUSH1 0x20 PUSH1 0x4 DUP3 ADD MSTORE PUSH1 0xC PUSH1 0x24 DUP3 ADD MSTORE PUSH12 0x2737BA10309039BA30B5B2B9 PUSH1 0xA1 SHL PUSH1 0x44 DUP3 ADD MSTORE PUSH1 0x64 ADD PUSH2 0x54A JUMP JUMPDEST PUSH2 0xA5B CALLER PUSH2 0x486 JUMP JUMPDEST CALLER PUSH1 0x0 SWAP1 DUP2 MSTORE PUSH1 0x3 PUSH1 0x20 DUP2 SWAP1 MSTORE PUSH1 0x40 SWAP1 SWAP2 KECCAK256 SWAP1 DUP2 ADD SLOAD DUP1 PUSH2 0xAB2 JUMPI PUSH1 0x40 MLOAD PUSH3 0x461BCD PUSH1 0xE5 SHL DUP2 MSTORE PUSH1 0x20 PUSH1 0x4 DUP3 ADD MSTORE PUSH1 0x11 PUSH1 0x24 DUP3 ADD MSTORE PUSH17 0x4E6F207969656C6420746F20636C61696D PUSH1 0x78 SHL PUSH1 0x44 DUP3 ADD MSTORE PUSH1 0x64 ADD PUSH2 0x54A JUMP JUMPDEST PUSH1 0x0 PUSH1 0x3 DUP4 ADD DUP2 SWAP1 SSTORE TIMESTAMP PUSH1 0x2 DUP5 ADD SSTORE PUSH1 0x40 MLOAD CALLER SWAP1 DUP4 SWAP1 DUP4 DUP2 DUP2 DUP2 DUP6 DUP8 GAS CALL SWAP3 POP POP POP RETURNDATASIZE DUP1 PUSH1 0x0 DUP2 EQ PUSH2 0xB00 JUMPI PUSH1 0x40 MLOAD SWAP2 POP PUSH1 0x1F NOT PUSH1 0x3F RETURNDATASIZE ADD AND DUP3 ADD PUSH1 0x40 MSTORE RETURNDATASIZE DUP3 MSTORE RETURNDATASIZE PUSH1 0x0 PUSH1 0x20 DUP5 ADD RETURNDATACOPY PUSH2 0xB05 JUMP JUMPDEST PUSH1 0x60 SWAP2 POP JUMPDEST POP POP SWAP1 POP DUP1 PUSH2 0xB4E JUMPI PUSH1 0x40 MLOAD PUSH3 0x461BCD PUSH1 0xE5 SHL DUP2 MSTORE PUSH1 0x20 PUSH1 0x4 DUP3 ADD MSTORE PUSH1 0x15 PUSH1 0x24 DUP3 ADD MSTORE PUSH21 0x165A595B19081D1C985B9CD9995C8819985A5B1959 PUSH1 0x5A SHL PUSH1 0x44 DUP3 ADD MSTORE PUSH1 0x64 ADD PUSH2 0x54A JUMP JUMPDEST PUSH1 0x40 MLOAD DUP3 DUP2 MSTORE CALLER SWAP1 PUSH32 0xC04825BA3F383B602255D2A13065A68E325C65C9E0ED5D031EA2B06F641873AF SWAP1 PUSH1 0x20 ADD PUSH2 0x87E JUMP JUMPDEST PUSH1 0x4 DUP2 DUP2 SLOAD DUP2 LT PUSH2 0xB90 JUMPI PUSH1 0x0 DUP1 REVERT JUMPDEST PUSH1 0x0 SWAP2 DUP3 MSTORE PUSH1 0x20 SWAP1 SWAP2 KECCAK256 ADD SLOAD PUSH1 0x1 PUSH1 0x1 PUSH1 0xA0 SHL SUB AND SWAP1 POP DUP2 JUMP JUMPDEST PUSH1 0x1 PUSH1 0x1 PUSH1 0xA0 SHL SUB DUP2 AND PUSH1 0x0 SWAP1 DUP2 MSTORE PUSH1 0x3 PUSH1 0x20 DUP2 DUP2 MSTORE PUSH1 0x40 DUP1 DUP5 KECCAK256 DUP2 MLOAD PUSH1 0x80 DUP2 ADD DUP4 MSTORE DUP2 SLOAD DUP1 DUP3 MSTORE PUSH1 0x1 DUP4 ADD SLOAD SWAP5 DUP3 ADD SWAP5 SWAP1 SWAP5 MSTORE PUSH1 0x2 DUP3 ADD SLOAD SWAP3 DUP2 ADD SWAP3 SWAP1 SWAP3 MSTORE SWAP1 SWAP3 ADD SLOAD PUSH1 0x60 DUP4 ADD MSTORE SWAP2 SWAP1 DUP2 SWAP1 DUP2 SWAP1 PUSH2 0xC02 DUP2 PUSH2 0xFB9 JUMP JUMPDEST SWAP4 POP DUP1 PUSH1 0x20 ADD MLOAD SWAP3 POP PUSH1 0x64 PUSH1 0x5 DUP3 PUSH1 0x0 ADD MLOAD PUSH2 0xC1E SWAP2 SWAP1 PUSH2 0x13E7 JUMP JUMPDEST PUSH2 0xC28 SWAP2 SWAP1 PUSH2 0x13FE JUMP JUMPDEST SWAP2 POP POP SWAP2 SWAP4 POP SWAP2 SWAP4 JUMP JUMPDEST PUSH1 0x0 CALLVALUE GT PUSH2 0xC7B JUMPI PUSH1 0x40 MLOAD PUSH3 0x461BCD PUSH1 0xE5 SHL DUP2 MSTORE PUSH1 0x20 PUSH1 0x4 DUP3 ADD MSTORE PUSH1 0x16 PUSH1 0x24 DUP3 ADD MSTORE PUSH22 0x4E6F207969656C6420746F2064697374726962757465 PUSH1 0x50 SHL PUSH1 0x44 DUP3 ADD MSTORE PUSH1 0x64 ADD PUSH2 0x54A JUMP JUMPDEST PUSH1 0x0 PUSH1 0x1 SLOAD GT PUSH2 0xCBA JUMPI PUSH1 0x40 MLOAD PUSH3 0x461BCD PUSH1 0xE5 SHL DUP2 MSTORE PUSH1 0x20 PUSH1 0x4 DUP3 ADD MSTORE PUSH1 0xA PUSH1 0x24 DUP3 ADD MSTORE PUSH10 0x4E6F207374616B657273 PUSH1 0xB0 SHL PUSH1 0x44 DUP3 ADD MSTORE PUSH1 0x64 ADD PUSH2 0x54A JUMP JUMPDEST CALLVALUE PUSH1 0x2 PUSH1 0x0 DUP3 DUP3 SLOAD PUSH2 0xCCC SWAP2 SWAP1 PUSH2 0x120E JUMP JUMPDEST SWAP1 SWAP2 SSTORE POP PUSH1 0x0 SWAP1 POP JUMPDEST PUSH1 0x4 SLOAD DUP2 LT ISZERO PUSH2 0xDB1 JUMPI PUSH1 0x0 PUSH1 0x4 DUP3 DUP2 SLOAD DUP2 LT PUSH2 0xCF4 JUMPI PUSH2 0xCF4 PUSH2 0x1420 JUMP JUMPDEST PUSH1 0x0 SWAP2 DUP3 MSTORE PUSH1 0x20 DUP1 DUP4 KECCAK256 SWAP1 SWAP2 ADD SLOAD PUSH1 0x1 PUSH1 0x1 PUSH1 0xA0 SHL SUB AND DUP1 DUP4 MSTORE PUSH1 0x3 SWAP1 SWAP2 MSTORE PUSH1 0x40 SWAP1 SWAP2 KECCAK256 SLOAD SWAP1 SWAP2 POP ISZERO PUSH2 0xD9E JUMPI PUSH2 0xD2A DUP2 PUSH2 0x486 JUMP JUMPDEST PUSH1 0x1 SLOAD PUSH1 0x1 PUSH1 0x1 PUSH1 0xA0 SHL SUB DUP3 AND PUSH1 0x0 SWAP1 DUP2 MSTORE PUSH1 0x3 PUSH1 0x20 MSTORE PUSH1 0x40 DUP2 KECCAK256 SLOAD SWAP1 SWAP2 SWAP1 PUSH2 0xD53 SWAP1 CALLVALUE PUSH2 0x13E7 JUMP JUMPDEST PUSH2 0xD5D SWAP2 SWAP1 PUSH2 0x13FE JUMP JUMPDEST SWAP1 POP DUP1 PUSH1 0x3 PUSH1 0x0 DUP5 PUSH1 0x1 PUSH1 0x1 PUSH1 0xA0 SHL SUB AND PUSH1 0x1 PUSH1 0x1 PUSH1 0xA0 SHL SUB AND DUP2 MSTORE PUSH1 0x20 ADD SWAP1 DUP2 MSTORE PUSH1 0x20 ADD PUSH1 0x0 KECCAK256 PUSH1 0x3 ADD PUSH1 0x0 DUP3 DUP3 SLOAD PUSH2 0xD97 SWAP2 SWAP1 PUSH2 0x120E JUMP JUMPDEST SWAP1 SWAP2 SSTORE POP POP POP JUMPDEST POP DUP1 PUSH2 0xDA9 DUP2 PUSH2 0x1436 JUMP JUMPDEST SWAP2 POP POP PUSH2 0xCD5 JUMP JUMPDEST POP PUSH1 0x40 DUP1 MLOAD CALLVALUE DUP2 MSTORE TIMESTAMP PUSH1 0x20 DUP3 ADD MSTORE PUSH32 0xFE4996CD48C364C468CEE70DD6B9061874FF01B05C5EA49311CBCABD9B9CB615 SWAP2 ADD PUSH1 0x40 MLOAD DUP1 SWAP2 SUB SWAP1 LOG1 JUMP JUMPDEST PUSH1 0x0 SLOAD PUSH1 0x1 PUSH1 0x1 PUSH1 0xA0 SHL SUB AND CALLER EQ PUSH2 0xE37 JUMPI PUSH1 0x40 MLOAD PUSH3 0x461BCD PUSH1 0xE5 SHL DUP2 MSTORE PUSH1 0x20 PUSH1 0x4 DUP3 ADD MSTORE PUSH1 0xE PUSH1 0x24 DUP3 ADD MSTORE PUSH14 0x139BDD08185D5D1A1BDC9A5E9959 PUSH1 0x92 SHL PUSH1 0x44 DUP3 ADD MSTORE PUSH1 0x64 ADD PUSH2 0x54A JUMP JUMPDEST PUSH1 0x0 DUP3 DUP2 MSTORE PUSH1 0x5 PUSH1 0x20 MSTORE PUSH1 0x40 SWAP1 KECCAK256 PUSH1 0x3 ADD SLOAD PUSH1 0xFF AND PUSH2 0xE8A JUMPI PUSH1 0x40 MLOAD PUSH3 0x461BCD PUSH1 0xE5 SHL DUP2 MSTORE PUSH1 0x20 PUSH1 0x4 DUP3 ADD MSTORE PUSH1 0xF PUSH1 0x24 DUP3 ADD MSTORE PUSH15 0x506F6F6C206E6F7420616374697665 PUSH1 0x88 SHL PUSH1 0x44 DUP3 ADD MSTORE PUSH1 0x64 ADD PUSH2 0x54A JUMP JUMPDEST DUP1 SELFBALANCE LT ISZERO PUSH2 0xEDA JUMPI PUSH1 0x40 MLOAD PUSH3 0x461BCD PUSH1 0xE5 SHL DUP2 MSTORE PUSH1 0x20 PUSH1 0x4 DUP3 ADD MSTORE PUSH1 0x1A PUSH1 0x24 DUP3 ADD MSTORE PUSH32 0x496E73756666696369656E74207661756C742062616C616E6365000000000000 PUSH1 0x44 DUP3 ADD MSTORE PUSH1 0x64 ADD PUSH2 0x54A JUMP JUMPDEST PUSH1 0x0 DUP3 DUP2 MSTORE PUSH1 0x5 PUSH1 0x20 MSTORE PUSH1 0x40 DUP2 KECCAK256 PUSH1 0x2 ADD DUP1 SLOAD DUP4 SWAP3 SWAP1 PUSH2 0xEFB SWAP1 DUP5 SWAP1 PUSH2 0x120E JUMP JUMPDEST SWAP1 SWAP2 SSTORE POP POP POP POP JUMP JUMPDEST PUSH1 0x5 PUSH1 0x20 MSTORE PUSH1 0x0 SWAP1 DUP2 MSTORE PUSH1 0x40 SWAP1 KECCAK256 DUP1 SLOAD DUP2 SWAP1 PUSH2 0xF1F SWAP1 PUSH2 0x144F JUMP JUMPDEST DUP1 PUSH1 0x1F ADD PUSH1 0x20 DUP1 SWAP2 DIV MUL PUSH1 0x20 ADD PUSH1 0x40 MLOAD SWAP1 DUP2 ADD PUSH1 0x40 MSTORE DUP1 SWAP3 SWAP2 SWAP1 DUP2 DUP2 MSTORE PUSH1 0x20 ADD DUP3 DUP1 SLOAD PUSH2 0xF4B SWAP1 PUSH2 0x144F JUMP JUMPDEST DUP1 ISZERO PUSH2 0xF98 JUMPI DUP1 PUSH1 0x1F LT PUSH2 0xF6D JUMPI PUSH2 0x100 DUP1 DUP4 SLOAD DIV MUL DUP4 MSTORE SWAP2 PUSH1 0x20 ADD SWAP2 PUSH2 0xF98 JUMP JUMPDEST DUP3 ADD SWAP2 SWAP1 PUSH1 0x0 MSTORE PUSH1 0x20 PUSH1 0x0 KECCAK256 SWAP1 JUMPDEST DUP2 SLOAD DUP2 MSTORE SWAP1 PUSH1 0x1 ADD SWAP1 PUSH1 0x20 ADD DUP1 DUP4 GT PUSH2 0xF7B JUMPI DUP3 SWAP1 SUB PUSH1 0x1F AND DUP3 ADD SWAP2 JUMPDEST POP POP POP POP PUSH1 0x1 DUP4 ADD SLOAD PUSH1 0x2 DUP5 ADD SLOAD PUSH1 0x3 SWAP1 SWAP5 ADD SLOAD SWAP3 SWAP4 SWAP1 SWAP3 SWAP1 SWAP2 POP PUSH1 0xFF AND DUP5 JUMP JUMPDEST DUP1 MLOAD PUSH1 0x0 SWAP1 ISZERO DUP1 PUSH2 0xFCC JUMPI POP PUSH1 0x40 DUP3 ADD MLOAD ISZERO JUMPDEST ISZERO PUSH2 0xFD9 JUMPI POP PUSH1 0x0 SWAP2 SWAP1 POP JUMP JUMPDEST PUSH1 0x0 DUP3 PUSH1 0x40 ADD MLOAD TIMESTAMP PUSH2 0xFEB SWAP2 SWAP1 PUSH2 0x13D4 JUMP JUMPDEST SWAP1 POP PUSH4 0x1E13380 PUSH1 0x0 PUSH2 0xFFF DUP3 PUSH1 0x64 PUSH2 0x13E7 JUMP JUMPDEST DUP6 MLOAD DUP5 SWAP1 PUSH2 0x100F SWAP1 PUSH1 0x5 SWAP1 PUSH2 0x13E7 JUMP JUMPDEST PUSH2 0x1019 SWAP2 SWAP1 PUSH2 0x13E7 JUMP JUMPDEST PUSH2 0x1023 SWAP2 SWAP1 PUSH2 0x13FE JUMP JUMPDEST SWAP6 SWAP5 POP POP POP POP POP JUMP JUMPDEST PUSH1 0x40 DUP1 MLOAD PUSH1 0x80 DUP2 ADD DUP3 MSTORE DUP4 DUP2 MSTORE PUSH1 0x20 DUP1 DUP3 ADD DUP5 SWAP1 MSTORE PUSH1 0x0 DUP3 DUP5 ADD DUP2 SWAP1 MSTORE PUSH1 0x1 PUSH1 0x60 DUP5 ADD MSTORE PUSH1 0x6 SLOAD DUP2 MSTORE PUSH1 0x5 SWAP1 SWAP2 MSTORE SWAP2 SWAP1 SWAP2 KECCAK256 DUP2 MLOAD DUP2 SWAP1 PUSH2 0x106C SWAP1 DUP3 PUSH2 0x14D8 JUMP JUMPDEST POP PUSH1 0x20 DUP3 ADD MLOAD PUSH1 0x1 DUP3 ADD SSTORE PUSH1 0x40 DUP1 DUP4 ADD MLOAD PUSH1 0x2 DUP4 ADD SSTORE PUSH1 0x60 SWAP1 SWAP3 ADD MLOAD PUSH1 0x3 SWAP1 SWAP2 ADD DUP1 SLOAD PUSH1 0xFF NOT AND SWAP2 ISZERO ISZERO SWAP2 SWAP1 SWAP2 OR SWAP1 SSTORE PUSH1 0x6 SLOAD SWAP1 MLOAD PUSH32 0x3040BBC5C012DF6C85E9F1CC10202CEDA09051BC16D18AA369BF9ADA2BA7716F SWAP1 PUSH2 0x10D0 SWAP1 DUP6 SWAP1 DUP6 SWAP1 PUSH2 0x1598 JUMP JUMPDEST PUSH1 0x40 MLOAD DUP1 SWAP2 SUB SWAP1 LOG2 PUSH1 0x6 DUP1 SLOAD SWAP1 PUSH1 0x0 PUSH2 0x10E8 DUP4 PUSH2 0x1436 JUMP JUMPDEST SWAP2 SWAP1 POP SSTORE POP POP POP JUMP JUMPDEST PUSH1 0x0 JUMPDEST PUSH1 0x4 SLOAD DUP2 LT ISZERO PUSH2 0x5AE JUMPI DUP2 PUSH1 0x1 PUSH1 0x1 PUSH1 0xA0 SHL SUB AND PUSH1 0x4 DUP3 DUP2 SLOAD DUP2 LT PUSH2 0x111B JUMPI PUSH2 0x111B PUSH2 0x1420 JUMP JUMPDEST PUSH1 0x0 SWAP2 DUP3 MSTORE PUSH1 0x20 SWAP1 SWAP2 KECCAK256 ADD SLOAD PUSH1 0x1 PUSH1 0x1 PUSH1 0xA0 SHL SUB AND SUB PUSH2 0x11E6 JUMPI PUSH1 0x4 DUP1 SLOAD PUSH2 0x1145 SWAP1 PUSH1 0x1 SWAP1 PUSH2 0x13D4 JUMP JUMPDEST DUP2 SLOAD DUP2 LT PUSH2 0x1155 JUMPI PUSH2 0x1155 PUSH2 0x1420 JUMP JUMPDEST PUSH1 0x0 SWAP2 DUP3 MSTORE PUSH1 0x20 SWAP1 SWAP2 KECCAK256 ADD SLOAD PUSH1 0x4 DUP1 SLOAD PUSH1 0x1 PUSH1 0x1 PUSH1 0xA0 SHL SUB SWAP1 SWAP3 AND SWAP2 DUP4 SWAP1 DUP2 LT PUSH2 0x1181 JUMPI PUSH2 0x1181 PUSH2 0x1420 JUMP JUMPDEST SWAP1 PUSH1 0x0 MSTORE PUSH1 0x20 PUSH1 0x0 KECCAK256 ADD PUSH1 0x0 PUSH2 0x100 EXP DUP2 SLOAD DUP2 PUSH1 0x1 PUSH1 0x1 PUSH1 0xA0 SHL SUB MUL NOT AND SWAP1 DUP4 PUSH1 0x1 PUSH1 0x1 PUSH1 0xA0 SHL SUB AND MUL OR SWAP1 SSTORE POP PUSH1 0x4 DUP1 SLOAD DUP1 PUSH2 0x11C0 JUMPI PUSH2 0x11C0 PUSH2 0x15BA JUMP JUMPDEST PUSH1 0x0 DUP3 DUP2 MSTORE PUSH1 0x20 SWAP1 KECCAK256 DUP2 ADD PUSH1 0x0 NOT SWAP1 DUP2 ADD DUP1 SLOAD PUSH1 0x1 PUSH1 0x1 PUSH1 0xA0 SHL SUB NOT AND SWAP1 SSTORE ADD SWAP1 SSTORE POP POP JUMP JUMPDEST DUP1 PUSH2 0x11F0 DUP2 PUSH2 0x1436 JUMP JUMPDEST SWAP2 POP POP PUSH2 0x10F4 JUMP JUMPDEST PUSH4 0x4E487B71 PUSH1 0xE0 SHL PUSH1 0x0 MSTORE PUSH1 0x11 PUSH1 0x4 MSTORE PUSH1 0x24 PUSH1 0x0 REVERT JUMPDEST DUP1 DUP3 ADD DUP1 DUP3 GT ISZERO PUSH2 0x1221 JUMPI PUSH2 0x1221 PUSH2 0x11F8 JUMP JUMPDEST SWAP3 SWAP2 POP POP JUMP JUMPDEST PUSH4 0x4E487B71 PUSH1 0xE0 SHL PUSH1 0x0 MSTORE PUSH1 0x41 PUSH1 0x4 MSTORE PUSH1 0x24 PUSH1 0x0 REVERT JUMPDEST PUSH1 0x0 DUP1 PUSH1 0x40 DUP4 DUP6 SUB SLT ISZERO PUSH2 0x1250 JUMPI PUSH1 0x0 DUP1 REVERT JUMPDEST DUP3 CALLDATALOAD PUSH8 0xFFFFFFFFFFFFFFFF DUP1 DUP3 GT ISZERO PUSH2 0x1268 JUMPI PUSH1 0x0 DUP1 REVERT JUMPDEST DUP2 DUP6 ADD SWAP2 POP DUP6 PUSH1 0x1F DUP4 ADD SLT PUSH2 0x127C JUMPI PUSH1 0x0 DUP1 REVERT JUMPDEST DUP2 CALLDATALOAD DUP2 DUP2 GT ISZERO PUSH2 0x128E JUMPI PUSH2 0x128E PUSH2 0x1227 JUMP JUMPDEST PUSH1 0x40 MLOAD PUSH1 0x1F DUP3 ADD PUSH1 0x1F NOT SWAP1 DUP2 AND PUSH1 0x3F ADD AND DUP2 ADD SWAP1 DUP4 DUP3 GT DUP2 DUP4 LT OR ISZERO PUSH2 0x12B6 JUMPI PUSH2 0x12B6 PUSH2 0x1227 JUMP JUMPDEST DUP2 PUSH1 0x40 MSTORE DUP3 DUP2 MSTORE DUP9 PUSH1 0x20 DUP5 DUP8 ADD ADD GT ISZERO PUSH2 0x12CF JUMPI PUSH1 0x0 DUP1 REVERT JUMPDEST DUP3 PUSH1 0x20 DUP7 ADD PUSH1 0x20 DUP4 ADD CALLDATACOPY PUSH1 0x0 PUSH1 0x20 SWAP4 DUP3 ADD DUP5 ADD MSTORE SWAP9 SWAP7 SWAP1 SWAP2 ADD CALLDATALOAD SWAP7 POP POP POP POP POP POP JUMP JUMPDEST PUSH1 0x0 PUSH1 0x20 DUP3 DUP5 SUB SLT ISZERO PUSH2 0x1304 JUMPI PUSH1 0x0 DUP1 REVERT JUMPDEST POP CALLDATALOAD SWAP2 SWAP1 POP JUMP JUMPDEST PUSH1 0x0 PUSH1 0x20 DUP3 DUP5 SUB SLT ISZERO PUSH2 0x131D JUMPI PUSH1 0x0 DUP1 REVERT JUMPDEST DUP2 CALLDATALOAD PUSH1 0x1 PUSH1 0x1 PUSH1 0xA0 SHL SUB DUP2 AND DUP2 EQ PUSH2 0x1334 JUMPI PUSH1 0x0 DUP1 REVERT JUMPDEST SWAP4 SWAP3 POP POP POP JUMP JUMPDEST PUSH1 0x0 DUP1 PUSH1 0x40 DUP4 DUP6 SUB SLT ISZERO PUSH2 0x134E JUMPI PUSH1 0x0 DUP1 REVERT JUMPDEST POP POP DUP1 CALLDATALOAD SWAP3 PUSH1 0x20 SWAP1 SWAP2 ADD CALLDATALOAD SWAP2 POP JUMP JUMPDEST PUSH1 0x0 DUP2 MLOAD DUP1 DUP5 MSTORE PUSH1 0x0 JUMPDEST DUP2 DUP2 LT ISZERO PUSH2 0x1383 JUMPI PUSH1 0x20 DUP2 DUP6 ADD DUP2 ADD MLOAD DUP7 DUP4 ADD DUP3 ADD MSTORE ADD PUSH2 0x1367 JUMP JUMPDEST POP PUSH1 0x0 PUSH1 0x20 DUP3 DUP7 ADD ADD MSTORE PUSH1 0x20 PUSH1 0x1F NOT PUSH1 0x1F DUP4 ADD AND DUP6 ADD ADD SWAP2 POP POP SWAP3 SWAP2 POP POP JUMP JUMPDEST PUSH1 0x80 DUP2 MSTORE PUSH1 0x0 PUSH2 0x13B6 PUSH1 0x80 DUP4 ADD DUP8 PUSH2 0x135D JUMP JUMPDEST PUSH1 0x20 DUP4 ADD SWAP6 SWAP1 SWAP6 MSTORE POP PUSH1 0x40 DUP2 ADD SWAP3 SWAP1 SWAP3 MSTORE ISZERO ISZERO PUSH1 0x60 SWAP1 SWAP2 ADD MSTORE SWAP2 SWAP1 POP JUMP JUMPDEST DUP2 DUP2 SUB DUP2 DUP2 GT ISZERO PUSH2 0x1221 JUMPI PUSH2 0x1221 PUSH2 0x11F8 JUMP JUMPDEST DUP1 DUP3 MUL DUP2 ISZERO DUP3 DUP3 DIV DUP5 EQ OR PUSH2 0x1221 JUMPI PUSH2 0x1221 PUSH2 0x11F8 JUMP JUMPDEST PUSH1 0x0 DUP3 PUSH2 0x141B JUMPI PUSH4 0x4E487B71 PUSH1 0xE0 SHL PUSH1 0x0 MSTORE PUSH1 0x12 PUSH1 0x4 MSTORE PUSH1 0x24 PUSH1 0x0 REVERT JUMPDEST POP DIV SWAP1 JUMP JUMPDEST PUSH4 0x4E487B71 PUSH1 0xE0 SHL PUSH1 0x0 MSTORE PUSH1 0x32 PUSH1 0x4 MSTORE PUSH1 0x24 PUSH1 0x0 REVERT JUMPDEST PUSH1 0x0 PUSH1 0x1 DUP3 ADD PUSH2 0x1448 JUMPI PUSH2 0x1448 PUSH2 0x11F8 JUMP JUMPDEST POP PUSH1 0x1 ADD SWAP1 JUMP JUMPDEST PUSH1 0x1 DUP2 DUP2 SHR SWAP1 DUP3 AND DUP1 PUSH2 0x1463 JUMPI PUSH1 0x7F DUP3 AND SWAP2 POP JUMPDEST PUSH1 0x20 DUP3 LT DUP2 SUB PUSH2 0x1483 JUMPI PUSH4 0x4E487B71 PUSH1 0xE0 SHL PUSH1 0x0 MSTORE PUSH1 0x22 PUSH1 0x4 MSTORE PUSH1 0x24 PUSH1 0x0 REVERT JUMPDEST POP SWAP2 SWAP1 POP JUMP JUMPDEST PUSH1 0x1F DUP3 GT ISZERO PUSH2 0x14D3 JUMPI PUSH1 0x0 DUP2 DUP2 MSTORE PUSH1 0x20 DUP2 KECCAK256 PUSH1 0x1F DUP6 ADD PUSH1 0x5 SHR DUP2 ADD PUSH1 0x20 DUP7 LT ISZERO PUSH2 0x14B0 JUMPI POP DUP1 JUMPDEST PUSH1 0x1F DUP6 ADD PUSH1 0x5 SHR DUP3 ADD SWAP2 POP JUMPDEST DUP2 DUP2 LT ISZERO PUSH2 0x14CF JUMPI DUP3 DUP2 SSTORE PUSH1 0x1 ADD PUSH2 0x14BC JUMP JUMPDEST POP POP POP JUMPDEST POP POP POP JUMP JUMPDEST DUP2 MLOAD PUSH8 0xFFFFFFFFFFFFFFFF DUP2 GT ISZERO PUSH2 0x14F2 JUMPI PUSH2 0x14F2 PUSH2 0x1227 JUMP JUMPDEST PUSH2 0x1506 DUP2 PUSH2 0x1500 DUP5 SLOAD PUSH2 0x144F JUMP JUMPDEST DUP5 PUSH2 0x1489 JUMP JUMPDEST PUSH1 0x20 DUP1 PUSH1 0x1F DUP4 GT PUSH1 0x1 DUP2 EQ PUSH2 0x153B JUMPI PUSH1 0x0 DUP5 ISZERO PUSH2 0x1523 JUMPI POP DUP6 DUP4 ADD MLOAD JUMPDEST PUSH1 0x0 NOT PUSH1 0x3 DUP7 SWAP1 SHL SHR NOT AND PUSH1 0x1 DUP6 SWAP1 SHL OR DUP6 SSTORE PUSH2 0x14CF JUMP JUMPDEST PUSH1 0x0 DUP6 DUP2 MSTORE PUSH1 0x20 DUP2 KECCAK256 PUSH1 0x1F NOT DUP7 AND SWAP2 JUMPDEST DUP3 DUP2 LT ISZERO PUSH2 0x156A JUMPI DUP9 DUP7 ADD MLOAD DUP3 SSTORE SWAP5 DUP5 ADD SWAP5 PUSH1 0x1 SWAP1 SWAP2 ADD SWAP1 DUP5 ADD PUSH2 0x154B JUMP JUMPDEST POP DUP6 DUP3 LT ISZERO PUSH2 0x1588 JUMPI DUP8 DUP6 ADD MLOAD PUSH1 0x0 NOT PUSH1 0x3 DUP9 SWAP1 SHL PUSH1 0xF8 AND SHR NOT AND DUP2 SSTORE JUMPDEST POP POP POP POP POP PUSH1 0x1 SWAP1 DUP2 SHL ADD SWAP1 SSTORE POP JUMP JUMPDEST PUSH1 0x40 DUP2 MSTORE PUSH1 0x0 PUSH2 0x15AB PUSH1 0x40 DUP4 ADD DUP6 PUSH2 0x135D JUMP JUMPDEST SWAP1 POP DUP3 PUSH1 0x20 DUP4 ADD MSTORE SWAP4 SWAP3 POP POP POP JUMP JUMPDEST PUSH4 0x4E487B71 PUSH1 0xE0 SHL PUSH1 0x0 MSTORE PUSH1 0x31 PUSH1 0x4 MSTORE PUSH1 0x24 PUSH1 0x0 REVERT INVALID LOG2 PUSH5 0x6970667358 0x22 SLT KECCAK256 DUP6 0x5E 0xE8 PUSH32 0x55CBA880450C4402962329E13F5034856469464E4423DD9B560D94B364736F6C PUSH4 0x43000814 STOP CALLER "},"methodIdentifiers":{"MIN_STAKE()":"cb1c2b5c","YIELD_RATE()":"e852090a","claimYield()":"406cf229","createPool(string,uint256)":"26fc66ab","distributeYield()":"8a570a12","getStakerCount()":"1319649d","getStakerInfo(address)":"733bdef0","getVaultStats()":"a59aa5a6","investInPool(uint256,uint256)":"a53caaa8","owner()":"8da5cb5b","poolCount()":"f525cb68","pools(uint256)":"ac4afa38","stake()":"3a4b66f1","stakerAddresses(uint256)":"459598a2","stakers(address)":"9168ae72","totalStaked()":"817b1cd2","totalYieldGenerated()":"8c825056","unstake(uint256)":"2e17de78"}}}}}