{
  "_format": "hh-sol-artifact-1",
  "contractName": "AssetTokenization",
  "sourceName": "contracts/AssetTokenization.sol",
  "abi": [
    {
      "inputs": [],
      "stateMutability": "nonpayable",
      "type": "constructor"
    },
    {
      "anonymous": false,
      "inputs": [
        {
          "indexed": true,
          "internalType": "uint256",
          "name": "assetId",
          "type": "uint256"
        }
      ],
      "name": "AssetActivated",
      "type": "event"
    },
    {
      "anonymous": false,
      "inputs": [
        {
          "indexed": true,
          "internalType": "uint256",
          "name": "assetId",
          "type": "uint256"
        },
        {
          "indexed": true,
          "internalType": "address",
          "name": "creator",
          "type": "address"
        },
        {
          "indexed": false,
          "internalType": "string",
          "name": "name",
          "type": "string"
        },
        {
          "indexed": false,
          "internalType": "uint256",
          "name": "totalSupply",
          "type": "uint256"
        },
        {
          "indexed": false,
          "internalType": "uint256",
          "name": "pricePerShare",
          "type": "uint256"
        }
      ],
      "name": "AssetCreated",
      "type": "event"
    },
    {
      "anonymous": false,
      "inputs": [
        {
          "indexed": true,
          "internalType": "uint256",
          "name": "assetId",
          "type": "uint256"
        }
      ],
      "name": "AssetDelisted",
      "type": "event"
    },
    {
      "anonymous": false,
      "inputs": [
        {
          "indexed": true,
          "internalType": "uint256",
          "name": "assetId",
          "type": "uint256"
        },
        {
          "indexed": true,
          "internalType": "address",
          "name": "shareholder",
          "type": "address"
        },
        {
          "indexed": false,
          "internalType": "uint256",
          "name": "amount",
          "type": "uint256"
        }
      ],
      "name": "RevenueDistributed",
      "type": "event"
    },
    {
      "anonymous": false,
      "inputs": [
        {
          "indexed": true,
          "internalType": "uint256",
          "name": "assetId",
          "type": "uint256"
        },
        {
          "indexed": true,
          "internalType": "address",
          "name": "buyer",
          "type": "address"
        },
        {
          "indexed": false,
          "internalType": "uint256",
          "name": "shares",
          "type": "uint256"
        },
        {
          "indexed": false,
          "internalType": "uint256",
          "name": "totalCost",
          "type": "uint256"
        }
      ],
      "name": "SharesPurchased",
      "type": "event"
    },
    {
      "inputs": [],
      "name": "DISTRIBUTION_INTERVAL",
      "outputs": [
        {
          "internalType": "uint256",
          "name": "",
          "type": "uint256"
        }
      ],
      "stateMutability": "view",
      "type": "function"
    },
    {
      "inputs": [],
      "name": "assetCounter",
      "outputs": [
        {
          "internalType": "uint256",
          "name": "",
          "type": "uint256"
        }
      ],
      "stateMutability": "view",
      "type": "function"
    },
    {
      "inputs": [
        {
          "internalType": "uint256",
          "name": "",
          "type": "uint256"
        }
      ],
      "name": "assets",
      "outputs": [
        {
          "internalType": "uint256",
          "name": "id",
          "type": "uint256"
        },
        {
          "internalType": "address",
          "name": "creator",
          "type": "address"
        },
        {
          "internalType": "string",
          "name": "name",
          "type": "string"
        },
        {
          "internalType": "string",
          "name": "description",
          "type": "string"
        },
        {
          "internalType": "string",
          "name": "assetType",
          "type": "string"
        },
        {
          "internalType": "uint256",
          "name": "totalSupply",
          "type": "uint256"
        },
        {
          "internalType": "uint256",
          "name": "totalValue",
          "type": "uint256"
        },
        {
          "internalType": "uint256",
          "name": "pricePerShare",
          "type": "uint256"
        },
        {
          "internalType": "uint256",
          "name": "sharesSold",
          "type": "uint256"
        },
        {
          "internalType": "uint256",
          "name": "revenueGenerated",
          "type": "uint256"
        },
        {
          "internalType": "uint256",
          "name": "lastDistribution",
          "type": "uint256"
        },
        {
          "internalType": "enum AssetTokenization.AssetStatus",
          "name": "status",
          "type": "uint8"
        },
        {
          "internalType": "address",
          "name": "beneficiary",
          "type": "address"
        },
        {
          "internalType": "uint256",
          "name": "beneficiaryFee",
          "type": "uint256"
        }
      ],
      "stateMutability": "view",
      "type": "function"
    },
    {
      "inputs": [
        {
          "internalType": "uint256",
          "name": "assetId",
          "type": "uint256"
        }
      ],
      "name": "claimRevenue",
      "outputs": [],
      "stateMutability": "nonpayable",
      "type": "function"
    },
    {
      "inputs": [
        {
          "internalType": "string",
          "name": "name",
          "type": "string"
        },
        {
          "internalType": "string",
          "name": "description",
          "type": "string"
        },
        {
          "internalType": "string",
          "name": "assetType",
          "type": "string"
        },
        {
          "internalType": "uint256",
          "name": "totalSupply",
          "type": "uint256"
        },
        {
          "internalType": "uint256",
          "name": "totalValue",
          "type": "uint256"
        },
        {
          "internalType": "address",
          "name": "beneficiary",
          "type": "address"
        },
        {
          "internalType": "uint256",
          "name": "beneficiaryFee",
          "type": "uint256"
        }
      ],
      "name": "createAsset",
      "outputs": [
        {
          "internalType": "uint256",
          "name": "",
          "type": "uint256"
        }
      ],
      "stateMutability": "nonpayable",
      "type": "function"
    },
    {
      "inputs": [
        {
          "internalType": "uint256",
          "name": "assetId",
          "type": "uint256"
        }
      ],
      "name": "delistAsset",
      "outputs": [],
      "stateMutability": "nonpayable",
      "type": "function"
    },
    {
      "inputs": [
        {
          "internalType": "uint256",
          "name": "assetId",
          "type": "uint256"
        }
      ],
      "name": "getAsset",
      "outputs": [
        {
          "internalType": "address",
          "name": "creator",
          "type": "address"
        },
        {
          "internalType": "string",
          "name": "name",
          "type": "string"
        },
        {
          "internalType": "string",
          "name": "description",
          "type": "string"
        },
        {
          "internalType": "string",
          "name": "assetType",
          "type": "string"
        },
        {
          "internalType": "uint256",
          "name": "totalSupply",
          "type": "uint256"
        },
        {
          "internalType": "uint256",
          "name": "sharesSold",
          "type": "uint256"
        },
        {
          "internalType": "uint256",
          "name": "pricePerShare",
          "type": "uint256"
        },
        {
          "internalType": "uint256",
          "name": "revenueGenerated",
          "type": "uint256"
        },
        {
          "internalType": "enum AssetTokenization.AssetStatus",
          "name": "status",
          "type": "uint8"
        },
        {
          "internalType": "address",
          "name": "beneficiary",
          "type": "address"
        }
      ],
      "stateMutability": "view",
      "type": "function"
    },
    {
      "inputs": [
        {
          "internalType": "uint256",
          "name": "assetId",
          "type": "uint256"
        }
      ],
      "name": "getFundingProgress",
      "outputs": [
        {
          "internalType": "uint256",
          "name": "sold",
          "type": "uint256"
        },
        {
          "internalType": "uint256",
          "name": "total",
          "type": "uint256"
        },
        {
          "internalType": "uint256",
          "name": "progressPercent",
          "type": "uint256"
        },
        {
          "internalType": "uint256",
          "name": "remainingShares",
          "type": "uint256"
        }
      ],
      "stateMutability": "view",
      "type": "function"
    },
    {
      "inputs": [
        {
          "internalType": "address",
          "name": "user",
          "type": "address"
        }
      ],
      "name": "getUserAssets",
      "outputs": [
        {
          "internalType": "uint256[]",
          "name": "",
          "type": "uint256[]"
        }
      ],
      "stateMutability": "view",
      "type": "function"
    },
    {
      "inputs": [
        {
          "internalType": "uint256",
          "name": "assetId",
          "type": "uint256"
        },
        {
          "internalType": "address",
          "name": "user",
          "type": "address"
        }
      ],
      "name": "getUserShares",
      "outputs": [
        {
          "internalType": "uint256",
          "name": "",
          "type": "uint256"
        }
      ],
      "stateMutability": "view",
      "type": "function"
    },
    {
      "inputs": [],
      "name": "owner",
      "outputs": [
        {
          "internalType": "address",
          "name": "",
          "type": "address"
        }
      ],
      "stateMutability": "view",
      "type": "function"
    },
    {
      "inputs": [
        {
          "internalType": "uint256",
          "name": "",
          "type": "uint256"
        },
        {
          "internalType": "address",
          "name": "",
          "type": "address"
        }
      ],
      "name": "pendingRevenue",
      "outputs": [
        {
          "internalType": "uint256",
          "name": "",
          "type": "uint256"
        }
      ],
      "stateMutability": "view",
      "type": "function"
    },
    {
      "inputs": [
        {
          "internalType": "uint256",
          "name": "assetId",
          "type": "uint256"
        },
        {
          "internalType": "uint256",
          "name": "shareAmount",
          "type": "uint256"
        }
      ],
      "name": "purchaseShares",
      "outputs": [],
      "stateMutability": "payable",
      "type": "function"
    },
    {
      "inputs": [
        {
          "internalType": "uint256",
          "name": "assetId",
          "type": "uint256"
        }
      ],
      "name": "recordRevenue",
      "outputs": [],
      "stateMutability": "payable",
      "type": "function"
    },
    {
      "inputs": [
        {
          "internalType": "uint256",
          "name": "",
          "type": "uint256"
        },
        {
          "internalType": "address",
          "name": "",
          "type": "address"
        }
      ],
      "name": "shares",
      "outputs": [
        {
          "internalType": "uint256",
          "name": "",
          "type": "uint256"
        }
      ],
      "stateMutability": "view",
      "type": "function"
    },
    {
      "inputs": [
        {
          "internalType": "address",
          "name": "",
          "type": "address"
        },
        {
          "internalType": "uint256",
          "name": "",
          "type": "uint256"
        }
      ],
      "name": "userAssets",
      "outputs": [
        {
          "internalType": "uint256",
          "name": "",
          "type": "uint256"
        }
      ],
      "stateMutability": "view",
      "type": "function"
    },
    {
      "stateMutability": "payable",
      "type": "receive"
    }
  ],
  "bytecode": "0x608060405234801561001057600080fd5b50600080546001600160a01b03191633179055611fcb806100326000396000f3fe6080604052600436106100f75760003560e01c8063835dc40b1161008a578063cf35bdd011610059578063cf35bdd0146102cd578063d2bcdc6014610307578063eac8f5b81461031a578063ff4c5f6b1461035057600080fd5b8063835dc40b1461021d5780638da5cb5b1461023d578063bb0bc51414610275578063c2043954146102ad57600080fd5b80634b918786116100c65780634b918786146101825780636a8a69aa14610198578063765ff061146101b857806382481d49146101e557600080fd5b806308b26b75146101035780631cb536ed1461012d5780632b76c1bf1461014f57806343d7c7781461016257600080fd5b366100fe57005b600080fd5b34801561010f57600080fd5b5061011a62278d0081565b6040519081526020015b60405180910390f35b34801561013957600080fd5b5061014d610148366004611943565b610390565b005b61014d61015d366004611943565b61058c565b34801561016e57600080fd5b5061014d61017d366004611943565b6106f7565b34801561018e57600080fd5b5061011a60015481565b3480156101a457600080fd5b5061011a6101b3366004611978565b610818565b3480156101c457600080fd5b506101d86101d33660046119a2565b610849565b60405161012491906119c4565b3480156101f157600080fd5b5061011a610200366004611a08565b600360209081526000928352604080842090915290825290205481565b34801561022957600080fd5b5061011a610238366004611a08565b6108b5565b34801561024957600080fd5b5060005461025d906001600160a01b031681565b6040516001600160a01b039091168152602001610124565b34801561028157600080fd5b5061011a610290366004611a08565b600560209081526000928352604080842090915290825290205481565b3480156102b957600080fd5b5061011a6102c8366004611ad7565b6108df565b3480156102d957600080fd5b506102ed6102e8366004611943565b610bff565b6040516101249e9d9c9b9a99989796959493929190611c0b565b61014d610315366004611cba565b610e19565b34801561032657600080fd5b5061033a610335366004611943565b6111fd565b6040516101249a99989796959493929190611cdc565b34801561035c57600080fd5b5061037061036b366004611943565b611535565b604080519485526020850193909352918301526060820152608001610124565b6000818152600260205260408120548291036103c75760405162461bcd60e51b81526004016103be90611d6c565b60405180910390fd5b600082815260026020819052604090912090600b82015460ff1660048111156103f2576103f2611bd3565b146104325760405162461bcd60e51b815260206004820152601060248201526f4173736574206e6f742061637469766560801b60448201526064016103be565b60008381526003602090815260408083203384529091529020548061048b5760405162461bcd60e51b815260206004820152600f60248201526e139bc81cda185c995cc81bdddb9959608a1b60448201526064016103be565b600084815260056020908152604080832033845290915290205480156105855760008581526005602090815260408083203380855292528083208390555183908381818185875af1925050503d8060008114610503576040519150601f19603f3d011682016040523d82523d6000602084013e610508565b606091505b505090508061054b5760405162461bcd60e51b815260206004820152600f60248201526e151c985b9cd9995c8819985a5b1959608a1b60448201526064016103be565b604051828152339087907f2ff16bd72e6515200e2c2ac219e490d69e5adf1b899e529f2b3610a58669a05e906020015b60405180910390a3505b5050505050565b6000818152600260205260408120548291036105ba5760405162461bcd60e51b81526004016103be90611d6c565b600082815260026020819052604090912090600b82015460ff1660048111156105e5576105e5611bd3565b146106255760405162461bcd60e51b815260206004820152601060248201526f4173736574206e6f742061637469766560801b60448201526064016103be565b600b81015461010090046001600160a01b031633148061064f57506000546001600160a01b031633145b61068c5760405162461bcd60e51b815260206004820152600e60248201526d139bdd08185d5d1a1bdc9a5e995960921b60448201526064016103be565b600034116106ce5760405162461bcd60e51b815260206004820152600f60248201526e139bc81c995d995b9d59481cd95b9d608a1b60448201526064016103be565b348160090160008282546106e29190611db0565b909155506106f290508334611827565b505050565b6000546001600160a01b031633146107425760405162461bcd60e51b815260206004820152600e60248201526d139bdd08185d5d1a1bdc9a5e995960921b60448201526064016103be565b6000818152600260205260408120548291036107705760405162461bcd60e51b81526004016103be90611d6c565b60008281526002602052604090206004600b82015460ff16600481111561079957610799611bd3565b036107d95760405162461bcd60e51b815260206004820152601060248201526f105b1c9958591e4819195b1a5cdd195960821b60448201526064016103be565b600b8101805460ff1916600417905560405183907f5ba6f9a092ce612cd2ddadd42e8dcfe4eecc4b666f9cfa3bb503b8b876ff4da190600090a2505050565b6004602052816000526040600020818154811061083457600080fd5b90600052602060002001600091509150505481565b6001600160a01b0381166000908152600460209081526040918290208054835181840281018401909452808452606093928301828280156108a957602002820191906000526020600020905b815481526020019060010190808311610895575b50505050509050919050565b60008281526003602090815260408083206001600160a01b03851684529091529020545b92915050565b60008085116109215760405162461bcd60e51b815260206004820152600e60248201526d496e76616c696420737570706c7960901b60448201526064016103be565b600084116109615760405162461bcd60e51b815260206004820152600d60248201526c496e76616c69642076616c756560981b60448201526064016103be565b60148211156109b25760405162461bcd60e51b815260206004820152601860248201527f42656e65666963696172792066656520746f6f2068696768000000000000000060448201526064016103be565b60008851116109f35760405162461bcd60e51b815260206004820152600d60248201526c13985b59481c995c5d5a5c9959609a1b60448201526064016103be565b60018054906000610a0383611dc3565b90915550506001546000610a178787611ddc565b9050604051806101c00160405280838152602001336001600160a01b031681526020018b81526020018a815260200189815260200188815260200187815260200182815260200160008152602001600081526020016000815260200160016004811115610a8657610a86611bd3565b81526001600160a01b038781166020808401919091526040928301889052600086815260028083529084902085518155918501516001830180546001600160a01b03191691909416179092559183015190820190610ae49082611e86565b5060608201516003820190610af99082611e86565b5060808201516004820190610b0e9082611e86565b5060a0820151600582015560c0820151600682015560e0820151600782015561010082015160088201556101208201516009820155610140820151600a820155610160820151600b8201805460ff19166001836004811115610b7257610b72611bd3565b0217905550610180820151600b820180546001600160a01b0390921661010002610100600160a81b03199092169190911790556101a090910151600c90910155604051339083907f01b72beabfa8420e9b47a1c3d6764a97e2044c51b3368b66b161a5fc8ceebccf90610bea908e908c908790611f46565b60405180910390a35098975050505050505050565b600260208190526000918252604090912080546001820154928201805491936001600160a01b03169291610c3290611dfe565b80601f0160208091040260200160405190810160405280929190818152602001828054610c5e90611dfe565b8015610cab5780601f10610c8057610100808354040283529160200191610cab565b820191906000526020600020905b815481529060010190602001808311610c8e57829003601f168201915b505050505090806003018054610cc090611dfe565b80601f0160208091040260200160405190810160405280929190818152602001828054610cec90611dfe565b8015610d395780601f10610d0e57610100808354040283529160200191610d39565b820191906000526020600020905b815481529060010190602001808311610d1c57829003601f168201915b505050505090806004018054610d4e90611dfe565b80601f0160208091040260200160405190810160405280929190818152602001828054610d7a90611dfe565b8015610dc75780601f10610d9c57610100808354040283529160200191610dc7565b820191906000526020600020905b815481529060010190602001808311610daa57829003601f168201915b50505060058401546006850154600786015460088701546009880154600a890154600b8a0154600c909a0154989995989497509295509093909260ff8216916001600160a01b0361010090910416908e565b600082815260026020526040812054839103610e475760405162461bcd60e51b81526004016103be90611d6c565b60008381526002602052604090206001600b82015460ff166004811115610e7057610e70611bd3565b14610eb45760405162461bcd60e51b81526020600482015260146024820152734173736574206e6f7420696e2066756e64696e6760601b60448201526064016103be565b60008311610efb5760405162461bcd60e51b8152602060048201526014602482015273125b9d985b1a59081cda185c9948185b5bdd5b9d60621b60448201526064016103be565b8060050154838260080154610f109190611db0565b1115610f5e5760405162461bcd60e51b815260206004820152601b60248201527f4e6f7420656e6f7567682073686172657320617661696c61626c65000000000060448201526064016103be565b6000838260070154610f709190611f6b565b905080341015610fb95760405162461bcd60e51b8152602060048201526014602482015273125b9cdd59999a58da595b9d081c185e5b595b9d60621b60448201526064016103be565b83826008016000828254610fcd9190611db0565b90915550506000858152600360209081526040808320338452909152812054900361101557336000908152600460209081526040822080546001810182559083529120018590555b60008581526003602090815260408083203384529091528120805486929061103e908490611db0565b9091555050600582015460088301540361109357600b8201805460ff1916600217905542600a83015560405185907f23a39165e7ea63387856bbb51381519f6966967b3e854e9b16035b778c1cb97d90600090a25b8034111561112c576000336110a88334611f82565b604051600081818185875af1925050503d80600081146110e4576040519150601f19603f3d011682016040523d82523d6000602084013e6110e9565b606091505b505090508061112a5760405162461bcd60e51b815260206004820152600d60248201526c1499599d5b990819985a5b1959609a1b60448201526064016103be565b505b60018201546040516000916001600160a01b03169083908381818185875af1925050503d806000811461117b576040519150601f19603f3d011682016040523d82523d6000602084013e611180565b606091505b50509050806111c35760405162461bcd60e51b815260206004820152600f60248201526e151c985b9cd9995c8819985a5b1959608a1b60448201526064016103be565b6040805186815260208101849052339188917fce81571c08c76465bdf390ad1abe80af8c51c6c4566e3485f9395f13d5ad6328910161057b565b600060608060606000806000806000808a60026000828152602001908152602001600020600001546000036112445760405162461bcd60e51b81526004016103be90611d6c565b60008c815260026020818152604080842081516101c0810183528154815260018201546001600160a01b03169381019390935292830180549293929184019161128c90611dfe565b80601f01602080910402602001604051908101604052809291908181526020018280546112b890611dfe565b80156113055780601f106112da57610100808354040283529160200191611305565b820191906000526020600020905b8154815290600101906020018083116112e857829003601f168201915b5050505050815260200160038201805461131e90611dfe565b80601f016020809104026020016040519081016040528092919081815260200182805461134a90611dfe565b80156113975780601f1061136c57610100808354040283529160200191611397565b820191906000526020600020905b81548152906001019060200180831161137a57829003601f168201915b505050505081526020016004820180546113b090611dfe565b80601f01602080910402602001604051908101604052809291908181526020018280546113dc90611dfe565b80156114295780601f106113fe57610100808354040283529160200191611429565b820191906000526020600020905b81548152906001019060200180831161140c57829003601f168201915b505050918352505060058201546020820152600682015460408201526007820154606082015260088201546080820152600982015460a0820152600a82015460c0820152600b82015460e09091019060ff16600481111561148c5761148c611bd3565b600481111561149d5761149d611bd3565b8152602001600b820160019054906101000a90046001600160a01b03166001600160a01b03166001600160a01b03168152602001600c82015481525050905080602001519b5080604001519a5080606001519950806080015198508060a00151975080610100015196508060e00151955080610120015194508061016001519350806101800151925050509193959799509193959799565b6000818152600260205260408120548190819081908590820361156a5760405162461bcd60e51b81526004016103be90611d6c565b600086815260026020818152604080842081516101c0810183528154815260018201546001600160a01b0316938101939093529283018054929392918401916115b290611dfe565b80601f01602080910402602001604051908101604052809291908181526020018280546115de90611dfe565b801561162b5780601f106116005761010080835404028352916020019161162b565b820191906000526020600020905b81548152906001019060200180831161160e57829003601f168201915b5050505050815260200160038201805461164490611dfe565b80601f016020809104026020016040519081016040528092919081815260200182805461167090611dfe565b80156116bd5780601f10611692576101008083540402835291602001916116bd565b820191906000526020600020905b8154815290600101906020018083116116a057829003601f168201915b505050505081526020016004820180546116d690611dfe565b80601f016020809104026020016040519081016040528092919081815260200182805461170290611dfe565b801561174f5780601f106117245761010080835404028352916020019161174f565b820191906000526020600020905b81548152906001019060200180831161173257829003601f168201915b505050918352505060058201546020820152600682015460408201526007820154606082015260088201546080820152600982015460a0820152600a82015460c0820152600b82015460e09091019060ff1660048111156117b2576117b2611bd3565b60048111156117c3576117c3611bd3565b8152600b8201546001600160a01b0361010091829004166020830152600c9092015460409091015281015160a08201519097509550905084611806876064611f6b565b6118109190611ddc565b935061181c8686611f82565b925050509193509193565b6000828152600260205260408120600c81015490919060649061184a9085611f6b565b6118549190611ddc565b905060006118628285611f82565b90506000821180156118855750600b83015461010090046001600160a01b031615155b1561193657600b83015460405160009161010090046001600160a01b03169084908381818185875af1925050503d80600081146118de576040519150601f19603f3d011682016040523d82523d6000602084013e6118e3565b606091505b50509050806119345760405162461bcd60e51b815260206004820152601b60248201527f42656e6566696369617279207472616e73666572206661696c6564000000000060448201526064016103be565b505b505042600a909101555050565b60006020828403121561195557600080fd5b5035919050565b80356001600160a01b038116811461197357600080fd5b919050565b6000806040838503121561198b57600080fd5b6119948361195c565b946020939093013593505050565b6000602082840312156119b457600080fd5b6119bd8261195c565b9392505050565b6020808252825182820181905260009190848201906040850190845b818110156119fc578351835292840192918401916001016119e0565b50909695505050505050565b60008060408385031215611a1b57600080fd5b82359150611a2b6020840161195c565b90509250929050565b634e487b7160e01b600052604160045260246000fd5b600082601f830112611a5b57600080fd5b813567ffffffffffffffff80821115611a7657611a76611a34565b604051601f8301601f19908116603f01168101908282118183101715611a9e57611a9e611a34565b81604052838152866020858801011115611ab757600080fd5b836020870160208301376000602085830101528094505050505092915050565b600080600080600080600060e0888a031215611af257600080fd5b873567ffffffffffffffff80821115611b0a57600080fd5b611b168b838c01611a4a565b985060208a0135915080821115611b2c57600080fd5b611b388b838c01611a4a565b975060408a0135915080821115611b4e57600080fd5b50611b5b8a828b01611a4a565b9550506060880135935060808801359250611b7860a0890161195c565b915060c0880135905092959891949750929550565b6000815180845260005b81811015611bb357602081850181015186830182015201611b97565b506000602082860101526020601f19601f83011685010191505092915050565b634e487b7160e01b600052602160045260246000fd5b60058110611c0757634e487b7160e01b600052602160045260246000fd5b9052565b8e81526001600160a01b038e1660208201526101c060408201526000611c356101c083018f611b8d565b8281036060840152611c47818f611b8d565b90508281036080840152611c5b818e611b8d565b9150508a60a08301528960c08301528860e0830152876101008301528661012083015285610140830152611c93610160830186611be9565b6001600160a01b03939093166101808201526101a001529c9b505050505050505050505050565b60008060408385031215611ccd57600080fd5b50508035926020909101359150565b6001600160a01b038b8116825261014060208301819052600091611d028483018e611b8d565b91508382036040850152611d16828d611b8d565b91508382036060850152611d2a828c611b8d565b92508960808501528860a08501528760c08501528660e0850152611d52610100850187611be9565b80851661012085015250509b9a5050505050505050505050565b602080825260149082015273105cdcd95d08191bd95cc81b9bdd08195e1a5cdd60621b604082015260600190565b634e487b7160e01b600052601160045260246000fd5b808201808211156108d9576108d9611d9a565b600060018201611dd557611dd5611d9a565b5060010190565b600082611df957634e487b7160e01b600052601260045260246000fd5b500490565b600181811c90821680611e1257607f821691505b602082108103611e3257634e487b7160e01b600052602260045260246000fd5b50919050565b601f8211156106f257600081815260208120601f850160051c81016020861015611e5f5750805b601f850160051c820191505b81811015611e7e57828155600101611e6b565b505050505050565b815167ffffffffffffffff811115611ea057611ea0611a34565b611eb481611eae8454611dfe565b84611e38565b602080601f831160018114611ee95760008415611ed15750858301515b600019600386901b1c1916600185901b178555611e7e565b600085815260208120601f198616915b82811015611f1857888601518255948401946001909101908401611ef9565b5085821015611f365787850151600019600388901b60f8161c191681555b5050505050600190811b01905550565b606081526000611f596060830186611b8d565b60208301949094525060400152919050565b80820281158282048414176108d9576108d9611d9a565b818103818111156108d9576108d9611d9a56fea2646970667358221220a042f902d07bf91af25207a7543ecc705f4511001cc3152c6ad0988c635dd8b764736f6c63430008140033",
  "linkReferences": {},
  "deployedLinkReferences": {}
}